{
  "_format": "hh-sol-artifact-1",
  "contractName": "SMARTIdentityRegistry",
  "sourceName": "src/core/SMARTIdentityRegistry.sol",
  "abi": [
    {
      "inputs": [],
      "stateMutability": "nonpayable",
      "type": "constructor"
    },
    {
      "anonymous": false,
      "inputs": [
        {
          "indexed": true,
          "internalType": "address",
          "name": "identity",
          "type": "address"
        },
        {
          "indexed": true,
          "internalType": "bytes32",
          "name": "claimId",
          "type": "bytes32"
        },
        {
          "indexed": true,
          "internalType": "uint256",
          "name": "claimType",
          "type": "uint256"
        },
        {
          "indexed": false,
          "internalType": "address",
          "name": "issuer",
          "type": "address"
        },
        {
          "indexed": false,
          "internalType": "uint256",
          "name": "expiresAt",
          "type": "uint256"
        }
      ],
      "name": "ClaimAdded",
      "type": "event"
    },
    {
      "anonymous": false,
      "inputs": [
        {
          "indexed": true,
          "internalType": "address",
          "name": "identity",
          "type": "address"
        },
        {
          "indexed": true,
          "internalType": "bytes32",
          "name": "claimId",
          "type": "bytes32"
        },
        {
          "indexed": false,
          "internalType": "uint256",
          "name": "timestamp",
          "type": "uint256"
        }
      ],
      "name": "ClaimRemoved",
      "type": "event"
    },
    {
      "anonymous": false,
      "inputs": [
        {
          "indexed": true,
          "internalType": "address",
          "name": "identity",
          "type": "address"
        },
        {
          "indexed": true,
          "internalType": "bytes32",
          "name": "claimId",
          "type": "bytes32"
        },
        {
          "indexed": false,
          "internalType": "address",
          "name": "revokedBy",
          "type": "address"
        },
        {
          "indexed": false,
          "internalType": "uint256",
          "name": "timestamp",
          "type": "uint256"
        }
      ],
      "name": "ClaimRevoked",
      "type": "event"
    },
    {
      "anonymous": false,
      "inputs": [
        {
          "indexed": true,
          "internalType": "address",
          "name": "issuer",
          "type": "address"
        },
        {
          "indexed": false,
          "internalType": "string",
          "name": "name",
          "type": "string"
        },
        {
          "indexed": false,
          "internalType": "enum SMARTIdentityRegistry.IssuerType",
          "name": "issuerType",
          "type": "uint8"
        },
        {
          "indexed": false,
          "internalType": "uint256",
          "name": "timestamp",
          "type": "uint256"
        }
      ],
      "name": "IssuerAdded",
      "type": "event"
    },
    {
      "anonymous": false,
      "inputs": [
        {
          "indexed": true,
          "internalType": "address",
          "name": "issuer",
          "type": "address"
        },
        {
          "indexed": false,
          "internalType": "uint256",
          "name": "timestamp",
          "type": "uint256"
        }
      ],
      "name": "IssuerRemoved",
      "type": "event"
    },
    {
      "anonymous": false,
      "inputs": [
        {
          "indexed": true,
          "internalType": "address",
          "name": "issuer",
          "type": "address"
        },
        {
          "indexed": false,
          "internalType": "bool",
          "name": "isActive",
          "type": "bool"
        },
        {
          "indexed": false,
          "internalType": "uint256",
          "name": "timestamp",
          "type": "uint256"
        }
      ],
      "name": "IssuerStatusChanged",
      "type": "event"
    },
    {
      "anonymous": false,
      "inputs": [
        {
          "indexed": true,
          "internalType": "address",
          "name": "issuer",
          "type": "address"
        },
        {
          "indexed": false,
          "internalType": "string",
          "name": "name",
          "type": "string"
        },
        {
          "indexed": false,
          "internalType": "string",
          "name": "uri",
          "type": "string"
        },
        {
          "indexed": false,
          "internalType": "uint256",
          "name": "timestamp",
          "type": "uint256"
        }
      ],
      "name": "IssuerUpdated",
      "type": "event"
    },
    {
      "anonymous": false,
      "inputs": [
        {
          "indexed": true,
          "internalType": "bytes32",
          "name": "role",
          "type": "bytes32"
        },
        {
          "indexed": true,
          "internalType": "bytes32",
          "name": "previousAdminRole",
          "type": "bytes32"
        },
        {
          "indexed": true,
          "internalType": "bytes32",
          "name": "newAdminRole",
          "type": "bytes32"
        }
      ],
      "name": "RoleAdminChanged",
      "type": "event"
    },
    {
      "anonymous": false,
      "inputs": [
        {
          "indexed": true,
          "internalType": "bytes32",
          "name": "role",
          "type": "bytes32"
        },
        {
          "indexed": true,
          "internalType": "address",
          "name": "account",
          "type": "address"
        },
        {
          "indexed": true,
          "internalType": "address",
          "name": "sender",
          "type": "address"
        }
      ],
      "name": "RoleGranted",
      "type": "event"
    },
    {
      "anonymous": false,
      "inputs": [
        {
          "indexed": true,
          "internalType": "bytes32",
          "name": "role",
          "type": "bytes32"
        },
        {
          "indexed": true,
          "internalType": "address",
          "name": "account",
          "type": "address"
        },
        {
          "indexed": true,
          "internalType": "address",
          "name": "sender",
          "type": "address"
        }
      ],
      "name": "RoleRevoked",
      "type": "event"
    },
    {
      "inputs": [],
      "name": "CLAIM_TYPE_AUTHENTICATOR",
      "outputs": [
        {
          "internalType": "uint256",
          "name": "",
          "type": "uint256"
        }
      ],
      "stateMutability": "view",
      "type": "function"
    },
    {
      "inputs": [],
      "name": "CLAIM_TYPE_CERTIFICATION",
      "outputs": [
        {
          "internalType": "uint256",
          "name": "",
          "type": "uint256"
        }
      ],
      "stateMutability": "view",
      "type": "function"
    },
    {
      "inputs": [],
      "name": "CLAIM_TYPE_INSTITUTION",
      "outputs": [
        {
          "internalType": "uint256",
          "name": "",
          "type": "uint256"
        }
      ],
      "stateMutability": "view",
      "type": "function"
    },
    {
      "inputs": [],
      "name": "CLAIM_TYPE_ISSUER",
      "outputs": [
        {
          "internalType": "uint256",
          "name": "",
          "type": "uint256"
        }
      ],
      "stateMutability": "view",
      "type": "function"
    },
    {
      "inputs": [],
      "name": "CLAIM_TYPE_PUBLISHER",
      "outputs": [
        {
          "internalType": "uint256",
          "name": "",
          "type": "uint256"
        }
      ],
      "stateMutability": "view",
      "type": "function"
    },
    {
      "inputs": [],
      "name": "DEFAULT_ADMIN_ROLE",
      "outputs": [
        {
          "internalType": "bytes32",
          "name": "",
          "type": "bytes32"
        }
      ],
      "stateMutability": "view",
      "type": "function"
    },
    {
      "inputs": [],
      "name": "ISSUER_MANAGER_ROLE",
      "outputs": [
        {
          "internalType": "bytes32",
          "name": "",
          "type": "bytes32"
        }
      ],
      "stateMutability": "view",
      "type": "function"
    },
    {
      "inputs": [],
      "name": "REGISTRY_ADMIN_ROLE",
      "outputs": [
        {
          "internalType": "bytes32",
          "name": "",
          "type": "bytes32"
        }
      ],
      "stateMutability": "view",
      "type": "function"
    },
    {
      "inputs": [
        {
          "internalType": "address",
          "name": "identity",
          "type": "address"
        },
        {
          "internalType": "uint256",
          "name": "claimType",
          "type": "uint256"
        },
        {
          "internalType": "bytes",
          "name": "data",
          "type": "bytes"
        },
        {
          "internalType": "string",
          "name": "uri",
          "type": "string"
        },
        {
          "internalType": "uint256",
          "name": "expiresAt",
          "type": "uint256"
        },
        {
          "internalType": "bytes",
          "name": "signature",
          "type": "bytes"
        }
      ],
      "name": "addClaim",
      "outputs": [
        {
          "internalType": "bytes32",
          "name": "claimId",
          "type": "bytes32"
        }
      ],
      "stateMutability": "nonpayable",
      "type": "function"
    },
    {
      "inputs": [
        {
          "internalType": "address",
          "name": "issuer",
          "type": "address"
        }
      ],
      "name": "addIssuer",
      "outputs": [],
      "stateMutability": "nonpayable",
      "type": "function"
    },
    {
      "inputs": [
        {
          "internalType": "address",
          "name": "issuer",
          "type": "address"
        },
        {
          "internalType": "string",
          "name": "name",
          "type": "string"
        },
        {
          "internalType": "string",
          "name": "uri",
          "type": "string"
        },
        {
          "internalType": "enum SMARTIdentityRegistry.IssuerType",
          "name": "issuerType",
          "type": "uint8"
        }
      ],
      "name": "addIssuer",
      "outputs": [],
      "stateMutability": "nonpayable",
      "type": "function"
    },
    {
      "inputs": [
        {
          "internalType": "address",
          "name": "",
          "type": "address"
        },
        {
          "internalType": "uint256",
          "name": "",
          "type": "uint256"
        }
      ],
      "name": "claimIds",
      "outputs": [
        {
          "internalType": "bytes32",
          "name": "",
          "type": "bytes32"
        }
      ],
      "stateMutability": "view",
      "type": "function"
    },
    {
      "inputs": [
        {
          "internalType": "address",
          "name": "",
          "type": "address"
        },
        {
          "internalType": "bytes32",
          "name": "",
          "type": "bytes32"
        }
      ],
      "name": "claims",
      "outputs": [
        {
          "internalType": "uint256",
          "name": "claimType",
          "type": "uint256"
        },
        {
          "internalType": "address",
          "name": "issuer",
          "type": "address"
        },
        {
          "internalType": "bytes",
          "name": "signature",
          "type": "bytes"
        },
        {
          "internalType": "bytes",
          "name": "data",
          "type": "bytes"
        },
        {
          "internalType": "string",
          "name": "uri",
          "type": "string"
        },
        {
          "internalType": "uint256",
          "name": "issuedAt",
          "type": "uint256"
        },
        {
          "internalType": "uint256",
          "name": "expiresAt",
          "type": "uint256"
        },
        {
          "internalType": "bool",
          "name": "revoked",
          "type": "bool"
        }
      ],
      "stateMutability": "view",
      "type": "function"
    },
    {
      "inputs": [
        {
          "internalType": "address",
          "name": "",
          "type": "address"
        },
        {
          "internalType": "uint256",
          "name": "",
          "type": "uint256"
        },
        {
          "internalType": "uint256",
          "name": "",
          "type": "uint256"
        }
      ],
      "name": "claimsByType",
      "outputs": [
        {
          "internalType": "bytes32",
          "name": "",
          "type": "bytes32"
        }
      ],
      "stateMutability": "view",
      "type": "function"
    },
    {
      "inputs": [
        {
          "internalType": "address",
          "name": "issuer",
          "type": "address"
        }
      ],
      "name": "deactivateIssuer",
      "outputs": [],
      "stateMutability": "nonpayable",
      "type": "function"
    },
    {
      "inputs": [
        {
          "internalType": "address",
          "name": "identity",
          "type": "address"
        },
        {
          "internalType": "bytes32",
          "name": "claimId",
          "type": "bytes32"
        }
      ],
      "name": "getClaim",
      "outputs": [
        {
          "internalType": "uint256",
          "name": "claimType",
          "type": "uint256"
        },
        {
          "internalType": "address",
          "name": "issuer",
          "type": "address"
        },
        {
          "internalType": "bytes",
          "name": "signature",
          "type": "bytes"
        },
        {
          "internalType": "bytes",
          "name": "data",
          "type": "bytes"
        },
        {
          "internalType": "string",
          "name": "uri",
          "type": "string"
        },
        {
          "internalType": "uint256",
          "name": "issuedAt",
          "type": "uint256"
        },
        {
          "internalType": "uint256",
          "name": "expiresAt",
          "type": "uint256"
        },
        {
          "internalType": "bool",
          "name": "revoked",
          "type": "bool"
        }
      ],
      "stateMutability": "view",
      "type": "function"
    },
    {
      "inputs": [
        {
          "internalType": "address",
          "name": "identity",
          "type": "address"
        }
      ],
      "name": "getClaimIds",
      "outputs": [
        {
          "internalType": "bytes32[]",
          "name": "",
          "type": "bytes32[]"
        }
      ],
      "stateMutability": "view",
      "type": "function"
    },
    {
      "inputs": [
        {
          "internalType": "address",
          "name": "identity",
          "type": "address"
        },
        {
          "internalType": "uint256",
          "name": "claimType",
          "type": "uint256"
        }
      ],
      "name": "getClaimsByType",
      "outputs": [
        {
          "internalType": "bytes32[]",
          "name": "",
          "type": "bytes32[]"
        }
      ],
      "stateMutability": "view",
      "type": "function"
    },
    {
      "inputs": [
        {
          "internalType": "address",
          "name": "issuer",
          "type": "address"
        }
      ],
      "name": "getIssuer",
      "outputs": [
        {
          "internalType": "bool",
          "name": "isActive",
          "type": "bool"
        },
        {
          "internalType": "string",
          "name": "name",
          "type": "string"
        },
        {
          "internalType": "string",
          "name": "uri",
          "type": "string"
        },
        {
          "internalType": "uint256",
          "name": "registeredAt",
          "type": "uint256"
        },
        {
          "internalType": "uint256",
          "name": "claimsIssued",
          "type": "uint256"
        },
        {
          "internalType": "enum SMARTIdentityRegistry.IssuerType",
          "name": "issuerType",
          "type": "uint8"
        }
      ],
      "stateMutability": "view",
      "type": "function"
    },
    {
      "inputs": [],
      "name": "getIssuerCount",
      "outputs": [
        {
          "internalType": "uint256",
          "name": "",
          "type": "uint256"
        }
      ],
      "stateMutability": "view",
      "type": "function"
    },
    {
      "inputs": [
        {
          "internalType": "bytes32",
          "name": "role",
          "type": "bytes32"
        }
      ],
      "name": "getRoleAdmin",
      "outputs": [
        {
          "internalType": "bytes32",
          "name": "",
          "type": "bytes32"
        }
      ],
      "stateMutability": "view",
      "type": "function"
    },
    {
      "inputs": [
        {
          "internalType": "bytes32",
          "name": "role",
          "type": "bytes32"
        },
        {
          "internalType": "address",
          "name": "account",
          "type": "address"
        }
      ],
      "name": "grantRole",
      "outputs": [],
      "stateMutability": "nonpayable",
      "type": "function"
    },
    {
      "inputs": [
        {
          "internalType": "address",
          "name": "actor",
          "type": "address"
        },
        {
          "internalType": "uint256",
          "name": "claimType",
          "type": "uint256"
        }
      ],
      "name": "hasActiveClaim",
      "outputs": [
        {
          "internalType": "bool",
          "name": "",
          "type": "bool"
        }
      ],
      "stateMutability": "view",
      "type": "function"
    },
    {
      "inputs": [
        {
          "internalType": "bytes32",
          "name": "role",
          "type": "bytes32"
        },
        {
          "internalType": "address",
          "name": "account",
          "type": "address"
        }
      ],
      "name": "hasRole",
      "outputs": [
        {
          "internalType": "bool",
          "name": "",
          "type": "bool"
        }
      ],
      "stateMutability": "view",
      "type": "function"
    },
    {
      "inputs": [
        {
          "internalType": "address",
          "name": "identity",
          "type": "address"
        },
        {
          "internalType": "uint256",
          "name": "claimType",
          "type": "uint256"
        }
      ],
      "name": "hasValidClaim",
      "outputs": [
        {
          "internalType": "bool",
          "name": "",
          "type": "bool"
        }
      ],
      "stateMutability": "view",
      "type": "function"
    },
    {
      "inputs": [
        {
          "internalType": "address",
          "name": "identity",
          "type": "address"
        },
        {
          "internalType": "bytes32",
          "name": "claimId",
          "type": "bytes32"
        }
      ],
      "name": "isClaimValid",
      "outputs": [
        {
          "internalType": "bool",
          "name": "",
          "type": "bool"
        }
      ],
      "stateMutability": "view",
      "type": "function"
    },
    {
      "inputs": [
        {
          "internalType": "address",
          "name": "issuer",
          "type": "address"
        }
      ],
      "name": "isIssuer",
      "outputs": [
        {
          "internalType": "bool",
          "name": "",
          "type": "bool"
        }
      ],
      "stateMutability": "view",
      "type": "function"
    },
    {
      "inputs": [
        {
          "internalType": "uint256",
          "name": "",
          "type": "uint256"
        }
      ],
      "name": "issuerList",
      "outputs": [
        {
          "internalType": "address",
          "name": "",
          "type": "address"
        }
      ],
      "stateMutability": "view",
      "type": "function"
    },
    {
      "inputs": [
        {
          "internalType": "address",
          "name": "",
          "type": "address"
        }
      ],
      "name": "issuers",
      "outputs": [
        {
          "internalType": "bool",
          "name": "isActive",
          "type": "bool"
        },
        {
          "internalType": "string",
          "name": "name",
          "type": "string"
        },
        {
          "internalType": "string",
          "name": "uri",
          "type": "string"
        },
        {
          "internalType": "uint256",
          "name": "registeredAt",
          "type": "uint256"
        },
        {
          "internalType": "uint256",
          "name": "claimsIssued",
          "type": "uint256"
        },
        {
          "internalType": "enum SMARTIdentityRegistry.IssuerType",
          "name": "issuerType",
          "type": "uint8"
        }
      ],
      "stateMutability": "view",
      "type": "function"
    },
    {
      "inputs": [
        {
          "internalType": "address",
          "name": "issuer",
          "type": "address"
        }
      ],
      "name": "reactivateIssuer",
      "outputs": [],
      "stateMutability": "nonpayable",
      "type": "function"
    },
    {
      "inputs": [],
      "name": "registryVersion",
      "outputs": [
        {
          "internalType": "uint64",
          "name": "",
          "type": "uint64"
        }
      ],
      "stateMutability": "view",
      "type": "function"
    },
    {
      "inputs": [
        {
          "internalType": "bytes32",
          "name": "claimId",
          "type": "bytes32"
        }
      ],
      "name": "removeClaim",
      "outputs": [],
      "stateMutability": "nonpayable",
      "type": "function"
    },
    {
      "inputs": [
        {
          "internalType": "address",
          "name": "issuer",
          "type": "address"
        }
      ],
      "name": "removeIssuer",
      "outputs": [],
      "stateMutability": "nonpayable",
      "type": "function"
    },
    {
      "inputs": [
        {
          "internalType": "bytes32",
          "name": "role",
          "type": "bytes32"
        },
        {
          "internalType": "address",
          "name": "account",
          "type": "address"
        }
      ],
      "name": "renounceRole",
      "outputs": [],
      "stateMutability": "nonpayable",
      "type": "function"
    },
    {
      "inputs": [
        {
          "internalType": "address",
          "name": "identity",
          "type": "address"
        },
        {
          "internalType": "bytes32",
          "name": "claimId",
          "type": "bytes32"
        }
      ],
      "name": "revokeClaim",
      "outputs": [],
      "stateMutability": "nonpayable",
      "type": "function"
    },
    {
      "inputs": [
        {
          "internalType": "bytes32",
          "name": "role",
          "type": "bytes32"
        },
        {
          "internalType": "address",
          "name": "account",
          "type": "address"
        }
      ],
      "name": "revokeRole",
      "outputs": [],
      "stateMutability": "nonpayable",
      "type": "function"
    },
    {
      "inputs": [
        {
          "internalType": "address",
          "name": "actor",
          "type": "address"
        },
        {
          "internalType": "uint256",
          "name": "requiredClaimType",
          "type": "uint256"
        }
      ],
      "name": "snapshotOf",
      "outputs": [
        {
          "components": [
            {
              "internalType": "bytes32",
              "name": "claimRef",
              "type": "bytes32"
            },
            {
              "internalType": "bytes32",
              "name": "issuerRef",
              "type": "bytes32"
            },
            {
              "internalType": "bytes32",
              "name": "subjectRef",
              "type": "bytes32"
            },
            {
              "internalType": "bytes32",
              "name": "contextRef",
              "type": "bytes32"
            },
            {
              "internalType": "uint64",
              "name": "validFrom",
              "type": "uint64"
            },
            {
              "internalType": "uint64",
              "name": "validUntil",
              "type": "uint64"
            },
            {
              "internalType": "uint64",
              "name": "registryVersion",
              "type": "uint64"
            }
          ],
          "internalType": "struct SMARTIdentityRegistry.IdentitySnapshot",
          "name": "",
          "type": "tuple"
        }
      ],
      "stateMutability": "view",
      "type": "function"
    },
    {
      "inputs": [
        {
          "internalType": "bytes4",
          "name": "interfaceId",
          "type": "bytes4"
        }
      ],
      "name": "supportsInterface",
      "outputs": [
        {
          "internalType": "bool",
          "name": "",
          "type": "bool"
        }
      ],
      "stateMutability": "view",
      "type": "function"
    },
    {
      "inputs": [
        {
          "internalType": "address",
          "name": "issuer",
          "type": "address"
        },
        {
          "internalType": "string",
          "name": "name",
          "type": "string"
        },
        {
          "internalType": "string",
          "name": "uri",
          "type": "string"
        }
      ],
      "name": "updateIssuer",
      "outputs": [],
      "stateMutability": "nonpayable",
      "type": "function"
    },
    {
      "inputs": [
        {
          "internalType": "address",
          "name": "identity",
          "type": "address"
        },
        {
          "internalType": "bytes32",
          "name": "claimId",
          "type": "bytes32"
        }
      ],
      "name": "verifyClaimSignature",
      "outputs": [
        {
          "internalType": "bool",
          "name": "",
          "type": "bool"
        }
      ],
      "stateMutability": "view",
      "type": "function"
    }
  ],
  "bytecode": "0x6080604052346101b2573360009081526000805160206136fc833981519152602052604090205460ff1615610172575b3360009081527f83cab6d7cca1d18cc7de94a8ca8455ea26ea82b1fedd1b586dedde3a5e0e2b00602052604090205460ff16156100fe575b3360009081526000805160206136dc833981519152602052604090205460ff161561009c575b60405161350490816101b88239f35b3360008181526000805160206136dc83398151915260205260408120805460ff1916600117905581907f738c5e3640b4c77978b95a8ce8efad4c7e3f0efb91840e850b39c1a948db0915906000805160206136bc8339815191529080a461008d565b3360008181527f83cab6d7cca1d18cc7de94a8ca8455ea26ea82b1fedd1b586dedde3a5e0e2b0060205260408120805460ff1916600117905581907fbb28eb1a0cfabcecf96003fab466159bc2e051e49d79baf049890044e9072440906000805160206136bc8339815191529080a4610067565b3360008181526000805160206136fc83398151915260205260408120805460ff1916600117905581906000805160206136bc8339815191528180a461002f565b600080fdfe608080604052600436101561001357600080fd5b60003560e01c90816301ffc9a7146121e9575080630900a97e1461205e5780630afb09e814611fb15780630f9be51c14611f8a5780631b76637e14611e695780631dc92b7114611e1457806320694db014611b31578063248a9ca314611afc5780632821b37e14611aa35780632c52e7ab14611a7c5780632f2ff15d146119c0578063351f66831461199957806336568abe1461190757806336c979e2146118eb57806338a7543e1461185d5780634361443f14611758578063451c3671146114aa57806347bc7093146111ed5780634eee424a1461112357806353be56be146110e15780635ffc4166146110ba57806363527b491461109c5780636face8ec146110805780637a00913514610f8257806382ebb65e14610f47578063877b9a6714610f0857806391d1485414610ebb57806396d0fa3314610948578063a217fddf1461092c578063bbddfb7f146108fb578063bf584c4b146108c0578063c619e0ce146108a4578063d547741f1461085d578063d9825793146107e6578063dce73f11146107ca578063e8f5bb90146107ae578063ebdaf16914610735578063eefc2e8214610350578063f94a0ad1146102bf5763fef03da3146101d757600080fd5b346102ba5760203660031901126102ba576001600160a01b036101f861223c565b166000526002602052604060002060405161021281612325565b60ff825416151581526102b66040519161023a8361023381600188016122a2565b0384612377565b602081019283526040519361025d8561025681600285016122a2565b0386612377565b604082019485526003810154906060830191825260ff6005600483015492608086019384520154169261028f8461248d565b8360a08201525115159451955191519051916102aa8461248d565b604051968796876124ad565b0390f35b600080fd5b346102ba5760403660031901126102ba576001600160a01b036102e061223c565b1660005260066020526040600020602435600052602052604060002060405190816020825491828152019160005260206000209060005b81811061033a576102b68561032e81870382612377565b60405191829182612524565b8254845260209093019260019283019201610317565b346102ba5760803660031901126102ba5761036961223c565b6024356001600160401b0381116102ba576103889036906004016124f7565b906044356001600160401b0381116102ba576103a89036906004016124f7565b6064939193359060058210156102ba576103c0612fb8565b6001600160a01b038616946103d6861515612621565b8560005260026020526103f160ff604060002054161561267c565b83156106e4576104256040519161040783612325565b60018352610416368789612ba3565b93602084019485523691612ba3565b604082019081526060820142815260808301916000835260a084019461044a8761248d565b868652896000526002602052610474604060002095511515869060ff801983541691151516179055565b51805160018601916001600160401b03821161065c5761049e826104988554612268565b85612706565b602090601f831160011461067d576104cf929160009183610672575b50508160011b916000199060031b1c19161790565b90555b51805160028501916001600160401b03821161065c576104f6826104988554612268565b602090601f83116001146105da5792610543836105789997946000805160206134af8339815191529e9f999694600598956000926105cf5750508160011b916000199060031b1c19161790565b90555b51600383015551600482015501905161055e8161248d565b6105678161248d565b60ff8019835416911617905561274d565b6001546001600160401b0361058e818316612604565b16906001600160401b031916176001556105b5604051938493606085526060850191612a36565b906105bf8161248d565b60208301524260408301520390a2005b0151905038806104ba565b90601f1983169184600052816000209260005b818110610644575093600596936000805160206134af8339815191529e9f999693600193836105789d9b981061062b575b505050811b019055610546565b015160001960f88460031b161c191690558f808061061e565b929360206001819287860151815501950193016105ed565b634e487b7160e01b600052604160045260246000fd5b015190508e806104ba565b90601f1983169184600052816000209260005b8181106106cc57509084600195949392106106b3575b505050811b0190556104d2565b015160001960f88460031b161c191690558d80806106a6565b92936020600181928786015181550195019301610690565b60405162461bcd60e51b8152602060048201526024808201527f534d4152544964656e7469747952656769737472793a206e616d6520726571756044820152631a5c995960e21b6064820152608490fd5b346102ba5760403660031901126102ba5760e061075c61075361223c565b60243590612d94565b6001600160401b0360c060405192805184526020810151602085015260408101516040850152606081015160608501528260808201511660808501528260a08201511660a085015201511660c0820152f35b346102ba5760003660031901126102ba57602060405160018152f35b346102ba5760003660031901126102ba57602060405160048152f35b346102ba5760203660031901126102ba576001600160a01b0361080761223c565b166000526005602052604060002060405190816020825491828152019160005260206000209060005b818110610847576102b68561032e81870382612377565b8254845260209093019260019283019201610830565b346102ba5760403660031901126102ba576108a260043561087c612252565b9061089d61089882600052600060205260016040600020015490565b61302b565b613069565b005b346102ba5760003660031901126102ba57602060405160038152f35b346102ba5760003660031901126102ba5760206040517fbb28eb1a0cfabcecf96003fab466159bc2e051e49d79baf049890044e90724408152f35b346102ba5760403660031901126102ba57602061092261091961223c565b60243590612c0f565b6040519015158152f35b346102ba5760003660031901126102ba57602060405160008152f35b346102ba5760c03660031901126102ba5761096161223c565b6024356044356001600160401b0381116102ba576109839036906004016124f7565b6064929192356001600160401b0381116102ba576109a59036906004016124f7565b6084959195359260a4356001600160401b0381116102ba576109cb9036906004016124f7565b92909333600052600260205260ff6040600020541615610e65576001600160a01b038116988915610e1057610a6e610a7d9260405160208101916001600160601b03199060601b1682528a60348201523360601b605482015242606882015260688152610a39608882612377565b51902099610a5f60405198610a4d8a612340565b8b8a5260208a0198338a523691612ba3565b95604089019687523691612ba3565b92606087019384523691612ba3565b6080850190815260a085019142835260c086019387855260e0870195600087528b600052600460205260406000208b600052602052604060002097518855600188019060018060a01b039051166001600160601b0360a01b8254161790556002870190518051906001600160401b03821161065c57610b00826104988554612268565b602090601f8311600114610da957610b309291600091836106725750508160011b916000199060031b1c19161790565b90555b51805160038701916001600160401b03821161065c57610b57826104988554612268565b602090601f8311600114610d4257610b87929160009183610d375750508160011b916000199060031b1c19161790565b90555b51805160048601916001600160401b03821161065c57610bae826104988554612268565b602090601f8311600114610cc65782610c0e989795936007979593610be9936000926106725750508160011b916000199060031b1c19161790565b90555b51600585015551600684015551151591019060ff801983541691151516179055565b836000526005602052610c25836040600020612bda565b836000526006602052604060002082600052602052610c48836040600020612bda565b3360005260026020526004604060002001938454946000198614610cb057600195909501909455604080513381526020808201939093529194849290917fd4dc66f1366b844e3382a33f2a6151ec1d28b2417183d5ba154bebd6c2714dff91a4604051908152f35b634e487b7160e01b600052601160045260246000fd5b90601f1983169184600052816000209260005b818110610d1f5750926001928592610c0e9b9a989660079a989610610d06575b505050811b019055610bec565b015160001960f88460031b161c191690558d8080610cf9565b92936020600181928786015181550195019301610cd9565b015190508d806104ba565b90601f1983169184600052816000209260005b818110610d915750908460019594939210610d78575b505050811b019055610b8a565b015160001960f88460031b161c191690558c8080610d6b565b92936020600181928786015181550195019301610d55565b90601f1983169184600052816000209260005b818110610df85750908460019594939210610ddf575b505050811b019055610b33565b015160001960f88460031b161c191690558d8080610dd2565b92936020600181928786015181550195019301610dbc565b60405162461bcd60e51b815260206004820152602760248201527f534d4152544964656e7469747952656769737472793a20696e76616c6964206960448201526664656e7469747960c81b6064820152608490fd5b60405162461bcd60e51b815260206004820152602860248201527f534d4152544964656e7469747952656769737472793a206e6f74206163746976604482015267329034b9b9bab2b960c11b6064820152608490fd5b346102ba5760403660031901126102ba57610ed4612252565b600435600052600060205260406000209060018060a01b0316600052602052602060ff604060002054166040519015158152f35b346102ba5760203660031901126102ba576001600160a01b03610f2961223c565b166000526002602052602060ff604060002054166040519015158152f35b346102ba5760003660031901126102ba5760206040517f738c5e3640b4c77978b95a8ce8efad4c7e3f0efb91840e850b39c1a948db09158152f35b346102ba5760203660031901126102ba57610f9b61223c565b610fa3612fb8565b6001600160a01b031660008181526002602052604090205460ff161561103157806000526002602052604060002060ff1981541690556001546001600160401b03610fef818316612604565b16906001600160401b031916176001557f0fcc44880b3b5c92507399d457c022ade6a64ec2d1e56eb33438108d51cc202d6040805160008152426020820152a2005b60405162461bcd60e51b815260206004820152602160248201527f534d4152544964656e7469747952656769737472793a206e6f742061637469766044820152606560f81b6064820152608490fd5b346102ba5760003660031901126102ba57602060405160028152f35b346102ba5760003660031901126102ba576020600354604051908152f35b346102ba5760403660031901126102ba5760206109226110d861223c565b60243590612ab3565b346102ba5760203660031901126102ba576004356003548110156102ba5761110a602091612444565b905460405160039290921b1c6001600160a01b03168152f35b346102ba5760203660031901126102ba5760043533600052600460205260406000208160005260205261116760018060a01b0360016040600020015416151561255e565b336000526004602052604060002081600052602052600060076040822082815582600182015561119960028201612a57565b6111a560038201612a57565b6111b160048201612a57565b82600582015582600682015501556040514281527ffb4696b7d2db456ae3ce1a51c372aad914851fba37f3c6ed0f1e4612d0e10a7960203392a3005b346102ba5760203660031901126102ba5761120661223c565b3360009081527f83cab6d7cca1d18cc7de94a8ca8455ea26ea82b1fedd1b586dedde3a5e0e2b00602052604090205460ff16156113ca576001600160a01b03166000818152600260205260409020600301546112639015156125b9565b806000526002602052600060056040822082815561128360018201612a57565b61128f60028201612a57565b826003820155826004820155015560005b60035490818110156113c357826112b682612444565b905460039190911b1c6001600160a01b0316146112d75760019150016112a0565b6000198201918211610cb05761130a6112f261132e93612444565b905460039190911b1c6001600160a01b031691612444565b81546001600160a01b0393841660039290921b91821b9390911b1916919091179055565b60035480156113ad576000190161134481612444565b81546001600160a01b03600392831b1b1916909155555b6001546001600160401b03611371818316612604565b16906001600160401b031916176001557f7d646dfe52f77b8ef31868b9cddadbd17ee190aba7615b1c4c456bf6e5f5a2da6020604051428152a2005b634e487b7160e01b600052603160045260246000fd5b505061135b565b6114a66113d633613254565b61148660116114047fbb28eb1a0cfabcecf96003fab466159bc2e051e49d79baf049890044e9072440613380565b9260376040519485927f416363657373436f6e74726f6c3a206163636f756e742000000000000000000060208501526114468151809260208688019101612398565b83017001034b99036b4b9b9b4b733903937b6329607d1b83820152611475825180936020604885019101612398565b01010301601f198101835282612377565b60405162461bcd60e51b81526020600482015291829160248301906123bb565b0390fd5b346102ba5760603660031901126102ba576114c361223c565b6024356001600160401b0381116102ba576114e29036906004016124f7565b91906044356001600160401b0381116102ba576115039036906004016124f7565b93909261150e612fb8565b60018060a01b03169283600052600260205261153360036040600020015415156125b9565b83600052600260205260016040600020016001600160401b03831161065c57611566836115608354612268565b83612706565b600083601f81116001146116f55780611595926000916116ea575b508160011b916000199060031b1c19161790565b90555b8360005260026020526002604060002001946001600160401b03811161065c576115cc816115c68854612268565b88612706565b600095601f8211600114611661579061164b929161162382807fbcc21d9c4b4590f46b181515ac40d4fad6cbd1b24440b56d137f8800a818f2f7999a60009161165657508160011b916000199060031b1c19161790565b90555b61163d604051958695606087526060870191612a36565b918483036020860152612a36565b4260408301520390a2005b90508501358b611581565b80875260208720601f198316885b8181106116d25750907fbcc21d9c4b4590f46b181515ac40d4fad6cbd1b24440b56d137f8800a818f2f797988461164b96959493106116b8575b5050600182811b019055611626565b840135600019600385901b60f8161c1916905588806116a9565b858a013583556020998a01996001909301920161166f565b905086013589611581565b50818152602081209084601f198116825b81811061173d575010611723575b5050600183811b019055611598565b850135600019600386901b60f8161c191690558680611714565b88840135855560019094019360209384019388935001611706565b346102ba5760403660031901126102ba576001600160a01b0361177961223c565b166000526004602052604060002060243560005260205260406000206040516117a181612340565b8154815260018201546001600160a01b0316602082019081526040519290916102b6916117d58561025681600285016122a2565b604082019485526040516117f7816117f081600386016122a2565b0382612377565b60608301908152604051611812816117f081600487016122a2565b8060808501526005830154918260a086015260ff60076006860154958660c08901520154161515948560e0820152519660018060a01b039051169751905190604051988998896123e0565b346102ba5760203660031901126102ba576001600160a01b0361187e61223c565b166000526002602052604060002060ff8154166102b6604051926118b0846118a981600185016122a2565b0385612377565b604051906118cc826118c581600285016122a2565b0383612377565b600381015460ff600560048401549301541692604051968796876124ad565b346102ba5760003660031901126102ba57602060405160058152f35b346102ba5760403660031901126102ba57611920612252565b336001600160a01b0382160361193c576108a290600435613069565b60405162461bcd60e51b815260206004820152602f60248201527f416363657373436f6e74726f6c3a2063616e206f6e6c792072656e6f756e636560448201526e103937b632b9903337b91039b2b63360891b6064820152608490fd5b346102ba5760403660031901126102ba5760206109226119b761223c565b6024359061291f565b346102ba5760403660031901126102ba576004356119dc612252565b906119f861089882600052600060205260016040600020015490565b6000818152602081815260408083206001600160a01b038616845290915290205460ff1615611a2357005b6000818152602081815260408083206001600160a01b0395909516808452949091528120805460ff19166001179055339291907f2f8788117e7eff1d82e926ec794901d17c78024a50270940304540a733656f0d9080a4005b346102ba5760403660031901126102ba576020610922611a9a61223c565b60243590612772565b346102ba5760403660031901126102ba57611abc61223c565b6001600160a01b03166000908152600560205260409020805460243591908210156102ba57602091611aed91612475565b90549060031b1c604051908152f35b346102ba5760203660031901126102ba576020611b29600435600052600060205260016040600020015490565b604051908152f35b346102ba5760203660031901126102ba57611b4a61223c565b611b52612fb8565b6001600160a01b038116611b67811515612621565b806000526002602052611b8260ff604060002054161561267c565b60405191611b8f83612325565b60018352602090604051611ba38382612377565b6000815282850190815260405194611bbb8487612377565b60008652604081019586526060810142815260808201906000825260a0830193600085528760005260028752611c05604060002094511515859060ff801983541691151516179055565b51805160018501916001600160401b03821161065c57611c29826104988554612268565b8890601f8311600114611dad57611c58929160009183611da25750508160011b916000199060031b1c19161790565b90555b6002830197519788516001600160401b03811161065c57611c8681611c808454612268565b84612706565b87601f8211600114611d20579260809897959261054383611cd39997946005976000805160206134af8339815191529e9f600092611d155750508160011b916000199060031b1c19161790565b6001546001600160401b03611ce9818316612604565b16906001600160401b0319161760015560006040519160608352816060840152820152426040820152a2005b015190508f806104ba565b601f1982169a83600052896000209b60005b818110611d8b5750836000805160206134af8339815191529c9d6005979460809d9c9a9794611cd39c9a9760019510611d7257505050811b019055610546565b015160001960f88460031b161c191690558e808061061e565b838301518e556001909d019c928b01928b01611d32565b015190508c806104ba565b90601f19831691846000528a6000209260005b8c828210611dfe575050908460019594939210611de5575b505050811b019055611c5b565b015160001960f88460031b161c191690558b8080611dd8565b6001859682939686015181550195019301611dc0565b346102ba5760603660031901126102ba57611e2d61223c565b6044359060018060a01b031660005260066020526040600020602435600052602052604060002080548210156102ba57602091611aed91612475565b346102ba5760203660031901126102ba57611e8261223c565b611e8a612fb8565b6001600160a01b0316600081815260026020526040902060030154611eb09015156125b9565b80600052600260205260ff60406000205416611f37578060005260026020526040600020600160ff198254161790556001546001600160401b03611ef5818316612604565b16906001600160401b031916176001557f0fcc44880b3b5c92507399d457c022ade6a64ec2d1e56eb33438108d51cc202d6040805160018152426020820152a2005b60405162461bcd60e51b815260206004820152602560248201527f534d4152544964656e7469747952656769737472793a20616c72656164792061604482015264637469766560d81b6064820152608490fd5b346102ba5760003660031901126102ba5760206001600160401b0360015416604051908152f35b346102ba5760403660031901126102ba576001600160a01b03611fd261223c565b1660005260046020526040600020602435600052602052604060002080546102b660018060a01b036001840154169260405190612016826118c581600285016122a2565b60405161202a816117f081600386016122a2565b60405161203e816117f081600487016122a2565b60058301549160ff600760068601549501541694604051988998896123e0565b346102ba5760403660031901126102ba5761207761223c565b6024359060018060a01b0316806000526004602052604060002082600052602052604060002060018060a01b036001820154166120b581151561255e565b331480156121b1575b1561216057600701805460ff811661210c5760ff19166001179055604080513381524260208201527fe475ce954332a409a8a45f5f337d9f1998d466fb6bb9bc0f65f43187c3223a849190a3005b60405162461bcd60e51b815260206004820152602660248201527f534d4152544964656e7469747952656769737472793a20616c72656164792072604482015265195d9bdad95960d21b6064820152608490fd5b60405162461bcd60e51b815260206004820152602360248201527f534d4152544964656e7469747952656769737472793a20756e617574686f72696044820152621e995960ea1b6064820152608490fd5b503360009081527f83cab6d7cca1d18cc7de94a8ca8455ea26ea82b1fedd1b586dedde3a5e0e2b00602052604090205460ff166120be565b346102ba5760203660031901126102ba576004359063ffffffff60e01b82168092036102ba57602091637965db0b60e01b811490811561222b575b5015158152f35b6301ffc9a760e01b14905083612224565b600435906001600160a01b03821682036102ba57565b602435906001600160a01b03821682036102ba57565b90600182811c92168015612298575b602083101461228257565b634e487b7160e01b600052602260045260246000fd5b91607f1691612277565b600092918154916122b283612268565b808352926001811690811561230857506001146122ce57505050565b60009081526020812093945091925b8383106122ee575060209250010190565b6001816020929493945483858701015201910191906122dd565b915050602093945060ff929192191683830152151560051b010190565b60c081019081106001600160401b0382111761065c57604052565b61010081019081106001600160401b0382111761065c57604052565b60e081019081106001600160401b0382111761065c57604052565b90601f801991011681019081106001600160401b0382111761065c57604052565b60005b8381106123ab5750506000910152565b818101518382015260200161239b565b906020916123d481518092818552858086019101612398565b601f01601f1916010190565b96936124166124329460e0989b9a9794612424948b5260018060a01b031660208b015261010060408b01526101008a01906123bb565b9088820360608a01526123bb565b9086820360808801526123bb565b9560a085015260c08401521515910152565b60035481101561245f57600360005260206000200190600090565b634e487b7160e01b600052603260045260246000fd5b805482101561245f5760005260206000200190600090565b6005111561249757565b634e487b7160e01b600052602160045260246000fd5b926124d160a095989796936124df931515865260c0602087015260c08601906123bb565b9084820360408601526123bb565b95606083015260808201526124f38361248d565b0152565b9181601f840112156102ba578235916001600160401b0383116102ba57602083818601950101116102ba57565b602060408183019282815284518094520192019060005b8181106125485750505090565b825184526020938401939092019160010161253b565b1561256557565b60405162461bcd60e51b815260206004820152602660248201527f534d4152544964656e7469747952656769737472793a20636c61696d206e6f7460448201526508199bdd5b9960d21b6064820152608490fd5b156125c057565b606460405162461bcd60e51b815260206004820152602060248201527f534d4152544964656e7469747952656769737472793a206e6f7420666f756e646044820152fd5b6001600160401b03166001600160401b038114610cb05760010190565b1561262857565b60405162461bcd60e51b815260206004820152602660248201527f534d4152544964656e7469747952656769737472793a20696e76616c6964206160448201526564647265737360d01b6064820152608490fd5b1561268357565b60405162461bcd60e51b8152602060048201526024808201527f534d4152544964656e7469747952656769737472793a206973737565722065786044820152636973747360e01b6064820152608490fd5b6001600160401b03811161065c57601f01601f191660200190565b8181106126fa575050565b600081556001016126ef565b9190601f811161271557505050565b612741926000526020600020906020601f840160051c83019310612743575b601f0160051c01906126ef565b565b9091508190612734565b60035490600160401b82101561065c5761130a82600161274194016003556003612475565b60018060a01b03169081600052600660205260406000209060005260205260406000206040518082602082945493848152019060005260206000209260005b8181106129065750506127c692500382612377565b60005b81518110156128fe578260005260046020526040600020825182101561245f5760208260051b8401015160005260205260406000206040519061280b82612340565b8054825260018101546001600160a01b03166020830190815260405190919061283b816117f081600286016122a2565b6040840152604051612854816117f081600386016122a2565b606084015260405161286d816117f081600486016122a2565b6080840152600581015460a084015260ff60076006830154928360c0870152015416159260e08415910152826128de575b50816128ba575b506128b2576001016127c9565b505050600190565b516001600160a01b031660009081526002602052604090205460ff169050386128a5565b80919250159081156128f3575b50903861289e565b9050421115386128eb565b505050600090565b84548352600194850194869450602090930192016127b1565b60018060a01b0316600052600460205260406000209060005260205260e0604060002060405161294e81612340565b8154815260018201546001600160a01b03166020820190815260405190919061297e816117f081600288016122a2565b6040820152604051612997816117f081600388016122a2565b60608201526040516129b0816117f081600488016122a2565b6080820152600583015460a0820152600683015460c0820181905260079093015460ff1615159301839052516001600160a01b03169182156128fe57612a2f578015159081612a25575b50612a1f57600052600260205260ff6040600020541615612a1a57600190565b600090565b50600090565b90504211386129fa565b5050600090565b908060209392818452848401376000828201840152601f01601f1916010190565b612a618154612268565b9081612a6b575050565b81601f60009311600114612a7d575055565b81835260208320612a9991601f0160051c8101906001016126ef565b8082528160208120915555565b8015610cb0576000190190565b60018060a01b0316908160005260066020526040600020906000526020526040600020908154805b612ae757505050600090565b6000198101818111610cb057612afd9084612475565b90549060031b1c826000526004602052604060002090600052602052604060002060018060a01b036001820154168015159182612b93575b82612b6f575b5081612b56575b506128b257612b5090612aa6565b80612adb565b9050600052600260205260ff6040600020541638612b42565b600691925001548015908115612b88575b509038612b3b565b905042111538612b80565b600781015460ff16159250612b35565b929192612baf826126d4565b91612bbd6040519384612377565b8294818452818301116102ba578281602093846000960137010152565b8054600160401b81101561065c57612bf791600182018155612475565b819291549060031b91821b91600019901b1916179055565b9060018060a01b038216600052600460205260406000209060005260205260406000209060405191612c4083612340565b8054835260018101546001600160a01b0316602084019081526040519092612c6f826118c581600287016122a2565b6040850191825260405192612c8b846118a981600385016122a2565b60608601938452604051612ca6816117f081600486016122a2565b6080870152600581015460a0870152600681015460c0870181905260079091015460ff16151560e087015284516001600160a01b031615612d8957612d3860206054612d6f96612d779951905194604051958692858401986001600160601b03199060601b1689526034840152612d2581518092878787019101612398565b8201908382015203018084520182612377565b5190207f19457468657265756d205369676e6564204d6573736167653a0a333200000000600052601c52603c6000209051906130eb565b929092613123565b516001600160a01b0391821691161490565b505050505050600090565b604051612da08161235c565b6000815260006020820152600060408201526000606082015260006080820152600060a0820152600060c08201525060018060a01b03168060005260066020526040600020826000526020526040600020918254805b612e41575060015460405193506001600160401b031691612e168461235c565b60008452600060208501526040840152606083015260006080830152600060a083015260c082015290565b6000198101818111610cb057612e579085612475565b90549060031b1c836000526004602052604060002090600052602052604060002060018060a01b036001820154169081151580612fa9575b80612f88575b80612f70575b612eb0575050612eaa90612aa6565b80612df6565b91509293506001600160401b038092825490600584015491612f1a612f3460068701549660405192839160208301958d875260408401528b606084015260e060808401526002612f076101008501600384016122a2565b848103601f190160a086015291016122a2565b8660c08301528860e083015203601f198101835282612377565b5190209683600154169660405198612f4b8a61235c565b89526020890152604088015260608701521660808501521660a083015260c082015290565b5081600052600260205260ff60406000205416612e9b565b5060068101548015908115612f9e575b50612e95565b905042111538612f98565b5060ff60078201541615612e8f565b3360009081527f0b9a936a42027de70df6c99b9c85062ce524a326b9de72034b3d7fea8d18f89a602052604090205460ff1615612ff157565b6114a6612ffd33613254565b61148660116114047f738c5e3640b4c77978b95a8ce8efad4c7e3f0efb91840e850b39c1a948db0915613380565b60008181526020818152604080832033845290915290205460ff161561304e5750565b6114a690611486601161140461306333613254565b93613380565b6000818152602081815260408083206001600160a01b038616845290915290205460ff16613095575050565b6000818152602081815260408083206001600160a01b0395909516808452949091528120805460ff19169055339291907ff6391f5c32d9c69d2a47ea670b442974b53935d1edc7fd64eb21e047a839171b9080a4565b90604181511460001461311957613115916020820151906060604084015193015160001a90613422565b9091565b5050600090600290565b61312c8161248d565b806131345750565b61313d8161248d565b6001810361318a5760405162461bcd60e51b815260206004820152601860248201527f45434453413a20696e76616c6964207369676e617475726500000000000000006044820152606490fd5b6131938161248d565b600281036131e05760405162461bcd60e51b815260206004820152601f60248201527f45434453413a20696e76616c6964207369676e6174757265206c656e677468006044820152606490fd5b6003906131ec8161248d565b146131f357565b60405162461bcd60e51b815260206004820152602260248201527f45434453413a20696e76616c6964207369676e6174757265202773272076616c604482015261756560f01b6064820152608490fd5b90815181101561245f570160200190565b600090613261602a6126d4565b9161326f6040519384612377565b602a835261327d602a6126d4565b6020840190601f190136823783511561336c5760309053825160011015613358576078602184015350602960005b600182116133005750506132bc5790565b606460405162461bcd60e51b815260206004820152602060248201527f537472696e67733a20686578206c656e67746820696e73756666696369656e746044820152fd5b9091600f811660108110156133445761333e91906f181899199a1a9b1b9c1cb0b131b232b360811b901a6133348587613243565b5360041c92612aa6565b906132ab565b634e487b7160e01b83526032600452602483fd5b634e487b7160e01b81526032600452602490fd5b634e487b7160e01b82526032600452602482fd5b60009061338d60426126d4565b9161339b6040519384612377565b604283526133a960426126d4565b6020840190601f190136823783511561336c5760309053825160011015613358576078602184015350604160005b600182116133e85750506132bc5790565b9091600f811660108110156133445761341c91906f181899199a1a9b1b9c1cb0b131b232b360811b901a6133348587613243565b906133d7565b7f7fffffffffffffffffffffffffffffff5d576e7357a4501ddfe92f46681b20a084116134a25760209360009360ff60809460405194855216868401526040830152606082015282805260015afa15613496576000516001600160a01b0381161561348d5790600090565b50600090600190565b6040513d6000823e3d90fd5b5050505060009060039056fed3d9ecea15a473d681cd126be9deaa3fe876ffc2a4c62d3508f062e8b61fffeca26469706673582212208a09decbaa18d942c201df4bfb9825719f3807df0ce18d1541e8f452bc1c355964736f6c634300081e00332f8788117e7eff1d82e926ec794901d17c78024a50270940304540a733656f0d0b9a936a42027de70df6c99b9c85062ce524a326b9de72034b3d7fea8d18f89aad3228b676f7d3cd4284a5443f17f1962b36e491b30a40b2405849e597ba5fb5",
  "linkReferences": {},
  "deployedLinkReferences": {}
}