{
  "_format": "hh-sol-artifact-1",
  "contractName": "SMARTLifecycle",
  "sourceName": "src/core/SMARTLifecycle.sol",
  "abi": [
    {
      "inputs": [],
      "stateMutability": "nonpayable",
      "type": "constructor"
    },
    {
      "anonymous": false,
      "inputs": [
        {
          "indexed": true,
          "internalType": "uint256",
          "name": "actionId",
          "type": "uint256"
        },
        {
          "indexed": true,
          "internalType": "uint256",
          "name": "tokenId",
          "type": "uint256"
        },
        {
          "indexed": true,
          "internalType": "address",
          "name": "challenger",
          "type": "address"
        },
        {
          "indexed": false,
          "internalType": "enum SMARTLifecycle.RepudiationReason",
          "name": "reason",
          "type": "uint8"
        },
        {
          "indexed": false,
          "internalType": "uint256",
          "name": "timestamp",
          "type": "uint256"
        }
      ],
      "name": "ActionChallenged",
      "type": "event"
    },
    {
      "anonymous": false,
      "inputs": [
        {
          "indexed": true,
          "internalType": "uint256",
          "name": "actionId",
          "type": "uint256"
        },
        {
          "indexed": true,
          "internalType": "uint256",
          "name": "tokenId",
          "type": "uint256"
        },
        {
          "indexed": false,
          "internalType": "enum SMARTLifecycle.IdentityStatus",
          "name": "finalStatus",
          "type": "uint8"
        },
        {
          "indexed": true,
          "internalType": "address",
          "name": "arbiter",
          "type": "address"
        },
        {
          "indexed": false,
          "internalType": "uint256",
          "name": "timestamp",
          "type": "uint256"
        }
      ],
      "name": "ActionResolved",
      "type": "event"
    },
    {
      "anonymous": false,
      "inputs": [
        {
          "indexed": true,
          "internalType": "uint256",
          "name": "actionId",
          "type": "uint256"
        },
        {
          "indexed": true,
          "internalType": "uint256",
          "name": "tokenId",
          "type": "uint256"
        },
        {
          "indexed": false,
          "internalType": "enum SMARTLifecycle.IdentityStatus",
          "name": "finalStatus",
          "type": "uint8"
        },
        {
          "indexed": false,
          "internalType": "address",
          "name": "panelMember1",
          "type": "address"
        },
        {
          "indexed": false,
          "internalType": "address",
          "name": "panelMember2",
          "type": "address"
        },
        {
          "indexed": false,
          "internalType": "uint256",
          "name": "timestamp",
          "type": "uint256"
        }
      ],
      "name": "ActionResolvedByQuorum",
      "type": "event"
    },
    {
      "anonymous": false,
      "inputs": [
        {
          "indexed": true,
          "internalType": "uint256",
          "name": "tokenId",
          "type": "uint256"
        },
        {
          "indexed": true,
          "internalType": "address",
          "name": "admin",
          "type": "address"
        },
        {
          "indexed": false,
          "internalType": "string",
          "name": "action",
          "type": "string"
        },
        {
          "indexed": false,
          "internalType": "string",
          "name": "justification",
          "type": "string"
        },
        {
          "indexed": false,
          "internalType": "uint256",
          "name": "timestamp",
          "type": "uint256"
        }
      ],
      "name": "AdminOverride",
      "type": "event"
    },
    {
      "anonymous": false,
      "inputs": [
        {
          "indexed": true,
          "internalType": "address",
          "name": "owner",
          "type": "address"
        },
        {
          "indexed": true,
          "internalType": "address",
          "name": "approved",
          "type": "address"
        },
        {
          "indexed": true,
          "internalType": "uint256",
          "name": "tokenId",
          "type": "uint256"
        }
      ],
      "name": "Approval",
      "type": "event"
    },
    {
      "anonymous": false,
      "inputs": [
        {
          "indexed": true,
          "internalType": "address",
          "name": "owner",
          "type": "address"
        },
        {
          "indexed": true,
          "internalType": "address",
          "name": "operator",
          "type": "address"
        },
        {
          "indexed": false,
          "internalType": "bool",
          "name": "approved",
          "type": "bool"
        }
      ],
      "name": "ApprovalForAll",
      "type": "event"
    },
    {
      "anonymous": false,
      "inputs": [
        {
          "indexed": true,
          "internalType": "uint256",
          "name": "actionId",
          "type": "uint256"
        },
        {
          "indexed": true,
          "internalType": "uint256",
          "name": "tokenId",
          "type": "uint256"
        },
        {
          "indexed": true,
          "internalType": "address",
          "name": "actor",
          "type": "address"
        },
        {
          "indexed": false,
          "internalType": "uint8",
          "name": "fromState",
          "type": "uint8"
        },
        {
          "indexed": false,
          "internalType": "uint8",
          "name": "toState",
          "type": "uint8"
        },
        {
          "indexed": false,
          "internalType": "uint8",
          "name": "transitionType",
          "type": "uint8"
        },
        {
          "indexed": false,
          "internalType": "bytes32",
          "name": "contentHash",
          "type": "bytes32"
        },
        {
          "indexed": false,
          "internalType": "bytes32",
          "name": "claimRef",
          "type": "bytes32"
        },
        {
          "indexed": false,
          "internalType": "bytes32",
          "name": "issuerRef",
          "type": "bytes32"
        },
        {
          "indexed": false,
          "internalType": "bytes32",
          "name": "contextRef",
          "type": "bytes32"
        },
        {
          "indexed": false,
          "internalType": "enum SMARTLifecycle.IdentityStatus",
          "name": "identityStatus",
          "type": "uint8"
        },
        {
          "indexed": false,
          "internalType": "uint256",
          "name": "timestamp",
          "type": "uint256"
        }
      ],
      "name": "BoundAction",
      "type": "event"
    },
    {
      "anonymous": false,
      "inputs": [
        {
          "indexed": false,
          "internalType": "uint64",
          "name": "previousSeconds",
          "type": "uint64"
        },
        {
          "indexed": false,
          "internalType": "uint64",
          "name": "newSeconds",
          "type": "uint64"
        },
        {
          "indexed": false,
          "internalType": "uint256",
          "name": "timestamp",
          "type": "uint256"
        }
      ],
      "name": "ChallengeWindowChanged",
      "type": "event"
    },
    {
      "anonymous": false,
      "inputs": [
        {
          "indexed": true,
          "internalType": "address",
          "name": "previousRegistry",
          "type": "address"
        },
        {
          "indexed": true,
          "internalType": "address",
          "name": "newRegistry",
          "type": "address"
        },
        {
          "indexed": false,
          "internalType": "uint256",
          "name": "timestamp",
          "type": "uint256"
        }
      ],
      "name": "IdentityRegistryUpdated",
      "type": "event"
    },
    {
      "anonymous": false,
      "inputs": [
        {
          "indexed": true,
          "internalType": "uint256",
          "name": "tokenId",
          "type": "uint256"
        },
        {
          "indexed": true,
          "internalType": "address",
          "name": "creator",
          "type": "address"
        },
        {
          "indexed": false,
          "internalType": "string",
          "name": "metadataURI",
          "type": "string"
        },
        {
          "indexed": false,
          "internalType": "bytes32",
          "name": "contentHash",
          "type": "bytes32"
        },
        {
          "indexed": false,
          "internalType": "uint256",
          "name": "timestamp",
          "type": "uint256"
        }
      ],
      "name": "ModelCardCreated",
      "type": "event"
    },
    {
      "anonymous": false,
      "inputs": [
        {
          "indexed": true,
          "internalType": "uint256",
          "name": "tokenId",
          "type": "uint256"
        },
        {
          "indexed": true,
          "internalType": "address",
          "name": "deprecator",
          "type": "address"
        },
        {
          "indexed": false,
          "internalType": "string",
          "name": "reason",
          "type": "string"
        },
        {
          "indexed": false,
          "internalType": "uint256",
          "name": "timestamp",
          "type": "uint256"
        }
      ],
      "name": "ModelCardDeprecated",
      "type": "event"
    },
    {
      "anonymous": false,
      "inputs": [
        {
          "indexed": true,
          "internalType": "uint256",
          "name": "tokenId",
          "type": "uint256"
        },
        {
          "indexed": true,
          "internalType": "address",
          "name": "publisher",
          "type": "address"
        },
        {
          "indexed": false,
          "internalType": "uint256",
          "name": "timestamp",
          "type": "uint256"
        }
      ],
      "name": "ModelCardPublished",
      "type": "event"
    },
    {
      "anonymous": false,
      "inputs": [
        {
          "indexed": true,
          "internalType": "uint256",
          "name": "tokenId",
          "type": "uint256"
        },
        {
          "indexed": true,
          "internalType": "address",
          "name": "rejector",
          "type": "address"
        },
        {
          "indexed": false,
          "internalType": "string",
          "name": "reason",
          "type": "string"
        },
        {
          "indexed": false,
          "internalType": "uint256",
          "name": "timestamp",
          "type": "uint256"
        }
      ],
      "name": "ModelCardRejected",
      "type": "event"
    },
    {
      "anonymous": false,
      "inputs": [
        {
          "indexed": true,
          "internalType": "uint256",
          "name": "tokenId",
          "type": "uint256"
        },
        {
          "indexed": true,
          "internalType": "address",
          "name": "revisor",
          "type": "address"
        },
        {
          "indexed": false,
          "internalType": "string",
          "name": "newMetadataURI",
          "type": "string"
        },
        {
          "indexed": false,
          "internalType": "bytes32",
          "name": "newContentHash",
          "type": "bytes32"
        },
        {
          "indexed": false,
          "internalType": "string",
          "name": "revisionNotes",
          "type": "string"
        },
        {
          "indexed": false,
          "internalType": "uint256",
          "name": "timestamp",
          "type": "uint256"
        }
      ],
      "name": "ModelCardRevised",
      "type": "event"
    },
    {
      "anonymous": false,
      "inputs": [
        {
          "indexed": true,
          "internalType": "uint256",
          "name": "tokenId",
          "type": "uint256"
        },
        {
          "indexed": true,
          "internalType": "address",
          "name": "initiator",
          "type": "address"
        },
        {
          "indexed": false,
          "internalType": "uint256",
          "name": "timestamp",
          "type": "uint256"
        }
      ],
      "name": "ModelCardSubmitted",
      "type": "event"
    },
    {
      "anonymous": false,
      "inputs": [
        {
          "indexed": true,
          "internalType": "uint256",
          "name": "tokenId",
          "type": "uint256"
        },
        {
          "indexed": true,
          "internalType": "address",
          "name": "validator",
          "type": "address"
        },
        {
          "indexed": false,
          "internalType": "uint256",
          "name": "timestamp",
          "type": "uint256"
        }
      ],
      "name": "ModelCardValidated",
      "type": "event"
    },
    {
      "anonymous": false,
      "inputs": [
        {
          "indexed": true,
          "internalType": "uint256",
          "name": "lifecycleTokenId",
          "type": "uint256"
        },
        {
          "indexed": true,
          "internalType": "uint256",
          "name": "sbtTokenId",
          "type": "uint256"
        },
        {
          "indexed": false,
          "internalType": "bytes32",
          "name": "contentHash",
          "type": "bytes32"
        },
        {
          "indexed": true,
          "internalType": "address",
          "name": "creator",
          "type": "address"
        },
        {
          "indexed": false,
          "internalType": "uint256",
          "name": "timestamp",
          "type": "uint256"
        }
      ],
      "name": "ProvenanceSBTMinted",
      "type": "event"
    },
    {
      "anonymous": false,
      "inputs": [
        {
          "indexed": true,
          "internalType": "uint256",
          "name": "tokenId",
          "type": "uint256"
        },
        {
          "indexed": false,
          "internalType": "uint256",
          "name": "revisionNumber",
          "type": "uint256"
        },
        {
          "indexed": false,
          "internalType": "bytes32",
          "name": "previousContentHash",
          "type": "bytes32"
        },
        {
          "indexed": false,
          "internalType": "bytes32",
          "name": "newContentHash",
          "type": "bytes32"
        },
        {
          "indexed": true,
          "internalType": "address",
          "name": "revisedBy",
          "type": "address"
        },
        {
          "indexed": false,
          "internalType": "uint256",
          "name": "timestamp",
          "type": "uint256"
        }
      ],
      "name": "RevisionHistoryRecorded",
      "type": "event"
    },
    {
      "anonymous": false,
      "inputs": [
        {
          "indexed": true,
          "internalType": "uint256",
          "name": "tokenId",
          "type": "uint256"
        },
        {
          "indexed": true,
          "internalType": "address",
          "name": "requester",
          "type": "address"
        },
        {
          "indexed": false,
          "internalType": "string",
          "name": "feedback",
          "type": "string"
        },
        {
          "indexed": false,
          "internalType": "uint256",
          "name": "timestamp",
          "type": "uint256"
        }
      ],
      "name": "RevisionRequested",
      "type": "event"
    },
    {
      "anonymous": false,
      "inputs": [
        {
          "indexed": true,
          "internalType": "bytes32",
          "name": "role",
          "type": "bytes32"
        },
        {
          "indexed": true,
          "internalType": "bytes32",
          "name": "previousAdminRole",
          "type": "bytes32"
        },
        {
          "indexed": true,
          "internalType": "bytes32",
          "name": "newAdminRole",
          "type": "bytes32"
        }
      ],
      "name": "RoleAdminChanged",
      "type": "event"
    },
    {
      "anonymous": false,
      "inputs": [
        {
          "indexed": true,
          "internalType": "bytes32",
          "name": "role",
          "type": "bytes32"
        },
        {
          "indexed": true,
          "internalType": "address",
          "name": "account",
          "type": "address"
        },
        {
          "indexed": true,
          "internalType": "address",
          "name": "sender",
          "type": "address"
        }
      ],
      "name": "RoleGranted",
      "type": "event"
    },
    {
      "anonymous": false,
      "inputs": [
        {
          "indexed": true,
          "internalType": "bytes32",
          "name": "role",
          "type": "bytes32"
        },
        {
          "indexed": true,
          "internalType": "address",
          "name": "account",
          "type": "address"
        },
        {
          "indexed": true,
          "internalType": "address",
          "name": "sender",
          "type": "address"
        }
      ],
      "name": "RoleRevoked",
      "type": "event"
    },
    {
      "anonymous": false,
      "inputs": [
        {
          "indexed": true,
          "internalType": "address",
          "name": "previousContract",
          "type": "address"
        },
        {
          "indexed": true,
          "internalType": "address",
          "name": "newContract",
          "type": "address"
        },
        {
          "indexed": false,
          "internalType": "uint256",
          "name": "timestamp",
          "type": "uint256"
        }
      ],
      "name": "SBTContractUpdated",
      "type": "event"
    },
    {
      "anonymous": false,
      "inputs": [
        {
          "indexed": true,
          "internalType": "uint256",
          "name": "tokenId",
          "type": "uint256"
        },
        {
          "indexed": false,
          "internalType": "enum SMARTLifecycle.Status",
          "name": "oldStatus",
          "type": "uint8"
        },
        {
          "indexed": false,
          "internalType": "enum SMARTLifecycle.Status",
          "name": "newStatus",
          "type": "uint8"
        },
        {
          "indexed": true,
          "internalType": "address",
          "name": "changedBy",
          "type": "address"
        },
        {
          "indexed": false,
          "internalType": "uint256",
          "name": "timestamp",
          "type": "uint256"
        }
      ],
      "name": "StatusChanged",
      "type": "event"
    },
    {
      "anonymous": false,
      "inputs": [
        {
          "indexed": true,
          "internalType": "uint8",
          "name": "transitionType",
          "type": "uint8"
        },
        {
          "indexed": false,
          "internalType": "bool",
          "name": "required",
          "type": "bool"
        },
        {
          "indexed": false,
          "internalType": "uint256",
          "name": "timestamp",
          "type": "uint256"
        }
      ],
      "name": "StrictModeChanged",
      "type": "event"
    },
    {
      "anonymous": false,
      "inputs": [
        {
          "indexed": true,
          "internalType": "address",
          "name": "from",
          "type": "address"
        },
        {
          "indexed": true,
          "internalType": "address",
          "name": "to",
          "type": "address"
        },
        {
          "indexed": true,
          "internalType": "uint256",
          "name": "tokenId",
          "type": "uint256"
        }
      ],
      "name": "Transfer",
      "type": "event"
    },
    {
      "inputs": [],
      "name": "ADMIN_ROLE",
      "outputs": [
        {
          "internalType": "bytes32",
          "name": "",
          "type": "bytes32"
        }
      ],
      "stateMutability": "view",
      "type": "function"
    },
    {
      "inputs": [],
      "name": "AUTHENTICATOR_ROLE",
      "outputs": [
        {
          "internalType": "bytes32",
          "name": "",
          "type": "bytes32"
        }
      ],
      "stateMutability": "view",
      "type": "function"
    },
    {
      "inputs": [],
      "name": "DEFAULT_ADMIN_ROLE",
      "outputs": [
        {
          "internalType": "bytes32",
          "name": "",
          "type": "bytes32"
        }
      ],
      "stateMutability": "view",
      "type": "function"
    },
    {
      "inputs": [],
      "name": "DEVELOPER_ROLE",
      "outputs": [
        {
          "internalType": "bytes32",
          "name": "",
          "type": "bytes32"
        }
      ],
      "stateMutability": "view",
      "type": "function"
    },
    {
      "inputs": [],
      "name": "IDENTITY_ARBITER_ROLE",
      "outputs": [
        {
          "internalType": "bytes32",
          "name": "",
          "type": "bytes32"
        }
      ],
      "stateMutability": "view",
      "type": "function"
    },
    {
      "inputs": [],
      "name": "MAX_REVISIONS",
      "outputs": [
        {
          "internalType": "uint256",
          "name": "",
          "type": "uint256"
        }
      ],
      "stateMutability": "view",
      "type": "function"
    },
    {
      "inputs": [],
      "name": "PUBLISHER_ROLE",
      "outputs": [
        {
          "internalType": "bytes32",
          "name": "",
          "type": "bytes32"
        }
      ],
      "stateMutability": "view",
      "type": "function"
    },
    {
      "inputs": [],
      "name": "SCHEMA_VERSION",
      "outputs": [
        {
          "internalType": "string",
          "name": "",
          "type": "string"
        }
      ],
      "stateMutability": "view",
      "type": "function"
    },
    {
      "inputs": [
        {
          "internalType": "uint256",
          "name": "",
          "type": "uint256"
        }
      ],
      "name": "actionById",
      "outputs": [
        {
          "internalType": "uint256",
          "name": "actionId",
          "type": "uint256"
        },
        {
          "internalType": "uint256",
          "name": "tokenId",
          "type": "uint256"
        },
        {
          "internalType": "address",
          "name": "actor",
          "type": "address"
        },
        {
          "internalType": "uint8",
          "name": "fromState",
          "type": "uint8"
        },
        {
          "internalType": "uint8",
          "name": "toState",
          "type": "uint8"
        },
        {
          "internalType": "uint8",
          "name": "transitionType",
          "type": "uint8"
        },
        {
          "internalType": "bytes32",
          "name": "contentHash",
          "type": "bytes32"
        },
        {
          "internalType": "bytes32",
          "name": "claimRef",
          "type": "bytes32"
        },
        {
          "internalType": "bytes32",
          "name": "issuerRef",
          "type": "bytes32"
        },
        {
          "internalType": "bytes32",
          "name": "contextRef",
          "type": "bytes32"
        },
        {
          "internalType": "uint64",
          "name": "timestamp",
          "type": "uint64"
        },
        {
          "internalType": "uint64",
          "name": "blockNumber",
          "type": "uint64"
        },
        {
          "internalType": "uint64",
          "name": "registryVersion",
          "type": "uint64"
        },
        {
          "internalType": "enum SMARTLifecycle.IdentityStatus",
          "name": "identityStatus",
          "type": "uint8"
        },
        {
          "internalType": "enum SMARTLifecycle.RepudiationReason",
          "name": "challengeReason",
          "type": "uint8"
        },
        {
          "internalType": "address",
          "name": "arbiter",
          "type": "address"
        },
        {
          "internalType": "address",
          "name": "panelMember1",
          "type": "address"
        },
        {
          "internalType": "address",
          "name": "panelMember2",
          "type": "address"
        },
        {
          "internalType": "address",
          "name": "challenger",
          "type": "address"
        }
      ],
      "stateMutability": "view",
      "type": "function"
    },
    {
      "inputs": [
        {
          "internalType": "uint256",
          "name": "",
          "type": "uint256"
        },
        {
          "internalType": "uint256",
          "name": "",
          "type": "uint256"
        }
      ],
      "name": "actionsForToken",
      "outputs": [
        {
          "internalType": "uint256",
          "name": "",
          "type": "uint256"
        }
      ],
      "stateMutability": "view",
      "type": "function"
    },
    {
      "inputs": [
        {
          "internalType": "uint256",
          "name": "tokenId",
          "type": "uint256"
        },
        {
          "internalType": "string",
          "name": "reason",
          "type": "string"
        },
        {
          "internalType": "string",
          "name": "justification",
          "type": "string"
        },
        {
          "internalType": "address",
          "name": "actor",
          "type": "address"
        }
      ],
      "name": "adminEmergencyDeprecate",
      "outputs": [],
      "stateMutability": "nonpayable",
      "type": "function"
    },
    {
      "inputs": [
        {
          "internalType": "uint256",
          "name": "tokenId",
          "type": "uint256"
        },
        {
          "internalType": "string",
          "name": "justification",
          "type": "string"
        },
        {
          "internalType": "address",
          "name": "actor",
          "type": "address"
        }
      ],
      "name": "adminEmergencyPublish",
      "outputs": [],
      "stateMutability": "nonpayable",
      "type": "function"
    },
    {
      "inputs": [
        {
          "internalType": "address",
          "name": "to",
          "type": "address"
        },
        {
          "internalType": "uint256",
          "name": "tokenId",
          "type": "uint256"
        }
      ],
      "name": "approve",
      "outputs": [],
      "stateMutability": "nonpayable",
      "type": "function"
    },
    {
      "inputs": [
        {
          "internalType": "address",
          "name": "owner",
          "type": "address"
        }
      ],
      "name": "balanceOf",
      "outputs": [
        {
          "internalType": "uint256",
          "name": "",
          "type": "uint256"
        }
      ],
      "stateMutability": "view",
      "type": "function"
    },
    {
      "inputs": [
        {
          "internalType": "uint256",
          "name": "actionId",
          "type": "uint256"
        },
        {
          "internalType": "enum SMARTLifecycle.RepudiationReason",
          "name": "reason",
          "type": "uint8"
        },
        {
          "internalType": "address",
          "name": "challenger",
          "type": "address"
        }
      ],
      "name": "challengeAction",
      "outputs": [],
      "stateMutability": "nonpayable",
      "type": "function"
    },
    {
      "inputs": [],
      "name": "challengeWindowSeconds",
      "outputs": [
        {
          "internalType": "uint64",
          "name": "",
          "type": "uint64"
        }
      ],
      "stateMutability": "view",
      "type": "function"
    },
    {
      "inputs": [
        {
          "internalType": "address",
          "name": "creator",
          "type": "address"
        },
        {
          "internalType": "string",
          "name": "metadataURI",
          "type": "string"
        },
        {
          "internalType": "bytes32",
          "name": "contentHash",
          "type": "bytes32"
        }
      ],
      "name": "createModelCard",
      "outputs": [
        {
          "internalType": "uint256",
          "name": "",
          "type": "uint256"
        }
      ],
      "stateMutability": "nonpayable",
      "type": "function"
    },
    {
      "inputs": [
        {
          "internalType": "address",
          "name": "creator",
          "type": "address"
        },
        {
          "internalType": "string",
          "name": "name",
          "type": "string"
        },
        {
          "internalType": "string",
          "name": "metadataURI",
          "type": "string"
        },
        {
          "internalType": "bytes32",
          "name": "contentHash",
          "type": "bytes32"
        },
        {
          "internalType": "uint256",
          "name": "supersedes",
          "type": "uint256"
        },
        {
          "internalType": "enum SMARTVersionRegistry.Relation",
          "name": "relation",
          "type": "uint8"
        },
        {
          "internalType": "bool",
          "name": "withinEnvelope",
          "type": "bool"
        }
      ],
      "name": "createModelCardWithLineage",
      "outputs": [
        {
          "internalType": "uint256",
          "name": "tokenId",
          "type": "uint256"
        },
        {
          "internalType": "bytes",
          "name": "aliasOut",
          "type": "bytes"
        }
      ],
      "stateMutability": "nonpayable",
      "type": "function"
    },
    {
      "inputs": [
        {
          "internalType": "uint256",
          "name": "tokenId",
          "type": "uint256"
        },
        {
          "internalType": "string",
          "name": "reason",
          "type": "string"
        },
        {
          "internalType": "address",
          "name": "actor",
          "type": "address"
        }
      ],
      "name": "deprecateModelCard",
      "outputs": [],
      "stateMutability": "nonpayable",
      "type": "function"
    },
    {
      "inputs": [
        {
          "internalType": "uint256",
          "name": "actionId",
          "type": "uint256"
        }
      ],
      "name": "getAction",
      "outputs": [
        {
          "components": [
            {
              "internalType": "uint256",
              "name": "actionId",
              "type": "uint256"
            },
            {
              "internalType": "uint256",
              "name": "tokenId",
              "type": "uint256"
            },
            {
              "internalType": "address",
              "name": "actor",
              "type": "address"
            },
            {
              "internalType": "uint8",
              "name": "fromState",
              "type": "uint8"
            },
            {
              "internalType": "uint8",
              "name": "toState",
              "type": "uint8"
            },
            {
              "internalType": "uint8",
              "name": "transitionType",
              "type": "uint8"
            },
            {
              "internalType": "bytes32",
              "name": "contentHash",
              "type": "bytes32"
            },
            {
              "internalType": "bytes32",
              "name": "claimRef",
              "type": "bytes32"
            },
            {
              "internalType": "bytes32",
              "name": "issuerRef",
              "type": "bytes32"
            },
            {
              "internalType": "bytes32",
              "name": "contextRef",
              "type": "bytes32"
            },
            {
              "internalType": "uint64",
              "name": "timestamp",
              "type": "uint64"
            },
            {
              "internalType": "uint64",
              "name": "blockNumber",
              "type": "uint64"
            },
            {
              "internalType": "uint64",
              "name": "registryVersion",
              "type": "uint64"
            },
            {
              "internalType": "enum SMARTLifecycle.IdentityStatus",
              "name": "identityStatus",
              "type": "uint8"
            },
            {
              "internalType": "enum SMARTLifecycle.RepudiationReason",
              "name": "challengeReason",
              "type": "uint8"
            },
            {
              "internalType": "address",
              "name": "arbiter",
              "type": "address"
            },
            {
              "internalType": "address",
              "name": "panelMember1",
              "type": "address"
            },
            {
              "internalType": "address",
              "name": "panelMember2",
              "type": "address"
            },
            {
              "internalType": "address",
              "name": "challenger",
              "type": "address"
            }
          ],
          "internalType": "struct SMARTLifecycle.ActionRecord",
          "name": "",
          "type": "tuple"
        }
      ],
      "stateMutability": "view",
      "type": "function"
    },
    {
      "inputs": [
        {
          "internalType": "uint256",
          "name": "tokenId",
          "type": "uint256"
        }
      ],
      "name": "getActionsForToken",
      "outputs": [
        {
          "internalType": "uint256[]",
          "name": "",
          "type": "uint256[]"
        }
      ],
      "stateMutability": "view",
      "type": "function"
    },
    {
      "inputs": [
        {
          "internalType": "uint256",
          "name": "tokenId",
          "type": "uint256"
        }
      ],
      "name": "getApproved",
      "outputs": [
        {
          "internalType": "address",
          "name": "",
          "type": "address"
        }
      ],
      "stateMutability": "view",
      "type": "function"
    },
    {
      "inputs": [
        {
          "internalType": "uint256",
          "name": "tokenId",
          "type": "uint256"
        }
      ],
      "name": "getContentHash",
      "outputs": [
        {
          "internalType": "bytes32",
          "name": "",
          "type": "bytes32"
        }
      ],
      "stateMutability": "view",
      "type": "function"
    },
    {
      "inputs": [
        {
          "internalType": "uint256",
          "name": "tokenId",
          "type": "uint256"
        }
      ],
      "name": "getGovernance",
      "outputs": [
        {
          "internalType": "uint32",
          "name": "invalidCount",
          "type": "uint32"
        },
        {
          "internalType": "uint8",
          "name": "highestRepudiated",
          "type": "uint8"
        }
      ],
      "stateMutability": "view",
      "type": "function"
    },
    {
      "inputs": [
        {
          "internalType": "uint256",
          "name": "tokenId",
          "type": "uint256"
        }
      ],
      "name": "getModelCard",
      "outputs": [
        {
          "components": [
            {
              "internalType": "uint256",
              "name": "tokenId",
              "type": "uint256"
            },
            {
              "internalType": "address",
              "name": "creator",
              "type": "address"
            },
            {
              "internalType": "string",
              "name": "metadataURI",
              "type": "string"
            },
            {
              "internalType": "bytes32",
              "name": "contentHash",
              "type": "bytes32"
            },
            {
              "internalType": "enum SMARTLifecycle.Status",
              "name": "status",
              "type": "uint8"
            },
            {
              "internalType": "uint256",
              "name": "createdAt",
              "type": "uint256"
            },
            {
              "internalType": "uint256",
              "name": "lastUpdated",
              "type": "uint256"
            },
            {
              "internalType": "string",
              "name": "revisionNotes",
              "type": "string"
            },
            {
              "internalType": "address",
              "name": "lastModifiedBy",
              "type": "address"
            },
            {
              "internalType": "bool",
              "name": "isActive",
              "type": "bool"
            },
            {
              "internalType": "uint256",
              "name": "version",
              "type": "uint256"
            },
            {
              "internalType": "uint256",
              "name": "revisionCount",
              "type": "uint256"
            }
          ],
          "internalType": "struct SMARTLifecycle.ModelCard",
          "name": "",
          "type": "tuple"
        }
      ],
      "stateMutability": "view",
      "type": "function"
    },
    {
      "inputs": [
        {
          "internalType": "uint256",
          "name": "tokenId",
          "type": "uint256"
        }
      ],
      "name": "getRemainingRevisions",
      "outputs": [
        {
          "internalType": "uint256",
          "name": "",
          "type": "uint256"
        }
      ],
      "stateMutability": "view",
      "type": "function"
    },
    {
      "inputs": [
        {
          "internalType": "uint256",
          "name": "tokenId",
          "type": "uint256"
        },
        {
          "internalType": "uint256",
          "name": "revisionIndex",
          "type": "uint256"
        }
      ],
      "name": "getRevision",
      "outputs": [
        {
          "components": [
            {
              "internalType": "uint256",
              "name": "revisionNumber",
              "type": "uint256"
            },
            {
              "internalType": "string",
              "name": "previousMetadataURI",
              "type": "string"
            },
            {
              "internalType": "bytes32",
              "name": "previousContentHash",
              "type": "bytes32"
            },
            {
              "internalType": "string",
              "name": "newMetadataURI",
              "type": "string"
            },
            {
              "internalType": "bytes32",
              "name": "newContentHash",
              "type": "bytes32"
            },
            {
              "internalType": "string",
              "name": "revisionNotes",
              "type": "string"
            },
            {
              "internalType": "address",
              "name": "revisedBy",
              "type": "address"
            },
            {
              "internalType": "uint256",
              "name": "timestamp",
              "type": "uint256"
            }
          ],
          "internalType": "struct SMARTLifecycle.RevisionRecord",
          "name": "",
          "type": "tuple"
        }
      ],
      "stateMutability": "view",
      "type": "function"
    },
    {
      "inputs": [
        {
          "internalType": "uint256",
          "name": "tokenId",
          "type": "uint256"
        }
      ],
      "name": "getRevisionHistory",
      "outputs": [
        {
          "components": [
            {
              "internalType": "uint256",
              "name": "revisionNumber",
              "type": "uint256"
            },
            {
              "internalType": "string",
              "name": "previousMetadataURI",
              "type": "string"
            },
            {
              "internalType": "bytes32",
              "name": "previousContentHash",
              "type": "bytes32"
            },
            {
              "internalType": "string",
              "name": "newMetadataURI",
              "type": "string"
            },
            {
              "internalType": "bytes32",
              "name": "newContentHash",
              "type": "bytes32"
            },
            {
              "internalType": "string",
              "name": "revisionNotes",
              "type": "string"
            },
            {
              "internalType": "address",
              "name": "revisedBy",
              "type": "address"
            },
            {
              "internalType": "uint256",
              "name": "timestamp",
              "type": "uint256"
            }
          ],
          "internalType": "struct SMARTLifecycle.RevisionRecord[]",
          "name": "",
          "type": "tuple[]"
        }
      ],
      "stateMutability": "view",
      "type": "function"
    },
    {
      "inputs": [
        {
          "internalType": "bytes32",
          "name": "role",
          "type": "bytes32"
        }
      ],
      "name": "getRoleAdmin",
      "outputs": [
        {
          "internalType": "bytes32",
          "name": "",
          "type": "bytes32"
        }
      ],
      "stateMutability": "view",
      "type": "function"
    },
    {
      "inputs": [
        {
          "internalType": "uint256",
          "name": "tokenId",
          "type": "uint256"
        }
      ],
      "name": "getSBTTokenId",
      "outputs": [
        {
          "internalType": "uint256",
          "name": "",
          "type": "uint256"
        }
      ],
      "stateMutability": "view",
      "type": "function"
    },
    {
      "inputs": [
        {
          "internalType": "uint256",
          "name": "tokenId",
          "type": "uint256"
        }
      ],
      "name": "getStatusHistory",
      "outputs": [
        {
          "internalType": "enum SMARTLifecycle.Status[]",
          "name": "",
          "type": "uint8[]"
        }
      ],
      "stateMutability": "view",
      "type": "function"
    },
    {
      "inputs": [],
      "name": "getTotalModelCards",
      "outputs": [
        {
          "internalType": "uint256",
          "name": "",
          "type": "uint256"
        }
      ],
      "stateMutability": "view",
      "type": "function"
    },
    {
      "inputs": [
        {
          "internalType": "uint256",
          "name": "tokenId",
          "type": "uint256"
        }
      ],
      "name": "getVersion",
      "outputs": [
        {
          "internalType": "uint256",
          "name": "",
          "type": "uint256"
        }
      ],
      "stateMutability": "view",
      "type": "function"
    },
    {
      "inputs": [
        {
          "internalType": "bytes32",
          "name": "role",
          "type": "bytes32"
        },
        {
          "internalType": "address",
          "name": "account",
          "type": "address"
        }
      ],
      "name": "grantRole",
      "outputs": [],
      "stateMutability": "nonpayable",
      "type": "function"
    },
    {
      "inputs": [
        {
          "internalType": "bytes32",
          "name": "role",
          "type": "bytes32"
        },
        {
          "internalType": "address",
          "name": "account",
          "type": "address"
        }
      ],
      "name": "hasRole",
      "outputs": [
        {
          "internalType": "bool",
          "name": "",
          "type": "bool"
        }
      ],
      "stateMutability": "view",
      "type": "function"
    },
    {
      "inputs": [
        {
          "internalType": "uint256",
          "name": "",
          "type": "uint256"
        }
      ],
      "name": "highestRepudiatedToState",
      "outputs": [
        {
          "internalType": "uint8",
          "name": "",
          "type": "uint8"
        }
      ],
      "stateMutability": "view",
      "type": "function"
    },
    {
      "inputs": [],
      "name": "identityRegistry",
      "outputs": [
        {
          "internalType": "contract SMARTIdentityRegistry",
          "name": "",
          "type": "address"
        }
      ],
      "stateMutability": "view",
      "type": "function"
    },
    {
      "inputs": [
        {
          "internalType": "uint256",
          "name": "",
          "type": "uint256"
        }
      ],
      "name": "invalidGovernanceActionCount",
      "outputs": [
        {
          "internalType": "uint32",
          "name": "",
          "type": "uint32"
        }
      ],
      "stateMutability": "view",
      "type": "function"
    },
    {
      "inputs": [
        {
          "internalType": "address",
          "name": "owner",
          "type": "address"
        },
        {
          "internalType": "address",
          "name": "operator",
          "type": "address"
        }
      ],
      "name": "isApprovedForAll",
      "outputs": [
        {
          "internalType": "bool",
          "name": "",
          "type": "bool"
        }
      ],
      "stateMutability": "view",
      "type": "function"
    },
    {
      "inputs": [],
      "name": "isSBTEnabled",
      "outputs": [
        {
          "internalType": "bool",
          "name": "",
          "type": "bool"
        }
      ],
      "stateMutability": "view",
      "type": "function"
    },
    {
      "inputs": [
        {
          "internalType": "enum SMARTLifecycle.Status",
          "name": "current",
          "type": "uint8"
        },
        {
          "internalType": "enum SMARTLifecycle.Status",
          "name": "next",
          "type": "uint8"
        }
      ],
      "name": "isValidTransition",
      "outputs": [
        {
          "internalType": "bool",
          "name": "",
          "type": "bool"
        }
      ],
      "stateMutability": "pure",
      "type": "function"
    },
    {
      "inputs": [
        {
          "internalType": "uint256",
          "name": "",
          "type": "uint256"
        }
      ],
      "name": "lifecycleToSBT",
      "outputs": [
        {
          "internalType": "uint256",
          "name": "",
          "type": "uint256"
        }
      ],
      "stateMutability": "view",
      "type": "function"
    },
    {
      "inputs": [
        {
          "internalType": "uint256",
          "name": "tokenId",
          "type": "uint256"
        }
      ],
      "name": "locked",
      "outputs": [
        {
          "internalType": "bool",
          "name": "",
          "type": "bool"
        }
      ],
      "stateMutability": "view",
      "type": "function"
    },
    {
      "inputs": [
        {
          "internalType": "uint256",
          "name": "",
          "type": "uint256"
        }
      ],
      "name": "modelCards",
      "outputs": [
        {
          "internalType": "uint256",
          "name": "tokenId",
          "type": "uint256"
        },
        {
          "internalType": "address",
          "name": "creator",
          "type": "address"
        },
        {
          "internalType": "string",
          "name": "metadataURI",
          "type": "string"
        },
        {
          "internalType": "bytes32",
          "name": "contentHash",
          "type": "bytes32"
        },
        {
          "internalType": "enum SMARTLifecycle.Status",
          "name": "status",
          "type": "uint8"
        },
        {
          "internalType": "uint256",
          "name": "createdAt",
          "type": "uint256"
        },
        {
          "internalType": "uint256",
          "name": "lastUpdated",
          "type": "uint256"
        },
        {
          "internalType": "string",
          "name": "revisionNotes",
          "type": "string"
        },
        {
          "internalType": "address",
          "name": "lastModifiedBy",
          "type": "address"
        },
        {
          "internalType": "bool",
          "name": "isActive",
          "type": "bool"
        },
        {
          "internalType": "uint256",
          "name": "version",
          "type": "uint256"
        },
        {
          "internalType": "uint256",
          "name": "revisionCount",
          "type": "uint256"
        }
      ],
      "stateMutability": "view",
      "type": "function"
    },
    {
      "inputs": [],
      "name": "name",
      "outputs": [
        {
          "internalType": "string",
          "name": "",
          "type": "string"
        }
      ],
      "stateMutability": "view",
      "type": "function"
    },
    {
      "inputs": [],
      "name": "nameRegistry",
      "outputs": [
        {
          "internalType": "contract SMARTNameRegistry",
          "name": "",
          "type": "address"
        }
      ],
      "stateMutability": "view",
      "type": "function"
    },
    {
      "inputs": [],
      "name": "nextActionId",
      "outputs": [
        {
          "internalType": "uint256",
          "name": "",
          "type": "uint256"
        }
      ],
      "stateMutability": "view",
      "type": "function"
    },
    {
      "inputs": [
        {
          "internalType": "uint256",
          "name": "tokenId",
          "type": "uint256"
        }
      ],
      "name": "ownerOf",
      "outputs": [
        {
          "internalType": "address",
          "name": "",
          "type": "address"
        }
      ],
      "stateMutability": "view",
      "type": "function"
    },
    {
      "inputs": [
        {
          "internalType": "uint256",
          "name": "actionId",
          "type": "uint256"
        },
        {
          "internalType": "enum SMARTLifecycle.IdentityStatus",
          "name": "finalStatus",
          "type": "uint8"
        }
      ],
      "name": "panelVoteDigest",
      "outputs": [
        {
          "internalType": "bytes32",
          "name": "",
          "type": "bytes32"
        }
      ],
      "stateMutability": "view",
      "type": "function"
    },
    {
      "inputs": [
        {
          "internalType": "string",
          "name": "name",
          "type": "string"
        },
        {
          "internalType": "bytes32",
          "name": "envelopeHash",
          "type": "bytes32"
        },
        {
          "internalType": "address",
          "name": "controller",
          "type": "address"
        }
      ],
      "name": "pinLineEnvelope",
      "outputs": [],
      "stateMutability": "nonpayable",
      "type": "function"
    },
    {
      "inputs": [
        {
          "internalType": "uint256",
          "name": "tokenId",
          "type": "uint256"
        },
        {
          "internalType": "address",
          "name": "actor",
          "type": "address"
        }
      ],
      "name": "publishModelCard",
      "outputs": [],
      "stateMutability": "nonpayable",
      "type": "function"
    },
    {
      "inputs": [
        {
          "internalType": "uint256",
          "name": "tokenId",
          "type": "uint256"
        },
        {
          "internalType": "string",
          "name": "reason",
          "type": "string"
        },
        {
          "internalType": "address",
          "name": "actor",
          "type": "address"
        }
      ],
      "name": "rejectModelCard",
      "outputs": [],
      "stateMutability": "nonpayable",
      "type": "function"
    },
    {
      "inputs": [
        {
          "internalType": "bytes32",
          "name": "role",
          "type": "bytes32"
        },
        {
          "internalType": "address",
          "name": "account",
          "type": "address"
        }
      ],
      "name": "renounceRole",
      "outputs": [],
      "stateMutability": "nonpayable",
      "type": "function"
    },
    {
      "inputs": [
        {
          "internalType": "uint256",
          "name": "tokenId",
          "type": "uint256"
        },
        {
          "internalType": "string",
          "name": "feedback",
          "type": "string"
        },
        {
          "internalType": "address",
          "name": "actor",
          "type": "address"
        }
      ],
      "name": "requestRevision",
      "outputs": [],
      "stateMutability": "nonpayable",
      "type": "function"
    },
    {
      "inputs": [
        {
          "internalType": "uint8",
          "name": "",
          "type": "uint8"
        }
      ],
      "name": "requireIdentityForTransition",
      "outputs": [
        {
          "internalType": "bool",
          "name": "",
          "type": "bool"
        }
      ],
      "stateMutability": "view",
      "type": "function"
    },
    {
      "inputs": [
        {
          "internalType": "uint256",
          "name": "actionId",
          "type": "uint256"
        },
        {
          "internalType": "enum SMARTLifecycle.IdentityStatus",
          "name": "finalStatus",
          "type": "uint8"
        }
      ],
      "name": "resolveDispute",
      "outputs": [],
      "stateMutability": "nonpayable",
      "type": "function"
    },
    {
      "inputs": [
        {
          "internalType": "uint256",
          "name": "actionId",
          "type": "uint256"
        },
        {
          "internalType": "enum SMARTLifecycle.IdentityStatus",
          "name": "finalStatus",
          "type": "uint8"
        },
        {
          "internalType": "address",
          "name": "signer1",
          "type": "address"
        },
        {
          "internalType": "bytes",
          "name": "sig1",
          "type": "bytes"
        },
        {
          "internalType": "address",
          "name": "signer2",
          "type": "address"
        },
        {
          "internalType": "bytes",
          "name": "sig2",
          "type": "bytes"
        }
      ],
      "name": "resolveDisputeQuorum",
      "outputs": [],
      "stateMutability": "nonpayable",
      "type": "function"
    },
    {
      "inputs": [
        {
          "internalType": "uint256",
          "name": "tokenId",
          "type": "uint256"
        },
        {
          "internalType": "string",
          "name": "newMetadataURI",
          "type": "string"
        },
        {
          "internalType": "bytes32",
          "name": "newContentHash",
          "type": "bytes32"
        },
        {
          "internalType": "string",
          "name": "revisionNotes",
          "type": "string"
        },
        {
          "internalType": "address",
          "name": "actor",
          "type": "address"
        }
      ],
      "name": "reviseModelCard",
      "outputs": [],
      "stateMutability": "nonpayable",
      "type": "function"
    },
    {
      "inputs": [
        {
          "internalType": "uint256",
          "name": "",
          "type": "uint256"
        },
        {
          "internalType": "uint256",
          "name": "",
          "type": "uint256"
        }
      ],
      "name": "revisionHistory",
      "outputs": [
        {
          "internalType": "uint256",
          "name": "revisionNumber",
          "type": "uint256"
        },
        {
          "internalType": "string",
          "name": "previousMetadataURI",
          "type": "string"
        },
        {
          "internalType": "bytes32",
          "name": "previousContentHash",
          "type": "bytes32"
        },
        {
          "internalType": "string",
          "name": "newMetadataURI",
          "type": "string"
        },
        {
          "internalType": "bytes32",
          "name": "newContentHash",
          "type": "bytes32"
        },
        {
          "internalType": "string",
          "name": "revisionNotes",
          "type": "string"
        },
        {
          "internalType": "address",
          "name": "revisedBy",
          "type": "address"
        },
        {
          "internalType": "uint256",
          "name": "timestamp",
          "type": "uint256"
        }
      ],
      "stateMutability": "view",
      "type": "function"
    },
    {
      "inputs": [
        {
          "internalType": "bytes32",
          "name": "role",
          "type": "bytes32"
        },
        {
          "internalType": "address",
          "name": "account",
          "type": "address"
        }
      ],
      "name": "revokeRole",
      "outputs": [],
      "stateMutability": "nonpayable",
      "type": "function"
    },
    {
      "inputs": [
        {
          "internalType": "address",
          "name": "",
          "type": "address"
        },
        {
          "internalType": "address",
          "name": "",
          "type": "address"
        },
        {
          "internalType": "uint256",
          "name": "",
          "type": "uint256"
        }
      ],
      "name": "safeTransferFrom",
      "outputs": [],
      "stateMutability": "pure",
      "type": "function"
    },
    {
      "inputs": [
        {
          "internalType": "address",
          "name": "",
          "type": "address"
        },
        {
          "internalType": "address",
          "name": "",
          "type": "address"
        },
        {
          "internalType": "uint256",
          "name": "",
          "type": "uint256"
        },
        {
          "internalType": "bytes",
          "name": "",
          "type": "bytes"
        }
      ],
      "name": "safeTransferFrom",
      "outputs": [],
      "stateMutability": "pure",
      "type": "function"
    },
    {
      "inputs": [],
      "name": "sbtContract",
      "outputs": [
        {
          "internalType": "contract ISMARTModelCardSBT",
          "name": "",
          "type": "address"
        }
      ],
      "stateMutability": "view",
      "type": "function"
    },
    {
      "inputs": [
        {
          "internalType": "address",
          "name": "operator",
          "type": "address"
        },
        {
          "internalType": "bool",
          "name": "approved",
          "type": "bool"
        }
      ],
      "name": "setApprovalForAll",
      "outputs": [],
      "stateMutability": "nonpayable",
      "type": "function"
    },
    {
      "inputs": [
        {
          "internalType": "uint64",
          "name": "secs",
          "type": "uint64"
        }
      ],
      "name": "setChallengeWindowSeconds",
      "outputs": [],
      "stateMutability": "nonpayable",
      "type": "function"
    },
    {
      "inputs": [
        {
          "internalType": "address",
          "name": "_registry",
          "type": "address"
        }
      ],
      "name": "setIdentityRegistry",
      "outputs": [],
      "stateMutability": "nonpayable",
      "type": "function"
    },
    {
      "inputs": [
        {
          "internalType": "address",
          "name": "_nameRegistry",
          "type": "address"
        },
        {
          "internalType": "address",
          "name": "_versionRegistry",
          "type": "address"
        }
      ],
      "name": "setLineageRegistries",
      "outputs": [],
      "stateMutability": "nonpayable",
      "type": "function"
    },
    {
      "inputs": [
        {
          "internalType": "address",
          "name": "_sbtContract",
          "type": "address"
        }
      ],
      "name": "setSBTContract",
      "outputs": [],
      "stateMutability": "nonpayable",
      "type": "function"
    },
    {
      "inputs": [
        {
          "internalType": "uint8",
          "name": "transitionType",
          "type": "uint8"
        },
        {
          "internalType": "bool",
          "name": "required",
          "type": "bool"
        }
      ],
      "name": "setStrictMode",
      "outputs": [],
      "stateMutability": "nonpayable",
      "type": "function"
    },
    {
      "inputs": [
        {
          "internalType": "uint256",
          "name": "",
          "type": "uint256"
        },
        {
          "internalType": "uint256",
          "name": "",
          "type": "uint256"
        }
      ],
      "name": "statusHistory",
      "outputs": [
        {
          "internalType": "enum SMARTLifecycle.Status",
          "name": "",
          "type": "uint8"
        }
      ],
      "stateMutability": "view",
      "type": "function"
    },
    {
      "inputs": [
        {
          "internalType": "uint256",
          "name": "tokenId",
          "type": "uint256"
        },
        {
          "internalType": "address",
          "name": "actor",
          "type": "address"
        }
      ],
      "name": "submitForEvaluation",
      "outputs": [],
      "stateMutability": "nonpayable",
      "type": "function"
    },
    {
      "inputs": [
        {
          "internalType": "bytes4",
          "name": "interfaceId",
          "type": "bytes4"
        }
      ],
      "name": "supportsInterface",
      "outputs": [
        {
          "internalType": "bool",
          "name": "",
          "type": "bool"
        }
      ],
      "stateMutability": "view",
      "type": "function"
    },
    {
      "inputs": [],
      "name": "symbol",
      "outputs": [
        {
          "internalType": "string",
          "name": "",
          "type": "string"
        }
      ],
      "stateMutability": "view",
      "type": "function"
    },
    {
      "inputs": [
        {
          "internalType": "uint256",
          "name": "tokenId",
          "type": "uint256"
        }
      ],
      "name": "tokenURI",
      "outputs": [
        {
          "internalType": "string",
          "name": "",
          "type": "string"
        }
      ],
      "stateMutability": "view",
      "type": "function"
    },
    {
      "inputs": [
        {
          "internalType": "address",
          "name": "",
          "type": "address"
        },
        {
          "internalType": "address",
          "name": "",
          "type": "address"
        },
        {
          "internalType": "uint256",
          "name": "",
          "type": "uint256"
        }
      ],
      "name": "transferFrom",
      "outputs": [],
      "stateMutability": "pure",
      "type": "function"
    },
    {
      "inputs": [
        {
          "internalType": "string",
          "name": "name",
          "type": "string"
        },
        {
          "internalType": "bytes32",
          "name": "newHash",
          "type": "bytes32"
        },
        {
          "internalType": "address",
          "name": "controller",
          "type": "address"
        }
      ],
      "name": "updateLineEnvelope",
      "outputs": [],
      "stateMutability": "nonpayable",
      "type": "function"
    },
    {
      "inputs": [
        {
          "internalType": "uint256",
          "name": "tokenId",
          "type": "uint256"
        },
        {
          "internalType": "address",
          "name": "actor",
          "type": "address"
        }
      ],
      "name": "validateModelCard",
      "outputs": [],
      "stateMutability": "nonpayable",
      "type": "function"
    },
    {
      "inputs": [
        {
          "internalType": "uint256",
          "name": "tokenId",
          "type": "uint256"
        },
        {
          "internalType": "bytes32",
          "name": "providedHash",
          "type": "bytes32"
        }
      ],
      "name": "verifyContentIntegrity",
      "outputs": [
        {
          "internalType": "bool",
          "name": "",
          "type": "bool"
        }
      ],
      "stateMutability": "view",
      "type": "function"
    },
    {
      "inputs": [],
      "name": "versionRegistry",
      "outputs": [
        {
          "internalType": "contract SMARTVersionRegistry",
          "name": "",
          "type": "address"
        }
      ],
      "stateMutability": "view",
      "type": "function"
    }
  ],
  "bytecode": "0x6080604052346104bd57604080519081016001600160401b038111828210176103ca576040908152601082526f14d350549508135bd9195b0810d85c9960821b602083015280519081016001600160401b038111828210176103ca57604052600581526414d350549560da1b602082015281516001600160401b0381116103ca57600054600181811c911680156104b3575b60208210146103aa57601f811161044f575b50602092601f82116001146103eb57928192936000926103e0575b50508160011b916000199060031b1c1916176000555b80516001600160401b0381116103ca57600154600181811c911680156103c0575b60208210146103aa57601f8111610345575b50602091601f82116001146102e1579181926000926102d6575b50508160011b916000199060031b1c1916176001555b600d8054600160a01b600160e01b0319166176a760a81b17905533600090815260008051602061a910833981519152602052604090205460ff1615610296575b33600090815260008051602061a8f0833981519152602052604090205460ff1615610234575b33600090815260008051602061a8d0833981519152602052604090205460ff16156101d2575b60405161a3ed90816104c38239f35b33600081815260008051602061a8d083398151915260205260408120805460ff1916600117905581907fd5aa6b73c122a195bdf47f267b1de59bcd09fb030b8e6f0d7cb7b9200aea35559060008051602061a8b08339815191529080a46101c3565b33600081815260008051602061a8f083398151915260205260408120805460ff1916600117905581907fa49807205ce4d355092ef5a8a18f56e8913cf4a201fbe287825b095693c217759060008051602061a8b08339815191529080a461019d565b33600081815260008051602061a91083398151915260205260408120805460ff19166001179055819060008051602061a8b08339815191528180a4610177565b015190503880610121565b601f198216926001600052806000209160005b85811061032d57508360019510610314575b505050811b01600155610137565b015160001960f88460031b161c19169055388080610306565b919260206001819286850151815501940192016102f4565b60016000527fb10e2d527612073b26eecdfd717e6a320cf44b4afac2b0732d9fcbe2b7fa0cf6601f830160051c810191602084106103a0575b601f0160051c01905b8181106103945750610107565b60008155600101610387565b909150819061037e565b634e487b7160e01b600052602260045260246000fd5b90607f16906100f5565b634e487b7160e01b600052604160045260246000fd5b0151905038806100be565b601f1982169360008052806000209160005b868110610437575083600195961061041e575b505050811b016000556100d4565b015160001960f88460031b161c19169055388080610410565b919260206001819286850151815501940192016103fd565b600080527f290decd9548b62a8d60345a988386fc84ba6bc95484008f6362f93160ef3e563601f830160051c810191602084106104a9575b601f0160051c01905b81811061049d57506100a3565b60008155600101610490565b9091508190610487565b90607f1690610091565b600080fdfe60a080604052600436101561001357600080fd5b600090813560e01c90816301ffc9a71461583157508063061583601461580857806306fdde0314615780578063081812fc1461572b5780630932f432146155f9578063095ea7b3146154755780630f9eef091461544a578063134e18f41461542157806313904862146153eb57806316e75e8d146153a957806317693dcd1461515d5780631986aabd146151335780631b586efd146150bd57806323b872dd146140d4578063248a9ca3146150875780632f2ff15d14614fc257806330095f8914614f4e578063342c3567146145b657806336568abe1461452357806338f3078f146144f65780633ecf196e146141f5578063402c1b65146140d957806342842e0e146140d457806346abe73a146140b65780634a0d7b8914613f225780634a2b0009146137bd5780634eb7221a146137945780634fb10be41461375957806358a20b3b14612ed95780635a6e4d2714612ebb5780635bc0458414612e8b5780636089351514612e625780636192e3e814612d6f5780636233b32a14612d535780636352211e14612d2257806369b2d71714612cbe57806370a0823114612c28578063716e6afd14612bb657806375b238fc14612b7b578063776839131461292257806379412d28146128e1578063822464c5146128b757806383ab970e146128b757806385218daa14612677578063879ab749146125175780639103a0e0146124dc5780639178cd4a1461241357806391d14854146123c757806393d55b3e1461219457806395d89b41146120b15780639eaae49414611f62578063a217fddf14611f46578063a22cb46514611e6e578063a622d45314611e29578063a6ec121514611ddc578063aead1a4114611cee578063b08c0e041461182d578063b45a3c0e146117ea578063b65c5e8d146117af578063b6e76873146114be578063b88d4fde14611460578063b88da75914611422578063c87b56dd146113a8578063c96d182d14611367578063cbf3f861146112f3578063ccff3e5d146111dc578063d547741f14611193578063d6a112be146110ec578063d883dacc146110d0578063d8f4b6fd14611095578063db5c61e914610eaa578063e408ebb114610e07578063e55e421114610b89578063e92effe0146105c8578063e985e9c51461056e578063f32beaa61461051a578063fce780bc1461045f578063ffbdc8cb1461040b5763ffe27bf61461038657600080fd5b346104085760403660031901126104085761039f615ad3565b7f96ef6bdb1d8e96d4634ffc312cb3cfef435bb3831ba070b2936b31b046ddfeb7604060ff6103cc615c7e565b936103d561657a565b1692838552600e6020526103f7818387209060ff801983541691151516179055565b81519015158152426020820152a280f35b80fd5b5034610408576020366003190112610408576003604060209260043561044e61044982600052600260205260018060a01b0360406000205416151590565b6161b1565b815260088452200154604051908152f35b50346104085761049e8161047236615b2f565b919261047f959195616660565b600d546001600160a01b031693610497851515615f75565b36916159db565b6020815191012091803b156105165760405163a03fdb4160e01b8152600481019390935260248301949094526001600160a01b031660448201529181908390606490829084905af18015610509576104f35780f35b6104fc9161599f565b8060001261040857388180f35b50604051903d90823e3d90fd5b8380fd5b50346104085760403660031901126104085760209060043561055461044982600052600260205260018060a01b0360406000205416151590565b815260088252600360406024359220015414604051908152f35b503461040857604036600319011261040857604061058a615a35565b91610593615a4b565b9260018060a01b031681526005602052209060018060a01b0316600052602052602060ff604060002054166040519015158152f35b50346104085760c036600319011261040857806004356024356006811015610b85576105f2615a77565b6064356001600160401b038111610b8157610611903690600401615b02565b92909161061c615a61565b9060a435916001600160401b038311610b7d576107199760079661071161070b60ff9861064f603c983690600401615b02565b98909561065b8b615d43565b60048b148015610b6a575b61066f906164bc565b8d815260106020526106a56003604083209e8f61068e81541515616435565b019d8e5460c01c1661069f81615d43565b14616508565b6106ae8b615d43565b8d6106cb6106d98d60405192839160208301953091469188615ece565b03601f19810183528261599f565b5190207f19457468657265756d205369676e6564204d6573736167653a0a3332000000008252601c52209336916159db565b82619e31565b9a909a619e69565b6001600160a01b038481169a168a9003610b365761073f6107459261074d9636916159db565b90619e31565b939093619e69565b6001600160a01b038181169316839003610b0257828814610abd57600b54604051632ffe20b360e11b8152600481018a9052600260248201526001600160a01b0390911690602081604481855afa908115610ab2578b91610a93575b5015610a4257602060449160405192838092632ffe20b360e11b8252886004830152600360248301525afa908115610a37578a91610a08575b50156109b757600186019182548a52600860205261081160018060a01b03600160408d20015416809289619b8e565b6109725761081f9187619b8e565b61092d577f4d217aa35422dc6bd6672afee321b7b692f5a0195c2e9659a850586c3e87ff2a9461085184608096616474565b6008810180546001600160a01b0319908116301790915560098201805482168a179055600a820180549091168417905561088a84615d43565b600584146108b9575b505495604051926108a381615d43565b835260208301526040820152426060820152a380f35b600260ff9183548b52601260205260408b2063ffffffff6108dc8183541661654a565b1663ffffffff19825416179055015460a81c168154808a52601360205260ff60408b205416821161090e575b50610893565b8952601360205260ff60408a20911660ff198254161790553880610908565b60405162461bcd60e51b815260206004820152601c60248201527f7369676e65723220636f6e666c6963742d6f662d696e746572657374000000006044820152606490fd5b60405162461bcd60e51b815260206004820152601c60248201527f7369676e65723120636f6e666c6963742d6f662d696e746572657374000000006044820152606490fd5b60405162461bcd60e51b8152602060048201526024808201527f7369676e657232206e6565647320616374697665205075626c697368657220636044820152636c61696d60e01b6064820152608490fd5b610a2a915060203d602011610a30575b610a22818361599f565b810190616562565b386107e2565b503d610a18565b6040513d8c823e3d90fd5b60405162461bcd60e51b815260206004820152602360248201527f7369676e657231206e656564732061637469766520526576696577657220636c60448201526261696d60e81b6064820152608490fd5b610aac915060203d602011610a3057610a22818361599f565b386107a9565b6040513d8d823e3d90fd5b60405162461bcd60e51b815260206004820152601960248201527f50616e656c206d656d62657273206d75737420646966666572000000000000006044820152606490fd5b60405162461bcd60e51b815260206004820152600c60248201526b24b73b30b634b21039b4b39960a11b6044820152606490fd5b60405162461bcd60e51b815260206004820152600c60248201526b496e76616c6964207369673160a01b6044820152606490fd5b50610b748b615d43565b60058b14610666565b8780fd5b8480fd5b5050fd5b503461040857610b9836615ae3565b3360009081527f8d47ebfef3ca117c8de4966d8e4564209dc0c83b261c616553d327f4eb82d081602052604090205490919060ff1615610d2757610bdb82615d43565b600482148015610d14575b610bef906164bc565b8083526010602052600160408420610c0981541515616435565b610c2c8460078301610c27600360ff835460c01c1661069f81615d43565b616474565b60088101828060a01b0333166001600160601b0360a01b825416179055610c5284615d43565b60058414610c9c575b01549060405192610c6b81615d43565b83524260208401527fd280a811f0e3161ce16bbd713865441a42715c8f3a4ec84f3542792190da848760403394a480f35b8181018054865260126020526040862063ffffffff610cbd8183541661654a565b1663ffffffff1982541617905560ff600283015460a81c169054808752601360205260ff6040882054168211610cf5575b5050610c5b565b8652601360205260ff60408720911660ff198254161790553880610cee565b50610d1e82615d43565b60058214610be6565b610e03610d3333619f6d565b610de36011610d617fd5aa6b73c122a195bdf47f267b1de59bcd09fb030b8e6f0d7cb7b9200aea355561a0ad565b9260376040519485927f416363657373436f6e74726f6c3a206163636f756e74200000000000000000006020850152610da381518092602086880191016158d2565b83017001034b99036b4b9b9b4b733903937b6329607d1b83820152610dd28251809360206048850191016158d2565b01010301601f19810183528261599f565b60405162461bcd60e51b81526020600482015291829160248301906158f5565b0390fd5b5034610408576020366003190112610408576004356001600160401b03811690818103610ea657610e3661657a565b7f942c0182da9f9792f8e5a3a990d91396ef5a02859802c13d8d3d4c54205204116060600d5493604051906001600160401b038660a01c1682526020820152426040820152a167ffffffffffffffff60a01b1990911660a09190911b67ffffffffffffffff60a01b1617600d5580f35b8280fd5b503461040857610eb936615a8d565b9190610ec36166d3565b6001600160a01b03831692610ed9841515615db7565b82855260086020526040852060088101610ef960ff825460a01c16615e4e565b610f15600660ff600485015416610f0f81615c74565b1461608e565b610f1f8386616822565b805460ff60a01b19169055825160078201906001600160401b03811161108157610f498254615bb7565b601f811161103b575b506020601f8211600114610fc15760008051602061a3388339815191529593610fa19383610fb097946003948d91610fb6575b508160011b9160001990861b1c19161790555b0154908661939a565b50604051918291429083615f59565b0390a380f35b905087015138610f85565b82895280892090601f1983168a5b81811061102357509360018460039460008051602061a3388339815191529a9894610fb09a97610fa1991061100b575b5050811b019055610f98565b89015160001983881b60f8161c191690553880610fff565b9192602060018192868c015181550194019201610fcf565b82895260208920601f830160051c81019160208410611077575b601f0160051c01905b81811061106b5750610f52565b6000815560010161105e565b9091508190611055565b634e487b7160e01b88526041600452602488fd5b503461040857806003193601126104085760206040517f0ac90c257048ef1c3e387c26d4a99bde06894efbcbff862dc1885c3a9319308a8152f35b50346104085780600319360112610408576020604051600a8152f35b5034610408576020366003190112610408576004358152601160205260408120604051908160208254918281520190819285526020852090855b81811061117d575050508261113c91038361599f565b604051928392602084019060208552518091526040840192915b818110611164575050500390f35b8251845285945060209384019390920191600101611156565b8254845260209093019260019283019201611126565b5034610408576040366003190112610408576111d96004356111b3615a4b565b906111d46111cf82600052600660205260016040600020015490565b616746565b6199cf565b80f35b503461040857602036600319011261040857600435600081815260026020526040902054611214906001600160a01b031615156161b1565b8152600a6020526040812080546001600160401b0381116112df576040519061124360208260051b018361599f565b80825260208201809385526020852085915b8383106112c157868587604051928392602084019060208552518091526040840160408260051b8601019392905b82821061129257505050500390f35b919360019193955060206112b18192603f198a82030186528851615ca3565b9601920192018594939192611283565b600860206001926112d1856161f4565b815201920192019190611255565b634e487b7160e01b83526041600452602483fd5b50346104085760203660031901126104085761130d615a35565b61131561657a565b600b80546001600160a01b039283166001600160a01b031982168117909255604051428152919216907fbc4c808a0c6b981d193f9403089f3955f9ae5d95357a1a96184aaf977741cdfd90602090a380f35b50346104085761137636615c8d565b919081526011602052604081209081548310156104085760206113998484615d9f565b90549060031b1c604051908152f35b5034610408576020366003190112610408576004356000908152600260205260409020546113e5906001600160a01b0316151561628b565b61628b565b602090806040516113f6848261599f565b525060405190611406818361599f565b6000825261141e6040519282849384528301906158f5565b0390f35b5034610408576020366003190112610408576009604060209260043561044e61044982600052600260205260018060a01b0360406000205416151590565b50346104085760803660031901126104085761147a615a35565b50611483615a4b565b506064356001600160401b0381116114ba57366023820112156114ba576114b49036906024816004013591016159db565b50615fc1565b5080fd5b5034610408576020366003190112610408576040816102609261024083516114e581615968565b82815282602082015282858201528260608201528260808201528260a08201528260c08201528260e08201528261010082015282610120820152826101408201528261016082015282610180820152826101a0820152826101c0820152826101e08201528261020082015282610220820152015260043581526010602052206040519061157182615968565b805482526001810154602083015260ff600282015460018060a01b0381166040850152818160a01c166060850152818160a81c16608085015260b01c1660a0830152600381015460c0830152600481015460e08301526005810154610100830152600681015461012083015260ff60078201546001600160401b0381166101408501526001600160401b038160401c166101608501526001600160401b038160801c16610180850152818160c01c1661162981615d43565b6101a085015260c81c1661163c81615c74565b6101c083015260018060a01b036008820154166101e083015260018060a01b0360098201541661020083015260018060a01b03600a82015416610220830152600b60018060a01b039101541661024082015260405190805182526020810151602083015260018060a01b03604082015116604083015260ff606082015116606083015260ff608082015116608083015260ff60a08201511660a083015260c081015160c083015260e081015160e08301526101008101516101008301526101208101516101208301526001600160401b03610140820151166101408301526001600160401b03610160820151166101608301526001600160401b03610180820151166101808301526101a081015161175381615d43565b6101a08301526101c081015161176881615c74565b6101c08301526101e0818101516001600160a01b03908116918401919091526102008083015182169084015261022080830151821690840152610240918201511690820152f35b503461040857806003193601126104085760206040517f190acb99f29d9641c9ad47655049f2d7c78fcbc837d62e7981d28c871f7220818152f35b503461040857602036600319011261040857600435600090815260026020526040902054611822906001600160a01b031615156161b1565b602060405160018152f35b503461040857606036600319011261040857611847615a35565b906024356001600160401b0381116114ba57611867903690600401615a17565b91611870616660565b6118846001600160a01b0382161515615db7565b611890835115156160ca565b61189d6044351515616025565b60016007540190816007556118b28282619a55565b604051936118bf8561594c565b82855260018060a01b038216602086015280604086015260443560608601528360808601524260a08601524260c0860152602093604051611900868261599f565b81815260e08701526001600160a01b0383811661010088015260016101208801819052610140880181905261016088018390528583526008875260408084208951815560208a015192810180546001600160a01b0319169390941692909217909255908701518051906001600160401b038211611c185781906119866002850154615bb7565b601f8111611ca0575b508890601f8311600114611c37578592611c2c575b50508160011b916000199060031b1c19161760028201555b606087015160038201556119e060808801516119d781615c74565b6004830161610e565b60a0870151600582015560c0870151600682015560e08701519687516001600160401b038111611c1857611a176007840154615bb7565b601f8111611bd6575b5086979884979697508990601f8311600114611b355793600a610160611ae495856040968a967f98d9eda02c8ba1a9a79a238227c60d5607047e74f0be2d9430e0be993079d9029c9a611b069c92611b2a575b50508160011b916000199060031b1c19161760078501555b61010081015160088501805461012084015160ff60a01b90151560a01b166001600160a01b039093166001600160a81b0319909116179190911790556101408101516009850155015191015586815260098a5220616126565b611af160443586866180ec565b506040519182916060835260608301906158f5565b604435828901524260408301526001600160a01b03909516940390a3604051908152f35b015190503880611a73565b906007850186528a862091865b8c601f1986168210611bbd575050610160611ae495600186611b069a967f98d9eda02c8ba1a9a79a238227c60d5607047e74f0be2d9430e0be993079d9029c9a96600a9660409a601f19811610611ba4575b505050811b016007850155611a8b565b015160001960f88460031b161c19169055388080611b94565b8383015185558c9a506001909401939283019201611b42565b600784018552888520601f830160051c81018a8410611c11575b601f830160051c82018110611c06575050611a20565b868155600101611bf0565b5080611bf0565b634e487b7160e01b84526041600452602484fd5b0151905038806119a4565b6002850186528986209250601f198416865b8b828210611c8a575050908460019594939210611c71575b505050811b0160028201556119bc565b015160001960f88460031b161c19169055388080611c61565b6001859682939686015181550195019301611c49565b909150600284018552888520601f840160051c81018a8510611ce7575b90849392915b601f830160051c82018110611cd957505061198f565b878155859450600101611cc3565b5080611cbd565b503461040857611cfd36615c8d565b908252600a602052604082208054821015610ea657611d1c9250615d83565b50805460405191611d3b83611d348160018501615bf1565b038461599f565b6002810154611dcd60405191611d5883611d348160038801615bf1565b600484015490611dba60405191611d7683611d348160058b01615bf1565b600760018060a01b0360068901541697015495611da76040519a8b9a8b5261010060208c01526101008b01906158f5565b9160408a015288820360608a01526158f5565b91608087015285820360a08701526158f5565b9160c084015260e08301520390f35b503461040857611deb36615c8d565b9190815260096020526040812090815483101561040857602060ff611e108585615d4d565b90549060031b1c1660405190611e2581615c74565b8152f35b50346104085760203660031901126104085760409060ff8260043592838152601260205263ffffffff8282205416938152601360205220541682519182526020820152f35b503461040857604036600319011261040857611e88615a35565b611e90615c7e565b6001600160a01b0390911690338214611f015733835260056020526040832082600052602052611ed08160406000209060ff801983541691151516179055565b60405190151581527f17307eab39ab6107e8899845ad3d59bd9653f200f220920489ca2b5937696c3160203392a380f35b60405162461bcd60e51b815260206004820152601960248201527f4552433732313a20617070726f766520746f2063616c6c6572000000000000006044820152606490fd5b5034610408578060031936011261040857602090604051908152f35b503461040857604036600319011261040857600435611f7f615a4b565b90611f886165ed565b6001600160a01b03821691611f9e831515615db7565b81845260086020526040842090611fbe60ff600884015460a01c16615e4e565b611fda600160ff600485015416611fd481615c74565b14615f19565b82855260086020526040852060048101805460ff1691600891600260ff1982541617905542600682015501856001600160601b0360a01b825416179055838652600960205261202d600260408820616152565b6040519061203a81615c74565b815261206d92858560008051602061a398833981519152606085600260206003980152426040820152a301549083618ef1565b507f4fe76626a61189b17bae5e81aca247e3c7ef67b7c2913a3912492ce07a3f02ae6020604051428152a380f35b634e487b7160e01b600052602160045260246000fd5b50346104085780600319360112610408576040519080600154906120d482615bb7565b808552916001811690811561216d5750600114612110575b61141e846120fc8186038261599f565b6040519182916020835260208301906158f5565b600181527fb10e2d527612073b26eecdfd717e6a320cf44b4afac2b0732d9fcbe2b7fa0cf6939250905b808210612153575090915081016020016120fc826120ec565b91926001816020925483858801015201910190929161213a565b60ff191660208087019190915292151560051b850190920192506120fc91508390506120ec565b503461040857602036600319011261040857600435816040516121b68161594c565b81815281602082015260408101606090528160608201528160808201528160a08201528160c082015260e0810160609052816101008201528161012082015281610140820152610160015261222081600052600260205260018060a01b0360406000205416151590565b612229906161b1565b81526008602052604090206040516122408161594c565b8154815260018201546001600160a01b0316602082019081526040519092908061226d8160028501615bf1565b03612278908261599f565b6040830190815260038201549160608401928352600481015460ff169260808501936122a381615c74565b845260058201549060a08601918252600683015460c0870190815260405190818060078701906122d291615bf1565b036122dd908361599f565b60e08801918252600885015493610100890197600160a01b60019003861689526101208a019560a01c60ff16151586526009870154966101408b01978852600a0154976101608b019889526040519b8c9b60208d525160208d0152600160a01b6001900390511660408c01525160608b0161018090526101a08b01612361916158f5565b945160808b01525161237281615c74565b60a08a01525160c08901525160e088015251868203601f190161010088015261239b91906158f5565b93516001600160a01b031661012086015251151561014085015251610160840152516101808301520390f35b50346104085760403660031901126104085760406123e3615a4b565b9160043581526006602052209060018060a01b0316600052602052602060ff604060002054166040519015158152f35b503461040857604036600319011261040857600435612430615a4b565b906124396166d3565b6001600160a01b038216916124af90612453841515615db7565b82855260086020526124a8604086209161247660ff600885015460a01c16615e4e565b612492600260ff60048601541661248c81615c74565b14615e92565b61249c8186616786565b60038301549085618a48565b5082619843565b7f77ada7d40ee7fdc7cf0634222587197a3fec356d27cb6f74043f7b4af7a91fc06020604051428152a380f35b503461040857806003193601126104085760206040517f4504b9dfd7400a1522f49a8b4a100552da9236849581fd59b7363eb48c6a474c8152f35b5034610408576020366003190112610408576004358152601060205260409020805490600181015490600281015460038201546004830154600584015460068501546007860154908160c01c60ff16928260c81c60ff1694600160a01b6001900360088a01541696600160a01b6001900360098b01541698600160a01b60019003600a8c0154169a600160a01b6001900390600b0154169b604051809e8152602001528c600160a01b60019003821690604001528c8160a01c60ff1690606001528c8160a81c60ff16906080015260b01c60ff1660a08d015260c08c015260e08b01526101008a01526101208901526001600160401b0381166101408901528060401c6001600160401b031661016089015260801c6001600160401b031661018088015261264481615d43565b6101a087015261265381615c74565b6101c08601526101e085015261020084015261022083015261024082015261026090f35b5034610408576060366003190112610408576004356024356008811015610ea6576126a0615a77565b918084526010602052604084206126b981541515616435565b6007810180549460ff8660c01c166126d081615d43565b80159081156128a2575b811561288e575b5015612849576001600160401b03600d5460a01c168015908115612808575b50156127c3576001600160a01b03169485156127885760ff60c01b1916600360c01b1781557fba23dac2cda7b69beaf771c84d1344af3e3c7309c5ebfd9d9d34ff1ae1d89ad39160409160019190612759908790616498565b600b810180546001600160a01b0319168817905501548151909461277c81615c74565b8152426020820152a480f35b60405162461bcd60e51b815260206004820152601360248201527210da185b1b195b99d95c881c995c5d5a5c9959606a1b6044820152606490fd5b60405162461bcd60e51b815260206004820152601760248201527f4368616c6c656e67652077696e646f7720636c6f7365640000000000000000006044820152606490fd5b90506001600160401b038716016001600160401b038111612835576001600160401b031642111538612700565b634e487b7160e01b88526011600452602488fd5b60405162461bcd60e51b815260206004820152601860248201527f416374696f6e206e6f74206368616c6c656e676561626c6500000000000000006044820152606490fd5b6001915061289b81615d43565b14386126e1565b90506128ad81615d43565b60028114906126da565b50346104085760203660031901126104085760406020916004358152601583522054604051908152f35b50346104085760403660031901126104085760043560088110156114ba5760243591600883101561040857602061291884846162fa565b6040519015158152f35b50346104085761293136615a8d565b919061293b6165ed565b6001600160a01b03831692612951841515615db7565b8285526008602052604085206008810161297160ff825460a01c16615e4e565b612987600160ff600485015416611fd481615c74565b84875260086020526040872060048101805460ff1691600891600360ff1982541617905542600682015501876001600160601b0360a01b82541617905585885260096020526129da600360408a20616152565b604051906129e781615c74565b81528560008051602061a398833981519152606083600360208c960152426040820152a3805460ff60a01b19169055825160078201906001600160401b03811161108157612a358254615bb7565b601f8111612b36575b506020601f8211600114612aaa577fb9ab412827fecd3979c2257c01d85e46220fffa28f2b46293ccbf86bf862425f9593610fa19383610fb097946003948d91612a9f575b508160011b9160001990861b1c19161790555b0154908661859f565b905087015138612a83565b82895280892090601f1983168a5b818110612b1e5750936001846003947fb9ab412827fecd3979c2257c01d85e46220fffa28f2b46293ccbf86bf862425f9a9894610fb09a97610fa19910612b06575b5050811b019055612a96565b89015160001983881b60f8161c191690553880612afa565b9192602060018192868c015181550194019201612ab8565b82895260208920601f830160051c81019160208410612b71575b601f0160051c01905b818110612b665750612a3e565b898155600101612b59565b9091508190612b50565b503461040857806003193601126104085760206040517fa49807205ce4d355092ef5a8a18f56e8913cf4a201fbe287825b095693c217758152f35b503461040857602036600319011261040857600435600081815260026020526040902054612bee906001600160a01b031615156161b1565b81526008602052600a604082200154600a0390600a8211612c1457602082604051908152f35b634e487b7160e01b81526011600452602490fd5b5034610408576020366003190112610408576001600160a01b03612c4a615a35565b168015612c67578160409160209352600383522054604051908152f35b60405162461bcd60e51b815260206004820152602960248201527f4552433732313a2061646472657373207a65726f206973206e6f7420612076616044820152683634b21037bbb732b960b91b6064820152608490fd5b503461040857604036600319011261040857612cd8615a35565b612ce0615a4b565b90612ce961657a565b60018060a01b03166001600160601b0360a01b600c541617600c5560018060a01b03166001600160601b0360a01b600d541617600d5580f35b5034610408576020366003190112610408576020612d416004356162d7565b6040516001600160a01b039091168152f35b503461040857806003193601126104085761141e6120fc615d20565b503461040857612d7e36615c8d565b918060e0604051612d8e8161591a565b82815260606020820152826040820152606080820152826080820152606060a08201528260c08201520152612ddb61044983600052600260205260018060a01b0360406000205416151590565b818152600a6020526040812054831015612e245761141e92604082612e1094612e0a9452600a60205220615d83565b506161f4565b604051918291602083526020830190615ca3565b60405162461bcd60e51b8152602060048201526016602482015275092dcecc2d8d2c840e4caecd2e6d2dedc40d2dcc8caf60531b6044820152606490fd5b5034610408578060031936011261040857600d546040516001600160a01b039091168152602090f35b50346104085760203660031901126104085763ffffffff6040602092600435815260128452205416604051908152f35b50346104085780600319360112610408576020600754604051908152f35b503461040857602036600319011261040857600435600081815260026020526040902054612f11906001600160a01b031615156161b1565b8152600960205260408120604051808160208454928381520180948652602086209286905b80601f8301106134915761304f945491818110613474575b818110613454575b818110613434575b818110613414575b8181106133f5575b8181106133d5575b8181106133b5575b818110613395575b818110613375575b818110613355575b818110613335575b818110613315575b8181106132f5575b8181106132d5575b8181106132b5575b818110613295575b818110613275575b818110613255575b818110613235575b818110613215575b8181106131f5575b8181106131d5575b8181106131b5575b818110613195575b818110613175575b818110613155575b818110613135575b818110613115575b8181106130f5575b8181106130d5575b8181106130b5575b1061309c575b50939293038361599f565b604051928392602084019060208552518091526040840192915b818110613077575050500390f35b91935091602080600192865161308c81615c74565b8152019401910191849392613069565b9060209160f81c6130ac81615c74565b81520138613044565b92602060019160ff8560f01c166130cb81615c74565b815201930161303e565b92602060019160ff8560e81c166130eb81615c74565b8152019301613036565b92602060019160ff8560e01c1661310b81615c74565b815201930161302e565b92602060019160ff8560d81c1661312b81615c74565b8152019301613026565b92602060019160ff8560d01c1661314b81615c74565b815201930161301e565b92602060019160ff8560c81c1661316b81615c74565b8152019301613016565b92602060019160ff8560c01c1661318b81615c74565b815201930161300e565b92602060019160ff8560b81c166131ab81615c74565b8152019301613006565b92602060019160ff8560b01c166131cb81615c74565b8152019301612ffe565b92602060019160ff8560a81c166131eb81615c74565b8152019301612ff6565b92602060019160ff8560a01c1661320b81615c74565b8152019301612fee565b92602060019160ff8560981c1661322b81615c74565b8152019301612fe6565b92602060019160ff8560901c1661324b81615c74565b8152019301612fde565b92602060019160ff8560881c1661326b81615c74565b8152019301612fd6565b92602060019160ff8560801c1661328b81615c74565b8152019301612fce565b92602060019160ff8560781c166132ab81615c74565b8152019301612fc6565b92602060019160ff8560701c166132cb81615c74565b8152019301612fbe565b92602060019160ff8560681c166132eb81615c74565b8152019301612fb6565b92602060019160ff8560601c1661330b81615c74565b8152019301612fae565b92602060019160ff8560581c1661332b81615c74565b8152019301612fa6565b92602060019160ff8560501c1661334b81615c74565b8152019301612f9e565b92602060019160ff8560481c1661336b81615c74565b8152019301612f96565b92602060019160ff8560401c1661338b81615c74565b8152019301612f8e565b92602060019160ff8560381c166133ab81615c74565b8152019301612f86565b92602060019160ff8560301c166133cb81615c74565b8152019301612f7e565b92602060019160ff8560281c166133eb81615c74565b8152019301612f76565b92602060019160ff85831c1661340a81615c74565b8152019301612f6e565b92602060019160ff8560181c1661342a81615c74565b8152019301612f66565b92602060019160ff8560101c1661344a81615c74565b8152019301612f5e565b92602060019160ff8560081c1661346a81615c74565b8152019301612f56565b92602060019160ff851661348781615c74565b8152019301612f4e565b916020919350610400600191865460ff81166134ac81615c74565b825260ff8160081c166134be81615c74565b8583015260ff8160101c166134d281615c74565b604083015260ff8160181c166134e781615c74565b606083015260ff81861c166134fb81615c74565b608083015260ff8160281c1661351081615c74565b60a083015260ff8160301c1661352581615c74565b60c083015260ff8160381c1661353a81615c74565b60e083015260ff8160401c1661354f81615c74565b61010083015260ff8160481c1661356581615c74565b61012083015260ff8160501c1661357b81615c74565b61014083015260ff8160581c1661359181615c74565b61016083015260ff8160601c166135a781615c74565b61018083015260ff8160681c166135bd81615c74565b6101a083015260ff8160701c166135d381615c74565b6101c083015260ff8160781c166135e981615c74565b6101e083015260ff8160801c166135ff81615c74565b61020083015260ff8160881c1661361581615c74565b61022083015260ff8160901c1661362b81615c74565b61024083015260ff8160981c1661364181615c74565b61026083015260ff8160a01c1661365781615c74565b61028083015260ff8160a81c1661366d81615c74565b6102a083015260ff8160b01c1661368381615c74565b6102c083015260ff8160b81c1661369981615c74565b6102e083015260ff8160c01c166136af81615c74565b61030083015260ff8160c81c166136c581615c74565b61032083015260ff8160d01c166136db81615c74565b61034083015260ff8160d81c166136f181615c74565b61036083015260ff8160e01c1661370781615c74565b61038083015260ff8160e81c1661371d81615c74565b6103a083015260ff8160f01c1661373381615c74565b6103c083015260f81c61374581615c74565b6103e0820152019401920184929391612f36565b503461040857806003193601126104085760206040517fd5aa6b73c122a195bdf47f267b1de59bcd09fb030b8e6f0d7cb7b9200aea35558152f35b5034610408578060031936011261040857600c546040516001600160a01b039091168152602090f35b50346104085760e0366003190112610408576137d7615a35565b906024356001600160401b0381116114ba576137f7903690600401615b02565b9290916044356001600160401b0381116114ba57613819903690600401615b02565b9091600660a43510156104085760c43580151581036114ba5761383a616660565b600c546001600160a01b031615613edd57600d54613862906001600160a01b03161515615f75565b6138766001600160a01b0386161515615db7565b6138818315156160ca565b61388e6064351515616025565b8615613ea85760016007540195866007556138a98787619a55565b6040516138b58161594c565b8781526001600160a01b03871660208201526138d23686886159db565b604082015260643560608201528360808201524260a08201524260c08201526000608052608051506080515060206080526040516139126080518261599f565b84815260e08201526001600160a01b03878116610100830152600161012083018190526101408301819052610160830186905289865260805160089052604080872084518155602085015192810180546001600160a01b0319169390941692909217909255908201518051919291906001600160401b038211613dcb57819061399e6002860154615bb7565b601f8111613e56575b5060805190601f8311600114613dea578892613ddf575b50508160011b916000199060031b1c19161760028301555b606081015160038301556139fa60808201516139f181615c74565b6004840161610e565b60a0810151600583015560c0810151600683015560e08101518051906001600160401b038211613dcb57613a316007850154615bb7565b601f8111613d85575b5060805190601f8311600114613d10579180600a9492610160948a92613d05575b50508160011b916000199060031b1c19161760078501555b61010081015160088501805461012084015160ff60a01b90151560a01b166001600160a01b039093166001600160a81b03199091161791909117905561014081015160098501550151910155868352600960805152613ad460408420616126565b613ae160643587896180ec565b50600c54604080516302dd5b3360e21b81526004810191909152989084908a906001600160a01b0316818381613b1b60448201888a616190565b6001600160a01b038e16602483015203925af1988915613cfa578499613c6f575b5090613b499136916159db565b805160805190910120600d546001600160a01b03169190823b15610516579060c484928360405195869485936306efdd1160e11b85528d600486015260248501526084356044850152613b9d60a435615d43565b60a48035606486015290151560848501526001600160a01b038c16908401525af18015613c6457908694939291613c47575b5050907f98d9eda02c8ba1a9a79a238227c60d5607047e74f0be2d9430e0be993079d90291613c0b604051928392606084526060840191616190565b608051606435908301524260408301526001600160a01b03909516940390a361141e6040519283928352604060805184015260408301906158f5565b818093949550613c569161599f565b610408579081859392613bcf565b6040513d84823e3d90fd5b9098503d8085833e613c81818361599f565b81019060805181830312610b81578051906001600160401b038211613cf6570181601f82011215610b8157805190613cb8826159c0565b92613cc6604051948561599f565b8284526080518383010111613cf657613b49939291613cee91608051840190608051016158d2565b989091613b3c565b8580fd5b6040513d86823e3d90fd5b015190503880613a5b565b90600785018852608051882091885b601f1985168110613d6c575092600a94926001926101609583601f19811610613d53575b505050811b016007850155613a73565b015160001960f88460031b161c19169055388080613d43565b8183015184556080516001909401939283019201613d1f565b6007850188526080518820601f840160051c81016080518510613dc4575b601f830160051c82018110613db9575050613a3a565b898155600101613da3565b5080613da3565b634e487b7160e01b87526041600452602487fd5b0151905038806139be565b60028601895260805189209250601f198416895b818110613e3d5750908460019594939210613e24575b505050811b0160028301556139d6565b015160001960f88460031b161c19169055388080613e14565b8284015185556080516001909501949384019301613dfe565b9091506002850188526080518820601f840160051c81016080518510613ea1575b90849392915b601f830160051c82018110613e935750506139a7565b8a8155859450600101613e7d565b5080613e77565b60405162461bcd60e51b815260206004820152600d60248201526c13985b59481c995c5d5a5c9959609a1b6044820152606490fd5b60405162461bcd60e51b815260206004820152601c60248201527f4e616d65207265676973747279206e6f7420636f6e66696775726564000000006044820152606490fd5b503461040857604036600319011261040857600435613f3f615a4b565b90613f48616660565b6001600160a01b03821691613f5e831515615db7565b81845260086020526040842090613f7e60ff600884015460a01c16615e4e565b60ff600483015416613f8f81615c74565b801580156140a3575b1561405e5783865260086020526040862060048101805460ff1691600891600160ff1982541617905542600682015501866001600160601b0360a01b8254161790558487526009602052613ff0600160408920616152565b60405190613ffd81615c74565b815261403093868660008051602061a398833981519152606085600160206003980152426040820152a301549184617c29565b507f41dabce672272504354cc02f47d8e4014abcc97eee2c1ae603bada0494d8b6976020604051428152a380f35b60405162461bcd60e51b815260206004820152601d60248201527f496e76616c69642073746174757320666f72207375626d697373696f6e0000006044820152606490fd5b506140ad81615c74565b60058114613f98565b50346104085780600319360112610408576020600f54604051908152f35b615b75565b50346104085760203660031901126104085760043581526008602052604090208054600160a01b60019003600183015416916040518080600284019061411e91615bf1565b03614129908261599f565b600382015460048301546005840154600685015460405160ff909316959391836141568160078801615bf1565b03614161908561599f565b600885015496600986015495600a0154966040519a8b9a8b5260208b015260408a0161018090526101808a01614196916158f5565b9360608a01526141a581615c74565b608089015260a088015260c087015285810360e08701526141c5916158f5565b92600160a01b60019003811661010086015260a01c60ff1615156101208501526101408401526101608301520390f35b5034610408576080366003190112610408576004356024356001600160401b038111610ea657614229903690600401615a17565b906044356001600160401b03811161051657614249903690600401615a17565b6064356001600160a01b038116939190848103613cf65761426861657a565b614273851515615db7565b614281600a83511015615df4565b838652600860205260408620600881016142a160ff825460a01c16615e4e565b6142b7600660ff600485015416610f0f81615c74565b6142c18387616822565b805460ff60a01b19169055835160078201906001600160401b0381116144e25791818895936142f289969454615bb7565b601f8111614485575b5060208b601f83116001146143d3579460037f1c6f8bc64f1563889568b9b084045697a4e0dc93bae626911d22b7d952a5c480956143b19585610fb09c9a966143729660008051602061a3388339815191529f9d9b916143c8575b508160011b9160001990861b1c19161790555b01549086617784565b50604051918291606083526013606084015272454d455247454e43595f44455052454341544560681b608084015260a0602084015260a08301906158f5565b4260408301520390a3604051918291429083615f59565b90508c015138614356565b509796959493929190601f198116828d52898d20908d5b81811061446757506143b1948a999897946001857f1c6f8bc64f1563889568b9b084045697a4e0dc93bae626911d22b7d952a5c480999560008051602061a3388339815191529f610fb09f614372996003981061444f575b505050811b019055614369565b015160001983881b60f8161c1916905538808e614442565b8a8c0151835560209b8c019b8e9a508d9950600190930192016143ea565b9193955091939550828a5260208a20601f830160051c810191602084106144d8575b918a97959391601f8b9896940160051c01905b8181106144c757506142fb565b8c81558b98508a97506001016144ba565b90915081906144a7565b634e487b7160e01b89526041600452602489fd5b50346104085760203660031901126104085760ff6040602092600435815260138452205416604051908152f35b50346104085760403660031901126104085761453d615a4b565b336001600160a01b03821603614559576111d9906004356199cf565b60405162461bcd60e51b815260206004820152602f60248201527f416363657373436f6e74726f6c3a2063616e206f6e6c792072656e6f756e636560448201526e103937b632b9903337b91039b2b63360891b6064820152608490fd5b50346104085760a0366003190112610408576024356001600160401b0381116114ba576145e7903690600401615a17565b6064356001600160401b038111610ea657614606903690600401615a17565b61460e615a61565b90614617616660565b61462b6001600160a01b0383161515615db7565b600435845260086020526040842061464c60ff600883015460a01c16615e4e565b600460ff818301541661465e81615c74565b03614f10576146706044351515616025565b600a810154600a811015614ecb576004358652600a602052604086209060018101809111614eb757600383015491604051916146ab8361591a565b8252604051926146c9846146c28160028901615bf1565b038561599f565b60208301938452604083015260608201879052604435608083015260a082018590526001600160a01b03861660c08301524260e0830152805490600160401b8210156144e2579061471f91600182018155615d83565b929092614ea35781518355518051906001600160401b0382116144e257819061474b6001860154615bb7565b601f8111614e53575b50602090601f8311600114614dea578a92614ddf575b50508160011b916000199060031b1c19161760018301555b6040810151600283015560608101518051906001600160401b0382116144e25781906147b16003860154615bb7565b601f8111614d8f575b50602090601f8311600114614d26578a92614d1b575b50508160011b916000199060031b1c19161760038301555b6080810151600483015560a08101518051906001600160401b0382116144e2576148156005850154615bb7565b601f8111614cd7575b50602090601f8311600114614c695791806007949260e0948c92614c5e575b50508160011b916000199060031b1c19161760058501555b60c08101516006850180546001600160a01b0319166001600160a01b03929092169190911790550151910155600a81015460018101908110614c4a5760038201546040519182526020820152604435604082015242606082015260018060a01b038416907fd34d6ac79ecbff71da7a2fd3892e8db8c15ee8768b6012b457b91ceb66719c59608060043592a383516001600160401b038111614c36576148fe6002830154615bb7565b601f8111614bee575b50806020601f8211600114614b87578791614b7c575b508160011b916000199060031b1c19161760028201555b60443560038201556007810182516001600160401b038111613dcb5761495a8254615bb7565b601f8111614b37575b50806020601f8211600114614ad6578891614acb575b508160011b916000199060031b1c19161790555b6009810161499b8154616069565b9055600a6149ab81830154616069565b910155600480358552600860205260408520908101805460ff1691815460ff1916600590811790925542600682015560080180546001600160a01b0319166001600160a01b0386161790556004358652600960205260408620614a0e9190616152565b60405190614a1b81615c74565b8152600560208201524260408201527e83c71c25958135d96c2ae3d5db0f3312327517d42a6ff0347889217a3b11e391614aad916001600160a01b038516906004359060008051602061a39883398151915290606090a3614a81604435856004356172db565b50614a97604051956080875260808701906158f5565b90604435602087015285820360408701526158f5565b4260608501526001600160a01b03909216926004359281900390a380f35b905084015138614979565b8389528089209150601f198316895b818110614b1f57509083600194939210614b06575b5050811b01905561498d565b86015160001960f88460031b161c191690553880614afa565b9192602060018192868b015181550194019201614ae5565b82885260208820601f830160051c81019160208410614b72575b601f0160051c01905b818110614b675750614963565b888155600101614b5a565b9091508190614b51565b90508501513861491d565b6002840188528088209150601f198316885b818110614bd657509083600194939210614bbd575b5050811b016002820155614934565b87015160001960f88460031b161c191690553880614bae565b9192602060018192868c015181550194019201614b99565b60028301875260208720601f830160051c81019160208410614c2c575b601f0160051c01905b818110614c215750614907565b878155600101614c14565b9091508190614c0b565b634e487b7160e01b86526041600452602486fd5b634e487b7160e01b86526011600452602486fd5b01519050388061483d565b600585018a52818a209190601f1984168b5b818110614cbf575092600192859260e0966007989610614ca6575b505050811b016005850155614855565b015160001960f88460031b161c19169055388080614c96565b92936020600181928786015181550195019301614c7b565b600585018a5260208a20601f840160051c810160208510614d14575b601f830160051c82018110614d0957505061481e565b8b8155600101614cf3565b5080614cf3565b0151905038806147d0565b600386018b52818b209250601f1984168b5b818110614d775750908460019594939210614d5e575b505050811b0160038301556147e8565b015160001960f88460031b161c19169055388080614d4e565b92936020600181928786015181550195019301614d38565b909150600385018a5260208a20601f840160051c810160208510614dd8575b90849392915b601f830160051c82018110614dca5750506147ba565b8c8155859450600101614db4565b5080614dae565b01519050388061476a565b600186018b52818b209250601f1984168b5b818110614e3b5750908460019594939210614e22575b505050811b016001830155614782565b015160001960f88460031b161c19169055388080614e12565b92936020600181928786015181550195019301614dfc565b909150600185018a5260208a20601f840160051c810160208510614e9c575b90849392915b601f830160051c82018110614e8e575050614754565b8c8155859450600101614e78565b5080614e72565b634e487b7160e01b88526004889052602488fd5b634e487b7160e01b87526011600452602487fd5b60405162461bcd60e51b815260206004820152601960248201527f4d6178696d756d207265766973696f6e732072656163686564000000000000006044820152606490fd5b60405162461bcd60e51b815260206004820152601660248201527514995d9a5cda5bdb881b9bdd081c995c5d595cdd195960521b6044820152606490fd5b503461040857602036600319011261040857614f68615a35565b614f7061657a565b601480546001600160a01b039283166001600160a01b031982168117909255604051428152919216907f8966ec367d66799725a8cb26129c56cfa790f3c3af5f3f8dcb39f6a0361a715690602090a380f35b503461040857604036600319011261040857600435614fdf615a4b565b90614ffb6111cf82600052600660205260016040600020015490565b80835260066020526040832060018060a01b03831660005260205260ff6040600020541615615028578280f35b8083526006602090815260408085206001600160a01b0394909416600081815294909252909220805460ff191660011790553391907f2f8788117e7eff1d82e926ec794901d17c78024a50270940304540a733656f0d8480a438808280f35b50346104085760203660031901126104085760206150b5600435600052600660205260016040600020015490565b604051908152f35b5034610408576150d08161047236615b2f565b6020815191012091803b1561051657604051630ff7a9b560e21b8152600481019390935260248301949094526001600160a01b031660448201529181908390606490829084905af18015610509576151255780f35b61512e9161599f565b388180f35b503461040857806003193601126104085760206001600160401b03600d5460a01c16604051908152f35b50346104085761516c36615a8d565b91906151766165ed565b6001600160a01b0383169261518c841515615db7565b8285526008602052604085206151ab60ff600883015460a01c16615e4e565b6151c1600160ff600484015416611fd481615c74565b83865260086020526040862060048101805460ff1691600891600460ff1982541617905542600682015501866001600160601b0360a01b8254161790558487526009602052615214600460408920616152565b6040519061522181615c74565b81528460008051602061a398833981519152606083600460208b960152426040820152a36007810183516001600160401b038111611081576152638254615bb7565b601f8111615364575b506020601f82116001146152d8577f933d33a998223924fbc9cb10c02e84433c84240851fea5c848928195fd2390119593610fa19383610fb097946003948d916152cd575b508160011b9160001990861b1c19161790555b01549086616e32565b9050870151386152b1565b82895280892090601f1983168a5b81811061534c5750936001846003947f933d33a998223924fbc9cb10c02e84433c84240851fea5c848928195fd2390119a9894610fb09a97610fa19910615334575b5050811b0190556152c4565b89015160001983881b60f8161c191690553880615328565b9192602060018192868c0151815501940192016152e6565b82895260208920601f830160051c8101916020841061539f575b601f0160051c01905b818110615394575061526c565b898155600101615387565b909150819061537e565b50346104085760206153e06106cb6153c036615ae3565b6153cc81949294615d43565b604051928391868301953091469188615ece565b519020604051908152f35b50346104085760203660031901126104085760ff60406020928261540d615ad3565b168152600e84522054166040519015158152f35b5034610408578060031936011261040857600b546040516001600160a01b039091168152602090f35b50346104085780600319360112610408576014546040516001600160a01b0390911615158152602090f35b50346104085760403660031901126104085761548f615a35565b602435906001600160a01b036154a4836162d7565b6001600160a01b0390921691168181146155aa57803314908115615589575b501561551e5781835260046020526040832080546001600160a01b031916821790556001600160a01b036154f6836162d7565b167f8c5be1e5ebec7d5bd14f71427d1e84f3dd0314c0f7b2291e5b200ac8c7c3b9258480a480f35b60405162461bcd60e51b815260206004820152603d60248201527f4552433732313a20617070726f76652063616c6c6572206973206e6f7420746f60448201527f6b656e206f776e6572206f7220617070726f76656420666f7220616c6c0000006064820152608490fd5b84525060056020908152604080852033865290915283205460ff16386154c3565b60405162461bcd60e51b815260206004820152602160248201527f4552433732313a20617070726f76616c20746f2063757272656e74206f776e656044820152603960f91b6064820152608490fd5b5034610408576156b97f1c6f8bc64f1563889568b9b084045697a4e0dc93bae626911d22b7d952a5c4806156f561562f36615a8d565b9282949161563b61657a565b6001600160a01b038516968795615653871515615db7565b615661600a84511015615df4565b858a5260086020526156b260408b209161568460ff600885015460a01c16615e4e565b600483015461569c9060029060ff1661248c81615c74565b6156a68189616786565b600383015490886168d3565b5085619843565b60405191829160608352601160608401527008a9a8aa48e8a9c86b2bea0aa849892a69607b1b608084015260a0602084015260a08301906158f5565b4260408301520390a37f77ada7d40ee7fdc7cf0634222587197a3fec356d27cb6f74043f7b4af7a91fc06020604051428152a380f35b5034610408576020366003190112610408576020906004356157656113e082600052600260205260018060a01b0360406000205416151590565b815260048252604060018060a01b0391205416604051908152f35b503461040857806003193601126104085760405190808054906157a282615bb7565b808552916001811690811561216d57506001146157c95761141e846120fc8186038261599f565b80805260208120939250905b8082106157ee575090915081016020016120fc826120ec565b9192600181602092548385880101520191019092916157d5565b50346104085780600319360112610408576014546040516001600160a01b039091168152602090f35b9050346114ba5760203660031901126114ba5760043563ffffffff60e01b8116809103610ea65760209250635a2d1e0760e11b8114908115615875575b5015158152f35b637965db0b60e01b81149150811561588f575b503861586e565b6380ac58cd60e01b8114915081156158c1575b81156158b0575b5038615888565b6301ffc9a760e01b149050386158a9565b635b5e139f60e01b811491506158a2565b60005b8381106158e55750506000910152565b81810151838201526020016158d5565b9060209161590e815180928185528580860191016158d2565b601f01601f1916010190565b61010081019081106001600160401b0382111761593657604052565b634e487b7160e01b600052604160045260246000fd5b61018081019081106001600160401b0382111761593657604052565b61026081019081106001600160401b0382111761593657604052565b60e081019081106001600160401b0382111761593657604052565b90601f801991011681019081106001600160401b0382111761593657604052565b6001600160401b03811161593657601f01601f191660200190565b9291926159e7826159c0565b916159f5604051938461599f565b829481845281830111615a12578281602093846000960137010152565b600080fd5b9080601f83011215615a1257816020615a32933591016159db565b90565b600435906001600160a01b0382168203615a1257565b602435906001600160a01b0382168203615a1257565b608435906001600160a01b0382168203615a1257565b604435906001600160a01b0382168203615a1257565b906060600319830112615a125760043591602435906001600160401b038211615a1257615abc91600401615a17565b906044356001600160a01b0381168103615a125790565b6004359060ff82168203615a1257565b6040906003190112615a1257600435906024356006811015615a125790565b9181601f84011215615a12578235916001600160401b038311615a125760208381860195010111615a1257565b6060600319820112615a1257600435906001600160401b038211615a1257615b5991600401615b02565b9091602435906044356001600160a01b0381168103615a125790565b34615a12576000606036600319011261040857600435906001600160a01b03821682036104085750506024356001600160a01b0381168103615a125750615fc1565b90600182811c92168015615be7575b6020831014615bd157565b634e487b7160e01b600052602260045260246000fd5b91607f1691615bc6565b60009291815491615c0183615bb7565b8083529260018116908115615c575750600114615c1d57505050565b60009081526020812093945091925b838310615c3d575060209250010190565b600181602092949394548385870101520191019190615c2c565b915050602093945060ff929192191683830152151560051b010190565b6008111561209b57565b602435908115158203615a1257565b6040906003190112615a12576004359060243590565b908151815260e080615d04615ce8615ccc602087015161010060208801526101008701906158f5565b60408701516040870152606087015186820360608801526158f5565b6080860151608086015260a086015185820360a08701526158f5565b60c0808601516001600160a01b03169085015293015191015290565b60405190615d2f60408361599f565b60058252640312e302e360dc1b6020830152565b6006111561209b57565b9190918054831015615d6d57600052601f60206000208360051c01921690565b634e487b7160e01b600052603260045260246000fd5b8054821015615d6d5760005260206000209060031b0190600090565b8054821015615d6d5760005260206000200190600090565b15615dbe57565b60405162461bcd60e51b815260206004820152600e60248201526d1058dd1bdc881c995c5d5a5c995960921b6044820152606490fd5b15615dfb57565b60405162461bcd60e51b815260206004820152602560248201527f4a757374696669636174696f6e20726571756972656420286d696e2031302063604482015264686172732960d81b6064820152608490fd5b15615e5557565b60405162461bcd60e51b81526020600482015260156024820152744d6f64656c2063617264206e6f742061637469766560581b6044820152606490fd5b15615e9957565b60405162461bcd60e51b815260206004820152600d60248201526c139bdd081d985b1a59185d1959609a1b6044820152606490fd5b929091606394926d534d41525450616e656c566f746560901b8552600e85015260ff60f81b9060f81b16602e840152602f8301526001600160601b03199060601b16604f8201520190565b15615f2057565b60405162461bcd60e51b81526020600482015260116024820152702737ba1034b71032bb30b63ab0ba34b7b760791b6044820152606490fd5b929190615f706020916040865260408601906158f5565b930152565b15615f7c57565b60405162461bcd60e51b815260206004820152601f60248201527f56657273696f6e207265676973747279206e6f7420636f6e66696775726564006044820152606490fd5b60405162461bcd60e51b815260206004820152603660248201527f534d4152544c6966656379636c653a20536f756c626f756e6420746f6b656e736044820152750818d85b9b9bdd081899481d1c985b9cd9995c9c995960521b6064820152608490fd5b1561602c57565b60405162461bcd60e51b815260206004820152601560248201527410dbdb9d195b9d081a185cda081c995c5d5a5c9959605a1b6044820152606490fd5b60001981146160785760010190565b634e487b7160e01b600052601160045260246000fd5b1561609557565b60405162461bcd60e51b815260206004820152600d60248201526c139bdd081c1d589b1a5cda1959609a1b6044820152606490fd5b156160d157565b60405162461bcd60e51b815260206004820152601560248201527413595d1859185d1848155492481c995c5d5a5c9959605a1b6044820152606490fd5b9061611881615c74565b60ff80198354169116179055565b8054600160401b8110156159365761614391600182018155615d4d565b60ff82549160031b1b19169055565b8054600160401b8110156159365761616f91600182018155615d4d565b61617a839293615c74565b60ff8084549260031b9316831b921b1916179055565b908060209392818452848401376000828201840152601f01601f1916010190565b156161b857565b60405162461bcd60e51b8152602060048201526014602482015273151bdad95b88191bd95cc81b9bdd08195e1a5cdd60621b6044820152606490fd5b906040516162018161591a565b60e060078294805484526040516162268161621f8160018601615bf1565b038261599f565b6020850152600281015460408501526040516162498161621f8160038601615bf1565b60608501526004810154608085015260405161626c8161621f8160058601615bf1565b60a085015260068101546001600160a01b031660c08501520154910152565b1561629257565b60405162461bcd60e51b815260206004820152601860248201527f4552433732313a20696e76616c696420746f6b656e20494400000000000000006044820152606490fd5b6000908152600260205260409020546001600160a01b0316615a3281151561628b565b61630381615c74565b801580616422575b6163a25761631881615c74565b60018114806163e2575b6163a25761632f81615c74565b60048114806163cf575b6163a25761634681615c74565b60058114806163bc575b6163a25761635d81615c74565b60028114806163a9575b6163a25760069061637781615c74565b14908161638e575b5061638957600090565b600190565b6007915061639b81615c74565b143861637f565b5050600190565b506163b382615c74565b60068214616367565b506163c682615c74565b60018214616350565b506163d982615c74565b60058214616339565b506163ec82615c74565b60028214801561640f575b80616322575061640682615c74565b60048214616322565b5061641982615c74565b600382146163f7565b5061642c82615c74565b6001821461630b565b1561643c57565b60405162461bcd60e51b815260206004820152601060248201526f1058dd1a5bdb881b9bdd08199bdd5b9960821b6044820152606490fd5b9061647e81615d43565b815460ff60c01b191660c09190911b60ff60c01b16179055565b906164a281615c74565b815460ff60c81b191660c89190911b60ff60c81b16179055565b156164c357565b60405162461bcd60e51b815260206004820152601e60248201527f46696e616c20737461747573206d757374206265205265736f6c7665642a00006044820152606490fd5b1561650f57565b60405162461bcd60e51b81526020600482015260136024820152721058dd1a5bdb881b9bdd08191a5cdc1d5d1959606a1b6044820152606490fd5b63ffffffff60019116019063ffffffff821161607857565b90816020910312615a1257518015158103615a125790565b3360009081527f0c3bb05773fb95f6688e1e7d9c896674dccd66884026cf30a3d5e3a9bfecd811602052604090205460ff16156165b357565b610e036165bf33619f6d565b610de36011610d617fa49807205ce4d355092ef5a8a18f56e8913cf4a201fbe287825b095693c2177561a0ad565b3360009081527fcb9a546047d75ec2db76b29f61f0d628cc199e37d156f8ce27f1387d8ec2dc74602052604090205460ff161561662657565b610e0361663233619f6d565b610de36011610d617f190acb99f29d9641c9ad47655049f2d7c78fcbc837d62e7981d28c871f72208161a0ad565b3360009081527ffead84c08bd09f9955c90b2454a5722192ba2a861f54f166abf57f21e54b8dad602052604090205460ff161561669957565b610e036166a533619f6d565b610de36011610d617f4504b9dfd7400a1522f49a8b4a100552da9236849581fd59b7363eb48c6a474c61a0ad565b3360009081527f3edfdc02692f4347a3b78c7908b3f4fabea1e2f8de294fe885b957f38dc9e300602052604090205460ff161561670c57565b610e0361671833619f6d565b610de36011610d617f0ac90c257048ef1c3e387c26d4a99bde06894efbcbff862dc1885c3a9319308a61a0ad565b600081815260066020908152604080832033845290915290205460ff161561676b5750565b610e0390610de36011610d6161678033619f6d565b9361a0ad565b600081815260086020526040902060048101805460ff169391815460ff19166006908117909255428183015560080180546001600160a01b0319166001600160a01b03841617905560008381526009602052604090206167e69190616152565b604051926167f381615c74565b8352600660208401524260408401526001600160a01b03169160008051602061a39883398151915290606090a3565b600081815260086020526040902060048101805460ff169391815460ff1916600790811790925542600682015560080180546001600160a01b0319166001600160a01b03841617905560008381526009602052604090206168839190616152565b6040519261689081615c74565b8352600760208401524260408401526001600160a01b03169160008051602061a39883398151915290606090a3565b51906001600160401b0382168203615a1257565b929190926168e16008619c29565b936000946040516168f181615984565b8681526020810187905260408101879052606081018790526080810187905260a0810187905260c001869052600b546001600160a01b0316801591908215616d4c57506040519061694182615984565b87825287602083015260018060a01b038416604083015260608201528660808201528660a08201528660c0820152955b506008600052600e6020527feab6bc3746954d8a0719de62c86ea908d362be2a58c781ada1046727253f9df25460ff16616d09575b855115616cf457506000905b6169bd600f54616069565b600f8190559586929060008151602083015160608401516001600160401b0360c08601511691604051936169f085615968565b898552602085018b90526001600160a01b03891660408601526002606086015260066080860152600860a086015260c085018c905260e08501526101008401526101208301526001600160401b034281166101408401524316610160830152610180820152616a5e84615d43565b836101a0820152816101c0820152816101e08201528161020082015281610220820152816102408201528582526010602052600b604083209180518355602081015160018401556002830160018060a01b0360018060a01b03604084015116166001600160601b0360a01b8254161781556060820151815460ff60a81b608085015160a81b169060ff60b01b60a086015160b01b169260ff60a01b9060a01b169062ffffff60a01b1916171717905560c0810151600384015560e0810151600484015561010081015160058401556101208101516006840155616bbb600784016001600160401b036101408401511681549067ffffffffffffffff60401b61016086015160401b16906001600160401b0360801b61018087015160801b16926001600160401b0360c01b161717178155616ba66101a0840151616ba081615d43565b82616474565b6101c083015190616bb682615c74565b616498565b6101e08101516008840180546001600160a01b03199081166001600160a01b03938416179091556102008301516009860180548316918416919091179055610220830151600a8601805483169184169190911790556102409092015192909301805490911691909216179055858152601160205260408120805490600160401b8210156112df57616c568288926001616c6f95018155615d9f565b90919082549060031b91821b91600019901b1916179055565b9160008051602061a3788339815191529391610120935080519060606020820151910151916040519960028b52600660208c0152600860408c015260608b015260808a015260a089015260c0880152616cc781615d43565b60e0870152426101008701526001600160a01b031694a4565b634e487b7160e01b81526021600452602490fd5b15616d01576001906169b2565b6002906169b2565b85516169a65760405162461bcd60e51b8152602060048201526021602482015260008051602061a3588339815191526044820152601960fa1b6064820152608490fd5b60405163ebdaf16960e01b81526001600160a01b0385166004820152602481019290925260e090829060449082905afa908115616e27578791616d91575b5095616971565b905060e0813d60e011616e1f575b81616dac60e0938361599f565b81010312616e1b57616e1060c060405192616dc684615984565b80518452602081015160208501526040810151604085015260608101516060850152616df4608082016168bf565b6080850152616e0560a082016168bf565b60a0850152016168bf565b60c082015238616d8a565b8680fd5b3d9150616d9f565b6040513d89823e3d90fd5b92919092616e406004619c29565b93600094604051616e5081615984565b8681526020810187905260408101879052606081018790526080810187905260a0810187905260c001869052600b546001600160a01b031680159190821561724e575060405190616ea082615984565b87825287602083015260018060a01b038416604083015260608201528660808201528660a08201528660c0820152955b506004600052600e6020527fa1d6913cd9e08c872be3e7525cca82e4fc0fc298a783f19022be725b19be685a5460ff1661720b575b8551156171f657506000905b616f1c600f54616069565b600f8190559586929060008151602083015160608401516001600160401b0360c0860151169160405193616f4f85615968565b8985528a602086015260018060a01b03891660408601526001606086015260046080860152600460a08601528b60c086015260e08501526101008401526101208301526001600160401b0342166101408301526001600160401b034316610160830152610180820152616fc184615d43565b836101a0820152816101c0820152816101e08201528161020082015281610220820152816102408201528582526010602052600b604083209180518355602081015160018401556002830160018060a01b0360018060a01b03604084015116166001600160601b0360a01b8254161781556060820151815460ff60a81b608085015160a81b169060ff60b01b60a086015160b01b169260ff60a01b9060a01b169062ffffff60a01b1916171717905560c0810151600384015560e0810151600484015561010081015160058401556101208101516006840155617103600784016001600160401b036101408401511681549067ffffffffffffffff60401b61016086015160401b16906001600160401b0360801b61018087015160801b16926001600160401b0360c01b161717178155616ba66101a0840151616ba081615d43565b6101e08101516008840180546001600160a01b03199081166001600160a01b03938416179091556102008301516009860180548316918416919091179055610220830151600a8601805483169184169190911790556102409092015192909301805490911691909216179055858152601160205260408120805490600160401b8210156112df57616c56828892600161719e95018155615d9f565b9160008051602061a3788339815191529391610120935080519060606020820151910151916040519960018b52600460208c0152600460408c015260608b015260808a015260a089015260c0880152616cc781615d43565b1561720357600190616f11565b600290616f11565b8551616f055760405162461bcd60e51b8152602060048201526021602482015260008051602061a3588339815191526044820152601960fa1b6064820152608490fd5b60405163ebdaf16960e01b81526001600160a01b0385166004820152602481019290925260e090829060449082905afa908115616e27578791617293575b5095616ed0565b905060e0813d60e0116172d3575b816172ae60e0938361599f565b81010312616e1b576172c860c060405192616dc684615984565b60c08201523861728c565b3d91506172a1565b929190926172e96005619c29565b936000946040516172f981615984565b8681526020810187905260408101879052606081018790526080810187905260a0810187905260c001869052600b546001600160a01b03168015919082156176f757506040519061734982615984565b87825287602083015260018060a01b038416604083015260608201528660808201528660a08201528660c0820152955b506005600052600e6020527fb9bec7e2561f624fe753ff070f1599b306cbf59fafd4e8d5a8184a1ea1841bce5460ff166176b4575b85511561769f57506000905b6173c5600f54616069565b600f8190559586929060008151602083015160608401516001600160401b0360c08601511691604051936173f885615968565b8985528a602086015260018060a01b03891660408601526004606086015260056080860152600560a08601528b60c086015260e08501526101008401526101208301526001600160401b0342166101408301526001600160401b03431661016083015261018082015261746a84615d43565b836101a0820152816101c0820152816101e08201528161020082015281610220820152816102408201528582526010602052600b604083209180518355602081015160018401556002830160018060a01b0360018060a01b03604084015116166001600160601b0360a01b8254161781556060820151815460ff60a81b608085015160a81b169060ff60b01b60a086015160b01b169260ff60a01b9060a01b169062ffffff60a01b1916171717905560c0810151600384015560e08101516004840155610100810151600584015561012081015160068401556175ac600784016001600160401b036101408401511681549067ffffffffffffffff60401b61016086015160401b16906001600160401b0360801b61018087015160801b16926001600160401b0360c01b161717178155616ba66101a0840151616ba081615d43565b6101e08101516008840180546001600160a01b03199081166001600160a01b03938416179091556102008301516009860180548316918416919091179055610220830151600a8601805483169184169190911790556102409092015192909301805490911691909216179055858152601160205260408120805490600160401b8210156112df57616c56828892600161764795018155615d9f565b9160008051602061a3788339815191529391610120935080519060606020820151910151916040519960048b52600560208c0152600560408c015260608b015260808a015260a089015260c0880152616cc781615d43565b156176ac576001906173ba565b6002906173ba565b85516173ae5760405162461bcd60e51b8152602060048201526021602482015260008051602061a3588339815191526044820152601960fa1b6064820152608490fd5b60405163ebdaf16960e01b81526001600160a01b0385166004820152602481019290925260e090829060449082905afa908115616e2757879161773c575b5095617379565b905060e0813d60e01161777c575b8161775760e0938361599f565b81010312616e1b5761777160c060405192616dc684615984565b60c082015238617735565b3d915061774a565b929190926177926009619c29565b936000946040516177a281615984565b8681526020810187905260408101879052606081018790526080810187905260a0810187905260c001869052600b546001600160a01b0316801591908215617b9c5750604051906177f282615984565b87825287602083015260018060a01b038416604083015260608201528660808201528660a08201528660c0820152955b506009600052600e6020527f0d5ccdc17421fca5ca768ae29a27b8b2aa886c9e56e3482f9ba55d79d3a806645460ff16617b59575b855115617b4457506000905b61786e600f54616069565b600f8190559586929060008151602083015160608401516001600160401b0360c08601511691604051936178a185615968565b898552602085018b90526001600160a01b03891660408601526006606086015260076080860152600960a086015260c085018c905260e08501526101008401526101208301526001600160401b03428116610140840152431661016083015261018082015261790f84615d43565b836101a0820152816101c0820152816101e08201528161020082015281610220820152816102408201528582526010602052600b604083209180518355602081015160018401556002830160018060a01b0360018060a01b03604084015116166001600160601b0360a01b8254161781556060820151815460ff60a81b608085015160a81b169060ff60b01b60a086015160b01b169260ff60a01b9060a01b169062ffffff60a01b1916171717905560c0810151600384015560e0810151600484015561010081015160058401556101208101516006840155617a51600784016001600160401b036101408401511681549067ffffffffffffffff60401b61016086015160401b16906001600160401b0360801b61018087015160801b16926001600160401b0360c01b161717178155616ba66101a0840151616ba081615d43565b6101e08101516008840180546001600160a01b03199081166001600160a01b03938416179091556102008301516009860180548316918416919091179055610220830151600a8601805483169184169190911790556102409092015192909301805490911691909216179055858152601160205260408120805490600160401b8210156112df57616c568288926001617aec95018155615d9f565b9160008051602061a3788339815191529391610120935080519060606020820151910151916040519960068b52600760208c0152600960408c015260608b015260808a015260a089015260c0880152616cc781615d43565b15617b5157600190617863565b600290617863565b85516178575760405162461bcd60e51b8152602060048201526021602482015260008051602061a3588339815191526044820152601960fa1b6064820152608490fd5b60405163ebdaf16960e01b81526001600160a01b0385166004820152602481019290925260e090829060449082905afa908115616e27578791617be1575b5095617822565b905060e0813d60e011617c21575b81617bfc60e0938361599f565b81010312616e1b57617c1660c060405192616dc684615984565b60c082015238617bda565b3d9150617bef565b909392617c366001619c29565b94600095604051617c4681615984565b8781526020810188905260408101889052606081018890526080810188905260a0810188905260c001879052600b546001600160a01b0316801591908215618054575060405190617c9682615984565b88825288602083015260018060a01b038416604083015260608201528760808201528760a08201528760c0820152965b506001600052600e6020527fa7c5ba7114a813b50159add3a36832908dc83db71d0b9a24c2ad0f83be9582075460ff16618011575b865115617ffe575060005b617d11600f54616069565b9283600f558397617d2187615c74565b60008151602083015160608401516001600160401b0360c0860151169160405193617d4b85615968565b8a85528b602086015260018060a01b038a16604086015260ff8d16606086015260016080860152600160a08601528760c086015260e08501526101008401526101208301526001600160401b0342166101408301526001600160401b034316610160830152610180820152617dbf85615d43565b846101a0820152816101c0820152816101e08201528161020082015281610220820152816102408201528682526010602052600b604083209180518355602081015160018401556002830160018060a01b0360018060a01b03604084015116166001600160601b0360a01b8254161781556060820151815460ff60a81b608085015160a81b169060ff60b01b60a086015160b01b169260ff60a01b9060a01b169062ffffff60a01b1916171717905560c0810151600384015560e0810151600484015561010081015160058401556101208101516006840155617f01600784016001600160401b036101408401511681549067ffffffffffffffff60401b61016086015160401b16906001600160401b0360801b61018087015160801b16926001600160401b0360c01b161717178155616ba66101a0840151616ba081615d43565b6101e08101516008840180546001600160a01b03199081166001600160a01b03938416179091556102008301516009860180548316918416919091179055610220830151600a8601805483169184169190911790556102409092015192909301805490911691909216179055868152601160205260408120805490600160401b8210156112df57616c568289926001617f9c95018155615d9f565b617fa588615c74565b91610120939160008051602061a3788339815191529593508051606060208301519201519260ff6040519b168b52600160208c0152600160408c015260608b015260808a015260a089015260c0880152616cc781615d43565b1561800a576001617d06565b6002617d06565b8651617cfb5760405162461bcd60e51b8152602060048201526021602482015260008051602061a3588339815191526044820152601960fa1b6064820152608490fd5b60405163ebdaf16960e01b81526001600160a01b0385166004820152602481019290925260e090829060449082905afa9081156180e1578891618099575b5096617cc6565b905060e0813d60e0116180d9575b816180b460e0938361599f565b81010312610b7d576180ce60c060405192616dc684615984565b60c082015238618092565b3d91506180a7565b6040513d8a823e3d90fd5b60009392916180fa85619c29565b60405161810681615984565b8681526020810187905260408101879052606081018790526080810187905260a0810187905260c001869052600b546001600160a01b031680159190821561851257506040519061815682615984565b87825287602083015260018060a01b038416604083015260608201528660808201528660a08201528660c0820152955b5060008052600e6020527fe710864318d4a32f37d6ce54cb3fadbef648dd12d8dbdf53973564d56b7f881c5460ff166184cf575b8551156184ba57506000905b6181d1600f54616069565b600f8190559586929060008151602083015160608401516001600160401b0360c086015116916040519361820485615968565b8985528a602086015260018060a01b03891660408601528560608601528560808601528560a08601528b60c086015260e08501526101008401526101208301526001600160401b0342166101408301526001600160401b03431661016083015261018082015261827384615d43565b836101a0820152816101c0820152816101e08201528161020082015281610220820152816102408201528582526010602052600b604083209180518355602081015160018401556002830160018060a01b0360018060a01b03604084015116166001600160601b0360a01b8254161781556060820151815460ff60a81b608085015160a81b169060ff60b01b60a086015160b01b169260ff60a01b9060a01b169062ffffff60a01b1916171717905560c0810151600384015560e08101516004840155610100810151600584015561012081015160068401556183b5600784016001600160401b036101408401511681549067ffffffffffffffff60401b61016086015160401b16906001600160401b0360801b61018087015160801b16926001600160401b0360c01b161717178155616ba66101a0840151616ba081615d43565b6101e08101516008840180546001600160a01b03199081166001600160a01b03938416179091556102008301516009860180548316918416919091179055610220830151600a8601805483169184169190911790556102409092015192909301805490911691909216179055858152601160205260408120805490600160401b8210156112df57616c56828892600161845095018155615d9f565b6008811015616ce0576008811015616ce0579160008051602061a3788339815191529391610120935080519060606020820151910151916040519960008b52600060208c0152600060408c015260608b015260808a015260a089015260c0880152616cc781615d43565b156184c7576001906181c6565b6002906181c6565b85516181ba5760405162461bcd60e51b8152602060048201526021602482015260008051602061a3588339815191526044820152601960fa1b6064820152608490fd5b60405163ebdaf16960e01b81526001600160a01b0385166004820152602481019290925260e090829060449082905afa908115616e27578791618557575b5095618186565b905060e0813d60e011618597575b8161857260e0938361599f565b81010312616e1b5761858c60c060405192616dc684615984565b60c082015238618550565b3d9150618565565b929190926185ad6003619c29565b936000946040516185bd81615984565b8681526020810187905260408101879052606081018790526080810187905260a0810187905260c001869052600b546001600160a01b03168015919082156189bb57506040519061860d82615984565b87825287602083015260018060a01b038416604083015260608201528660808201528660a08201528660c0820152955b506003600052600e6020527fe0283e559c29e31ee7f56467acc9dd307779c843a883aeeb3bf5c6128c9081445460ff16618978575b85511561896357506000905b618689600f54616069565b600f8190559586929060008151602083015160608401516001600160401b0360c08601511691604051936186bc85615968565b8985528a602086015260018060a01b03891660408601526001606086015260036080860152600360a08601528b60c086015260e08501526101008401526101208301526001600160401b0342166101408301526001600160401b03431661016083015261018082015261872e84615d43565b836101a0820152816101c0820152816101e08201528161020082015281610220820152816102408201528582526010602052600b604083209180518355602081015160018401556002830160018060a01b0360018060a01b03604084015116166001600160601b0360a01b8254161781556060820151815460ff60a81b608085015160a81b169060ff60b01b60a086015160b01b169260ff60a01b9060a01b169062ffffff60a01b1916171717905560c0810151600384015560e0810151600484015561010081015160058401556101208101516006840155618870600784016001600160401b036101408401511681549067ffffffffffffffff60401b61016086015160401b16906001600160401b0360801b61018087015160801b16926001600160401b0360c01b161717178155616ba66101a0840151616ba081615d43565b6101e08101516008840180546001600160a01b03199081166001600160a01b03938416179091556102008301516009860180548316918416919091179055610220830151600a8601805483169184169190911790556102409092015192909301805490911691909216179055858152601160205260408120805490600160401b8210156112df57616c56828892600161890b95018155615d9f565b9160008051602061a3788339815191529391610120935080519060606020820151910151916040519960018b52600360208c0152600360408c015260608b015260808a015260a089015260c0880152616cc781615d43565b156189705760019061867e565b60029061867e565b85516186725760405162461bcd60e51b8152602060048201526021602482015260008051602061a3588339815191526044820152601960fa1b6064820152608490fd5b60405163ebdaf16960e01b81526001600160a01b0385166004820152602481019290925260e090829060449082905afa908115616e27578791618a00575b509561863d565b905060e0813d60e011618a40575b81618a1b60e0938361599f565b81010312616e1b57618a3560c060405192616dc684615984565b60c0820152386189f9565b3d9150618a0e565b92919092618a566006619c29565b93600094604051618a6681615984565b8681526020810187905260408101879052606081018790526080810187905260a0810187905260c001869052600b546001600160a01b0316801591908215618e64575060405190618ab682615984565b87825287602083015260018060a01b038416604083015260608201528660808201528660a08201528660c0820152955b506006600052600e6020527f92b4482321f41ce3aa65f798bda23d0d12a60fc5f212868a548ddb00aa49de725460ff16618e21575b855115618e0c57506000905b618b32600f54616069565b600f8190559586929060008151602083015160608401516001600160401b0360c0860151169160405193618b6585615968565b8985528a602086015260018060a01b03891660408601526002606086015260066080860152600660a08601528b60c086015260e08501526101008401526101208301526001600160401b0342166101408301526001600160401b034316610160830152610180820152618bd784615d43565b836101a0820152816101c0820152816101e08201528161020082015281610220820152816102408201528582526010602052600b604083209180518355602081015160018401556002830160018060a01b0360018060a01b03604084015116166001600160601b0360a01b8254161781556060820151815460ff60a81b608085015160a81b169060ff60b01b60a086015160b01b169260ff60a01b9060a01b169062ffffff60a01b1916171717905560c0810151600384015560e0810151600484015561010081015160058401556101208101516006840155618d19600784016001600160401b036101408401511681549067ffffffffffffffff60401b61016086015160401b16906001600160401b0360801b61018087015160801b16926001600160401b0360c01b161717178155616ba66101a0840151616ba081615d43565b6101e08101516008840180546001600160a01b03199081166001600160a01b03938416179091556102008301516009860180548316918416919091179055610220830151600a8601805483169184169190911790556102409092015192909301805490911691909216179055858152601160205260408120805490600160401b8210156112df57616c568288926001618db495018155615d9f565b9160008051602061a3788339815191529391610120935080519060606020820151910151916040519960028b52600660208c0152600660408c015260608b015260808a015260a089015260c0880152616cc781615d43565b15618e1957600190618b27565b600290618b27565b8551618b1b5760405162461bcd60e51b8152602060048201526021602482015260008051602061a3588339815191526044820152601960fa1b6064820152608490fd5b60405163ebdaf16960e01b81526001600160a01b0385166004820152602481019290925260e090829060449082905afa908115616e27578791618ea9575b5095618ae6565b905060e0813d60e011618ee9575b81618ec460e0938361599f565b81010312616e1b57618ede60c060405192616dc684615984565b60c082015238618ea2565b3d9150618eb7565b92919092618eff6002619c29565b93600094604051618f0f81615984565b8681526020810187905260408101879052606081018790526080810187905260a0810187905260c001869052600b546001600160a01b031680159190821561930d575060405190618f5f82615984565b87825287602083015260018060a01b038416604083015260608201528660808201528660a08201528660c0820152955b506002600052600e6020527f9adb202b1492743bc00c81d33cdc6423fa8c79109027eb6a845391e8fc1f04815460ff166192ca575b8551156192b557506000905b618fdb600f54616069565b600f8190559586929060008151602083015160608401516001600160401b0360c086015116916040519361900e85615968565b8985528a602086015260018060a01b03891660408601526001606086015260026080860152600260a08601528b60c086015260e08501526101008401526101208301526001600160401b0342166101408301526001600160401b03431661016083015261018082015261908084615d43565b836101a0820152816101c0820152816101e08201528161020082015281610220820152816102408201528582526010602052600b604083209180518355602081015160018401556002830160018060a01b0360018060a01b03604084015116166001600160601b0360a01b8254161781556060820151815460ff60a81b608085015160a81b169060ff60b01b60a086015160b01b169260ff60a01b9060a01b169062ffffff60a01b1916171717905560c0810151600384015560e08101516004840155610100810151600584015561012081015160068401556191c2600784016001600160401b036101408401511681549067ffffffffffffffff60401b61016086015160401b16906001600160401b0360801b61018087015160801b16926001600160401b0360c01b161717178155616ba66101a0840151616ba081615d43565b6101e08101516008840180546001600160a01b03199081166001600160a01b03938416179091556102008301516009860180548316918416919091179055610220830151600a8601805483169184169190911790556102409092015192909301805490911691909216179055858152601160205260408120805490600160401b8210156112df57616c56828892600161925d95018155615d9f565b9160008051602061a3788339815191529391610120935080519060606020820151910151916040519960018b52600260208c0152600260408c015260608b015260808a015260a089015260c0880152616cc781615d43565b156192c257600190618fd0565b600290618fd0565b8551618fc45760405162461bcd60e51b8152602060048201526021602482015260008051602061a3588339815191526044820152601960fa1b6064820152608490fd5b60405163ebdaf16960e01b81526001600160a01b0385166004820152602481019290925260e090829060449082905afa908115616e27578791619352575b5095618f8f565b905060e0813d60e011619392575b8161936d60e0938361599f565b81010312616e1b5761938760c060405192616dc684615984565b60c08201523861934b565b3d9150619360565b929190926193a86007619c29565b936000946040516193b881615984565b8681526020810187905260408101879052606081018790526080810187905260a0810187905260c001869052600b546001600160a01b03168015919082156197b657506040519061940882615984565b87825287602083015260018060a01b038416604083015260608201528660808201528660a08201528660c0820152955b506007600052600e6020527f376529bb8a2d41b4a589a133407fc64f3212472dbd74744348be1098bf7ba08d5460ff16619773575b85511561975e57506000905b619484600f54616069565b600f8190559586929060008151602083015160608401516001600160401b0360c08601511691604051936194b785615968565b8985528a602086015260018060a01b03891660408601526006606086015260076080860152600760a08601528b60c086015260e08501526101008401526101208301526001600160401b0342166101408301526001600160401b03431661016083015261018082015261952984615d43565b836101a0820152816101c0820152816101e08201528161020082015281610220820152816102408201528582526010602052600b604083209180518355602081015160018401556002830160018060a01b0360018060a01b03604084015116166001600160601b0360a01b8254161781556060820151815460ff60a81b608085015160a81b169060ff60b01b60a086015160b01b169260ff60a01b9060a01b169062ffffff60a01b1916171717905560c0810151600384015560e081015160048401556101008101516005840155610120810151600684015561966b600784016001600160401b036101408401511681549067ffffffffffffffff60401b61016086015160401b16906001600160401b0360801b61018087015160801b16926001600160401b0360c01b161717178155616ba66101a0840151616ba081615d43565b6101e08101516008840180546001600160a01b03199081166001600160a01b03938416179091556102008301516009860180548316918416919091179055610220830151600a8601805483169184169190911790556102409092015192909301805490911691909216179055858152601160205260408120805490600160401b8210156112df57616c56828892600161970695018155615d9f565b9160008051602061a3788339815191529391610120935080519060606020820151910151916040519960068b52600760208c0152600760408c015260608b015260808a015260a089015260c0880152616cc781615d43565b1561976b57600190619479565b600290619479565b855161946d5760405162461bcd60e51b8152602060048201526021602482015260008051602061a3588339815191526044820152601960fa1b6064820152608490fd5b60405163ebdaf16960e01b81526001600160a01b0385166004820152602481019290925260e090829060449082905afa908115616e275787916197fb575b5095619438565b905060e0813d60e01161983b575b8161981660e0938361599f565b81010312616e1b5761983060c060405192616dc684615984565b60c0820152386197f4565b3d9150619809565b6014546001600160a01b03169081156199ca578060005260156020526040600020546199ca576198f0916020600185019460018060a01b03865416926003820193600085549161992761989d600960028801970154619d1a565b9561990f6198a9615d20565b896040519d8e9a8b998a9863ee948daf60e01b8a5260048a0152602489015261010060448901526198de610104890187615bf1565b8881036003190160648a0152906158f5565b601c878203600319810160848a01528983520160a488015201906158f5565b908460c48501526003198483030160e4850152615bf1565b03925af19283156199be57600093619989575b5060407fb90e49fc27e4f74b99c0fdebae76b63a7fbe8fb6a1947b8b7b47d7b6ca6710da91836000526015602052848260002055549460018060a01b03905416948151908152426020820152a4565b9092506020813d6020116199b6575b816199a56020938361599f565b81010312615a12575191604061993a565b3d9150619998565b6040513d6000823e3d90fd5b505050565b806000526006602052604060002060018060a01b03831660005260205260ff604060002054166199fd575050565b60008181526006602090815260408083206001600160a01b0395909516808452949091528120805460ff19169055339291907ff6391f5c32d9c69d2a47ea670b442974b53935d1edc7fd64eb21e047a839171b9080a4565b604051602093929091619a68858461599f565b600083526001600160a01b0381168015619b4b5782906002619b2b9697619aad619aa785600052600260205260018060a01b0360406000205416151590565b1561a159565b600084815260026020526040902054619ad0906001600160a01b03161515619aa7565b826000526003815260406000206001815401905583600052526040600020816001600160601b0360a01b82541617905560007fddf252ad1be2c89b69c2b068fc378daa952ba7f163c4a11628f55a4df523b3ef8180a461a1a5565b15619b3257565b60405162461bcd60e51b815280610e0360048201619dde565b6064866040519062461bcd60e51b825280600483015260248201527f4552433732313a206d696e7420746f20746865207a65726f20616464726573736044820152fd5b600b8101546001600160a01b03928316939192168314619c21576001600160a01b031682146163a2576001015460005260116020526040600020906000918054925b838110619be05750505050600090565b619bea8183615d9f565b90549060031b1c60005260106020528260018060a01b036002604060002001541614619c1857600101619bd0565b50505050600190565b505050600190565b600a811015908161209b5780158015619cfb575b828115619ceb575b506163a2578161209b57600281148015619cdd575b828115619ccd575b50619cc6578161209b5760068114918215619cb8575b8215619ca7575b8215619c96575b5050619c9157600090565b600390565b90915061209b576009143880619c86565b80925061209b576008811491619c7f565b506007811491506000619c78565b5050600290565b905061209b576004811482619c62565b506000915060038114619c5a565b905061209b576005811482619c45565b506000915060018114619c3d565b908151811015615d6d570160200190565b8015619dbe5780816000925b619da85750619d34826159c0565b91619d42604051938461599f565b80835281601f19619d52836159c0565b013660208601375b619d6357505090565b6000198101908111616078578091600a8106603001918260301161607857600a9260f81b6001600160f81b03191660001a90619d9f9086619d09565b53049081619d5a565b9091619db5600a91616069565b92910480619d26565b50604051619dcd60408261599f565b60018152600360fc1b602082015290565b60809060208152603260208201527f4552433732313a207472616e7366657220746f206e6f6e20455243373231526560408201527131b2b4bb32b91034b6b83632b6b2b73a32b960711b60608201520190565b906041815114600014619e5f57619e5b916020820151906060604084015193015160001a9061a2b7565b9091565b5050600090600290565b600581101561209b5780619e7a5750565b60018103619ec75760405162461bcd60e51b815260206004820152601860248201527f45434453413a20696e76616c6964207369676e617475726500000000000000006044820152606490fd5b60028103619f145760405162461bcd60e51b815260206004820152601f60248201527f45434453413a20696e76616c6964207369676e6174757265206c656e677468006044820152606490fd5b600314619f1d57565b60405162461bcd60e51b815260206004820152602260248201527f45434453413a20696e76616c6964207369676e6174757265202773272076616c604482015261756560f01b6064820152608490fd5b600090619f7a602a6159c0565b91619f88604051938461599f565b602a8352619f96602a6159c0565b6020840190601f190136823783511561a099576030905382516001101561a085576078602184015350602960005b6001821161a019575050619fd55790565b606460405162461bcd60e51b815260206004820152602060248201527f537472696e67733a20686578206c656e67746820696e73756666696369656e746044820152fd5b9091600f8116601081101561a071576f181899199a1a9b1b9c1cb0b131b232b360811b901a61a0488486619d09565b5360041c91801561a05d576000190190619fc4565b634e487b7160e01b82526011600452602482fd5b634e487b7160e01b83526032600452602483fd5b634e487b7160e01b81526032600452602490fd5b634e487b7160e01b82526032600452602482fd5b60009061a0ba60426159c0565b9161a0c8604051938461599f565b6042835261a0d660426159c0565b6020840190601f190136823783511561a099576030905382516001101561a085576078602184015350604160005b6001821161a115575050619fd55790565b9091600f8116601081101561a071576f181899199a1a9b1b9c1cb0b131b232b360811b901a61a1448486619d09565b5360041c91801561a05d57600019019061a104565b1561a16057565b60405162461bcd60e51b815260206004820152601c60248201527f4552433732313a20746f6b656e20616c7265616479206d696e746564000000006044820152606490fd5b91823b15619c215761a1eb926020926000604051809681958294630a85bd0160e11b845233600485015284602485015260448401526080606484015260848301906158f5565b03926001600160a01b03165af1809160009161a274575b509061a25e573d1561a257573d61a218816159c0565b9061a226604051928361599f565b81523d6000602083013e5b8051908161a2525760405162461bcd60e51b815280610e0360048201619dde565b602001fd5b606061a231565b6001600160e01b031916630a85bd0160e11b1490565b6020813d60201161a2af575b8161a28d6020938361599f565b810103126114ba5751906001600160e01b03198216820361040857503861a202565b3d915061a280565b7f7fffffffffffffffffffffffffffffff5d576e7357a4501ddfe92f46681b20a0841161a32b5760209360009360ff60809460405194855216868401526040830152606082015282805260015afa156199be576000516001600160a01b0381161561a3225790600090565b50600090600190565b5050505060009060039056fea12083d2fe9466a50e8228e5cbd945bb17082b942c4e464ee1c1f321e278a773534d4152544c6966656379636c653a206964656e746974792072657175697265173f0572856fcd0b6330d29f6db6d7f873cb08ecf5ffc0cee15b7adb3d8e814fa64a7b698076b5a0d3a3e30e0ee900a10f168b8050b6933182006f200daf950da26469706673582212202aadbaa4ecb47f0d3561fd38cc70a22376b40003606452a05959243cde2e03b864736f6c634300081e00332f8788117e7eff1d82e926ec794901d17c78024a50270940304540a733656f0d8d47ebfef3ca117c8de4966d8e4564209dc0c83b261c616553d327f4eb82d0810c3bb05773fb95f6688e1e7d9c896674dccd66884026cf30a3d5e3a9bfecd81154cdd369e4e8a8515e52ca72ec816c2101831ad1f18bf44102ed171459c9b4f8",
  "linkReferences": {},
  "deployedLinkReferences": {}
}