{
  "_format": "hh-sol-artifact-1",
  "contractName": "SMARTModelCardSBT",
  "sourceName": "src/core/SMARTModelCardSBT.sol",
  "abi": [
    {
      "inputs": [],
      "stateMutability": "nonpayable",
      "type": "constructor"
    },
    {
      "anonymous": false,
      "inputs": [
        {
          "indexed": true,
          "internalType": "address",
          "name": "owner",
          "type": "address"
        },
        {
          "indexed": true,
          "internalType": "address",
          "name": "approved",
          "type": "address"
        },
        {
          "indexed": true,
          "internalType": "uint256",
          "name": "tokenId",
          "type": "uint256"
        }
      ],
      "name": "Approval",
      "type": "event"
    },
    {
      "anonymous": false,
      "inputs": [
        {
          "indexed": true,
          "internalType": "address",
          "name": "owner",
          "type": "address"
        },
        {
          "indexed": true,
          "internalType": "address",
          "name": "operator",
          "type": "address"
        },
        {
          "indexed": false,
          "internalType": "bool",
          "name": "approved",
          "type": "bool"
        }
      ],
      "name": "ApprovalForAll",
      "type": "event"
    },
    {
      "anonymous": false,
      "inputs": [
        {
          "indexed": false,
          "internalType": "uint256",
          "name": "_fromTokenId",
          "type": "uint256"
        },
        {
          "indexed": false,
          "internalType": "uint256",
          "name": "_toTokenId",
          "type": "uint256"
        }
      ],
      "name": "BatchMetadataUpdate",
      "type": "event"
    },
    {
      "anonymous": false,
      "inputs": [
        {
          "indexed": true,
          "internalType": "uint256",
          "name": "tokenId",
          "type": "uint256"
        },
        {
          "indexed": false,
          "internalType": "string",
          "name": "modelVersion",
          "type": "string"
        },
        {
          "indexed": false,
          "internalType": "address",
          "name": "burnedBy",
          "type": "address"
        }
      ],
      "name": "CardBurned",
      "type": "event"
    },
    {
      "anonymous": false,
      "inputs": [
        {
          "indexed": true,
          "internalType": "uint256",
          "name": "tokenId",
          "type": "uint256"
        },
        {
          "indexed": false,
          "internalType": "string",
          "name": "modelVersion",
          "type": "string"
        },
        {
          "indexed": false,
          "internalType": "string",
          "name": "runId",
          "type": "string"
        },
        {
          "indexed": false,
          "internalType": "bytes32",
          "name": "cardHash",
          "type": "bytes32"
        },
        {
          "indexed": false,
          "internalType": "string",
          "name": "cid",
          "type": "string"
        },
        {
          "indexed": false,
          "internalType": "enum IERC5484.BurnAuth",
          "name": "burnAuth",
          "type": "uint8"
        }
      ],
      "name": "CardMinted",
      "type": "event"
    },
    {
      "anonymous": false,
      "inputs": [
        {
          "indexed": false,
          "internalType": "enum IERC5484.BurnAuth",
          "name": "previousAuth",
          "type": "uint8"
        },
        {
          "indexed": false,
          "internalType": "enum IERC5484.BurnAuth",
          "name": "newAuth",
          "type": "uint8"
        }
      ],
      "name": "DefaultBurnAuthChanged",
      "type": "event"
    },
    {
      "anonymous": false,
      "inputs": [
        {
          "indexed": true,
          "internalType": "address",
          "name": "from",
          "type": "address"
        },
        {
          "indexed": true,
          "internalType": "address",
          "name": "to",
          "type": "address"
        },
        {
          "indexed": true,
          "internalType": "uint256",
          "name": "tokenId",
          "type": "uint256"
        },
        {
          "indexed": false,
          "internalType": "enum IERC5484.BurnAuth",
          "name": "burnAuth",
          "type": "uint8"
        }
      ],
      "name": "Issued",
      "type": "event"
    },
    {
      "anonymous": false,
      "inputs": [
        {
          "indexed": false,
          "internalType": "uint256",
          "name": "_tokenId",
          "type": "uint256"
        }
      ],
      "name": "MetadataUpdate",
      "type": "event"
    },
    {
      "anonymous": false,
      "inputs": [
        {
          "indexed": true,
          "internalType": "address",
          "name": "previousOwner",
          "type": "address"
        },
        {
          "indexed": true,
          "internalType": "address",
          "name": "newOwner",
          "type": "address"
        }
      ],
      "name": "OwnershipTransferred",
      "type": "event"
    },
    {
      "anonymous": false,
      "inputs": [
        {
          "indexed": true,
          "internalType": "address",
          "name": "from",
          "type": "address"
        },
        {
          "indexed": true,
          "internalType": "address",
          "name": "to",
          "type": "address"
        },
        {
          "indexed": true,
          "internalType": "uint256",
          "name": "tokenId",
          "type": "uint256"
        }
      ],
      "name": "Transfer",
      "type": "event"
    },
    {
      "inputs": [
        {
          "internalType": "address",
          "name": "to",
          "type": "address"
        },
        {
          "internalType": "uint256",
          "name": "tokenId",
          "type": "uint256"
        }
      ],
      "name": "approve",
      "outputs": [],
      "stateMutability": "nonpayable",
      "type": "function"
    },
    {
      "inputs": [
        {
          "internalType": "address",
          "name": "owner",
          "type": "address"
        }
      ],
      "name": "balanceOf",
      "outputs": [
        {
          "internalType": "uint256",
          "name": "",
          "type": "uint256"
        }
      ],
      "stateMutability": "view",
      "type": "function"
    },
    {
      "inputs": [
        {
          "internalType": "uint256",
          "name": "tokenId",
          "type": "uint256"
        }
      ],
      "name": "burn",
      "outputs": [],
      "stateMutability": "nonpayable",
      "type": "function"
    },
    {
      "inputs": [
        {
          "internalType": "uint256",
          "name": "tokenId",
          "type": "uint256"
        }
      ],
      "name": "burnAuth",
      "outputs": [
        {
          "internalType": "enum IERC5484.BurnAuth",
          "name": "",
          "type": "uint8"
        }
      ],
      "stateMutability": "view",
      "type": "function"
    },
    {
      "inputs": [
        {
          "internalType": "uint256",
          "name": "",
          "type": "uint256"
        }
      ],
      "name": "cardMeta",
      "outputs": [
        {
          "internalType": "bytes32",
          "name": "cardHash",
          "type": "bytes32"
        },
        {
          "internalType": "string",
          "name": "cid",
          "type": "string"
        },
        {
          "internalType": "string",
          "name": "modelVersion",
          "type": "string"
        },
        {
          "internalType": "string",
          "name": "runId",
          "type": "string"
        },
        {
          "internalType": "string",
          "name": "schemaVersion",
          "type": "string"
        },
        {
          "internalType": "address",
          "name": "issuer",
          "type": "address"
        },
        {
          "internalType": "uint64",
          "name": "issuedAt",
          "type": "uint64"
        },
        {
          "internalType": "uint256",
          "name": "supersedes",
          "type": "uint256"
        }
      ],
      "stateMutability": "view",
      "type": "function"
    },
    {
      "inputs": [],
      "name": "defaultBurnAuth",
      "outputs": [
        {
          "internalType": "enum IERC5484.BurnAuth",
          "name": "",
          "type": "uint8"
        }
      ],
      "stateMutability": "view",
      "type": "function"
    },
    {
      "inputs": [
        {
          "internalType": "uint256",
          "name": "tokenId",
          "type": "uint256"
        }
      ],
      "name": "getApproved",
      "outputs": [
        {
          "internalType": "address",
          "name": "",
          "type": "address"
        }
      ],
      "stateMutability": "view",
      "type": "function"
    },
    {
      "inputs": [
        {
          "internalType": "uint256",
          "name": "tokenId",
          "type": "uint256"
        }
      ],
      "name": "getCardMeta",
      "outputs": [
        {
          "internalType": "bytes32",
          "name": "cardHash",
          "type": "bytes32"
        },
        {
          "internalType": "string",
          "name": "cid",
          "type": "string"
        },
        {
          "internalType": "string",
          "name": "modelVersion",
          "type": "string"
        },
        {
          "internalType": "string",
          "name": "runId",
          "type": "string"
        },
        {
          "internalType": "string",
          "name": "schemaVersion",
          "type": "string"
        },
        {
          "internalType": "address",
          "name": "issuer",
          "type": "address"
        },
        {
          "internalType": "uint64",
          "name": "issuedAt",
          "type": "uint64"
        },
        {
          "internalType": "uint256",
          "name": "supersedes",
          "type": "uint256"
        }
      ],
      "stateMutability": "view",
      "type": "function"
    },
    {
      "inputs": [
        {
          "internalType": "address",
          "name": "owner",
          "type": "address"
        },
        {
          "internalType": "address",
          "name": "operator",
          "type": "address"
        }
      ],
      "name": "isApprovedForAll",
      "outputs": [
        {
          "internalType": "bool",
          "name": "",
          "type": "bool"
        }
      ],
      "stateMutability": "view",
      "type": "function"
    },
    {
      "inputs": [
        {
          "internalType": "string",
          "name": "",
          "type": "string"
        }
      ],
      "name": "latestByVersion",
      "outputs": [
        {
          "internalType": "uint256",
          "name": "",
          "type": "uint256"
        }
      ],
      "stateMutability": "view",
      "type": "function"
    },
    {
      "inputs": [
        {
          "internalType": "string",
          "name": "modelVersion",
          "type": "string"
        }
      ],
      "name": "latestTokenForVersion",
      "outputs": [
        {
          "internalType": "uint256",
          "name": "",
          "type": "uint256"
        }
      ],
      "stateMutability": "view",
      "type": "function"
    },
    {
      "inputs": [
        {
          "internalType": "uint256",
          "name": "tokenId",
          "type": "uint256"
        }
      ],
      "name": "locked",
      "outputs": [
        {
          "internalType": "bool",
          "name": "",
          "type": "bool"
        }
      ],
      "stateMutability": "view",
      "type": "function"
    },
    {
      "inputs": [
        {
          "internalType": "address",
          "name": "to",
          "type": "address"
        },
        {
          "internalType": "bytes32",
          "name": "cardHash",
          "type": "bytes32"
        },
        {
          "internalType": "string",
          "name": "cid",
          "type": "string"
        },
        {
          "internalType": "string",
          "name": "modelVersion",
          "type": "string"
        },
        {
          "internalType": "string",
          "name": "runId",
          "type": "string"
        },
        {
          "internalType": "string",
          "name": "schemaVersion",
          "type": "string"
        },
        {
          "internalType": "uint256",
          "name": "supersedesTokenId",
          "type": "uint256"
        },
        {
          "internalType": "string",
          "name": "tokenURI_",
          "type": "string"
        }
      ],
      "name": "mint",
      "outputs": [
        {
          "internalType": "uint256",
          "name": "",
          "type": "uint256"
        }
      ],
      "stateMutability": "nonpayable",
      "type": "function"
    },
    {
      "inputs": [
        {
          "internalType": "address",
          "name": "to",
          "type": "address"
        },
        {
          "internalType": "bytes32",
          "name": "cardHash",
          "type": "bytes32"
        },
        {
          "internalType": "string",
          "name": "cid",
          "type": "string"
        },
        {
          "internalType": "string",
          "name": "modelVersion",
          "type": "string"
        },
        {
          "internalType": "string",
          "name": "runId",
          "type": "string"
        },
        {
          "internalType": "string",
          "name": "schemaVersion",
          "type": "string"
        },
        {
          "internalType": "uint256",
          "name": "supersedesTokenId",
          "type": "uint256"
        },
        {
          "internalType": "string",
          "name": "tokenURI_",
          "type": "string"
        },
        {
          "internalType": "enum IERC5484.BurnAuth",
          "name": "_burnAuthLevel",
          "type": "uint8"
        }
      ],
      "name": "mintWithBurnAuth",
      "outputs": [
        {
          "internalType": "uint256",
          "name": "",
          "type": "uint256"
        }
      ],
      "stateMutability": "nonpayable",
      "type": "function"
    },
    {
      "inputs": [],
      "name": "name",
      "outputs": [
        {
          "internalType": "string",
          "name": "",
          "type": "string"
        }
      ],
      "stateMutability": "view",
      "type": "function"
    },
    {
      "inputs": [],
      "name": "owner",
      "outputs": [
        {
          "internalType": "address",
          "name": "",
          "type": "address"
        }
      ],
      "stateMutability": "view",
      "type": "function"
    },
    {
      "inputs": [
        {
          "internalType": "uint256",
          "name": "tokenId",
          "type": "uint256"
        }
      ],
      "name": "ownerOf",
      "outputs": [
        {
          "internalType": "address",
          "name": "",
          "type": "address"
        }
      ],
      "stateMutability": "view",
      "type": "function"
    },
    {
      "inputs": [],
      "name": "renounceOwnership",
      "outputs": [],
      "stateMutability": "nonpayable",
      "type": "function"
    },
    {
      "inputs": [
        {
          "internalType": "address",
          "name": "",
          "type": "address"
        },
        {
          "internalType": "address",
          "name": "",
          "type": "address"
        },
        {
          "internalType": "uint256",
          "name": "",
          "type": "uint256"
        }
      ],
      "name": "safeTransferFrom",
      "outputs": [],
      "stateMutability": "pure",
      "type": "function"
    },
    {
      "inputs": [
        {
          "internalType": "address",
          "name": "",
          "type": "address"
        },
        {
          "internalType": "address",
          "name": "",
          "type": "address"
        },
        {
          "internalType": "uint256",
          "name": "",
          "type": "uint256"
        },
        {
          "internalType": "bytes",
          "name": "",
          "type": "bytes"
        }
      ],
      "name": "safeTransferFrom",
      "outputs": [],
      "stateMutability": "pure",
      "type": "function"
    },
    {
      "inputs": [
        {
          "internalType": "address",
          "name": "operator",
          "type": "address"
        },
        {
          "internalType": "bool",
          "name": "approved",
          "type": "bool"
        }
      ],
      "name": "setApprovalForAll",
      "outputs": [],
      "stateMutability": "nonpayable",
      "type": "function"
    },
    {
      "inputs": [
        {
          "internalType": "enum IERC5484.BurnAuth",
          "name": "newDefaultAuth",
          "type": "uint8"
        }
      ],
      "name": "setDefaultBurnAuth",
      "outputs": [],
      "stateMutability": "nonpayable",
      "type": "function"
    },
    {
      "inputs": [
        {
          "internalType": "bytes4",
          "name": "interfaceId",
          "type": "bytes4"
        }
      ],
      "name": "supportsInterface",
      "outputs": [
        {
          "internalType": "bool",
          "name": "",
          "type": "bool"
        }
      ],
      "stateMutability": "view",
      "type": "function"
    },
    {
      "inputs": [],
      "name": "symbol",
      "outputs": [
        {
          "internalType": "string",
          "name": "",
          "type": "string"
        }
      ],
      "stateMutability": "view",
      "type": "function"
    },
    {
      "inputs": [
        {
          "internalType": "uint256",
          "name": "tokenId",
          "type": "uint256"
        }
      ],
      "name": "tokenURI",
      "outputs": [
        {
          "internalType": "string",
          "name": "",
          "type": "string"
        }
      ],
      "stateMutability": "view",
      "type": "function"
    },
    {
      "inputs": [],
      "name": "totalMinted",
      "outputs": [
        {
          "internalType": "uint256",
          "name": "",
          "type": "uint256"
        }
      ],
      "stateMutability": "view",
      "type": "function"
    },
    {
      "inputs": [
        {
          "internalType": "address",
          "name": "",
          "type": "address"
        },
        {
          "internalType": "address",
          "name": "",
          "type": "address"
        },
        {
          "internalType": "uint256",
          "name": "",
          "type": "uint256"
        }
      ],
      "name": "transferFrom",
      "outputs": [],
      "stateMutability": "pure",
      "type": "function"
    },
    {
      "inputs": [
        {
          "internalType": "address",
          "name": "newOwner",
          "type": "address"
        }
      ],
      "name": "transferOwnership",
      "outputs": [],
      "stateMutability": "nonpayable",
      "type": "function"
    },
    {
      "inputs": [
        {
          "internalType": "uint256",
          "name": "tokenId",
          "type": "uint256"
        },
        {
          "internalType": "bytes32",
          "name": "cardHash",
          "type": "bytes32"
        }
      ],
      "name": "verifyCardHash",
      "outputs": [
        {
          "internalType": "bool",
          "name": "",
          "type": "bool"
        }
      ],
      "stateMutability": "view",
      "type": "function"
    }
  ],
  "bytecode": "0x60806040523461039557604080519081016001600160401b038111828210176102a2576040908152601482527f534d415254204d6f64656c204361726420534254000000000000000000000000602083015280519081016001600160401b038111828210176102a257604052600981526814d35054950b54d09560ba1b602082015281516001600160401b0381116102a257600054600181811c9116801561038b575b602082101461028257601f8111610327575b50602092601f82116001146102c357928192936000926102b8575b50508160011b916000199060031b1c1916176000555b80516001600160401b0381116102a257600154600181811c91168015610298575b602082101461028257601f811161021d575b50602091601f82116001146101b9579181926000926101ae575b50508160011b916000199060031b1c1916176001555b60078054336001600160a01b03198216811790925560405191906001600160a01b03167f8be0079c531659141344cd1fd0a4f28419497f9722a3daafe3b4186f6b6457e0600080a36001600c55600260ff19600b541617600b5561264d908161039b8239f35b015190503880610132565b601f198216926001600052806000209160005b858110610205575083600195106101ec575b505050811b01600155610148565b015160001960f88460031b161c191690553880806101de565b919260206001819286850151815501940192016101cc565b60016000527fb10e2d527612073b26eecdfd717e6a320cf44b4afac2b0732d9fcbe2b7fa0cf6601f830160051c81019160208410610278575b601f0160051c01905b81811061026c5750610118565b6000815560010161025f565b9091508190610256565b634e487b7160e01b600052602260045260246000fd5b90607f1690610106565b634e487b7160e01b600052604160045260246000fd5b0151905038806100cf565b601f1982169360008052806000209160005b86811061030f57508360019596106102f6575b505050811b016000556100e5565b015160001960f88460031b161c191690553880806102e8565b919260206001819286850151815501940192016102d5565b600080527f290decd9548b62a8d60345a988386fc84ba6bc95484008f6362f93160ef3e563601f830160051c81019160208410610381575b601f0160051c01905b81811061037557506100b4565b60008155600101610368565b909150819061035f565b90607f16906100a2565b600080fdfe61020080604052600436101561001457600080fd5b60003560e01c90816301ffc9a71461133a575080630489b56f146112e357806306fdde031461123e578063081812fc146111e7578063095ea7b31461105e5780631a879af51461100d5780631e36675d14610f8657806323b872dd14610f8157806342842e0e14610f8157806342966c6814610aa95780634de0bcd414610a2e5780636352211e146109fe57806370a0823114610967578063715018a61461090a5780638da5cb5b146108e15780638f54636e1461087457806395d89b41146107a7578063a0d138e9146106bb578063a22cb465146105e9578063a2309ff8146105a8578063a81f778714610580578063a8a3d5d014610496578063b45a3c0e14610454578063b88d4fde146103fb578063c87b56dd146103c4578063ca74967014610371578063e985e9c514610316578063ee948daf1461022c5763f2fde38b1461015f57600080fd5b3461022757602036600319011261022757610178611446565b6101806118cb565b6001600160a01b031680156101d357600780546001600160a01b0319811683179091556001600160a01b03167f8be0079c531659141344cd1fd0a4f28419497f9722a3daafe3b4186f6b6457e0600080a3005b60405162461bcd60e51b815260206004820152602660248201527f4f776e61626c653a206e6577206f776e657220697320746865207a65726f206160448201526564647265737360d01b6064820152608490fd5b600080fd5b346102275761010036600319011261022757610246611446565b6044356001600160401b03811161022757610265903690600401611472565b91906064356001600160401b03811161022757610286903690600401611472565b936084356001600160401b038111610227576102a6903690600401611472565b60a4959195356001600160401b038111610227576102c8903690600401611472565b9160e435976001600160401b038911610227576020996102ef61030e9a3690600401611472565b9890976102fa6118cb565b60ff600b54169a60c4359860243590611944565b604051908152f35b346102275760403660031901126102275761032f611446565b61033761145c565b9060018060a01b0316600052600560205260406000209060018060a01b0316600052602052602060ff604060002054166040519015158152f35b34610227576040366003190112610227576004356000818152600260205260409020546103a8906001600160a01b031615156116e0565b6000526008602052602060243560406000205414604051908152f35b34610227576020366003190112610227576103f76103e360043561187f565b604051918291602083526020830190611421565b0390f35b3461022757608036600319011261022757610414611446565b5061041d61145c565b506064356001600160401b03811161022757366023820112156102275761044e9036906024816004013591016116a9565b5061173c565b346102275760203660031901126102275760043560009081526002602052604090205461048b906001600160a01b031615156116e0565b602060405160018152f35b3461022757610120366003190112610227576104b0611446565b6044356001600160401b038111610227576104cf903690600401611472565b916064356001600160401b038111610227576104ef903690600401611472565b6084929192356001600160401b03811161022757610511903690600401611472565b60a4939193356001600160401b03811161022757610533903690600401611472565b9160e4356001600160401b03811161022757610553903690600401611472565b969095610104359860048a10156102275760209b61030e9b6105736118cb565b60c4359860243590611944565b3461022757600036600319011261022757602060ff600b54166105a660405180926113f1565bf35b3461022757600036600319011261022757600c5460001981019081116105d357602090604051908152f35b634e487b7160e01b600052601160045260246000fd5b3461022757604036600319011261022757610602611446565b60243590811515809203610227576001600160a01b03169033821461067657336000526005602052604060002082600052602052604060002060ff1981541660ff83161790556040519081527f17307eab39ab6107e8899845ad3d59bd9653f200f220920489ca2b5937696c3160203392a3005b60405162461bcd60e51b815260206004820152601960248201527f4552433732313a20617070726f766520746f2063616c6c6572000000000000006044820152606490fd5b34610227576020366003190112610227576004356000818152600260205260409020546106f2906001600160a01b031615156116e0565b6000526008602052604060002060405161070b816114d9565b815481526103f761071e6001840161152c565b91602081019283526107326002850161152c565b93604082019485526107466003820161152c565b606083019081526107596004830161152c565b80608085015260058301549160066001600160401b0360018060a01b038516948560a089015260a01c16948560c08801520154948560e08201525196519751905190604051988998896115d0565b346102275760003660031901126102275760405160006001546107c98161149f565b808452906001811690811561085057506001146107f1575b6103f7836103e38185038261150b565b600160009081527fb10e2d527612073b26eecdfd717e6a320cf44b4afac2b0732d9fcbe2b7fa0cf6939250905b808210610836575090915081016020016103e36107e1565b91926001816020925483858801015201910190929161081e565b60ff191660208086019190915291151560051b840190910191506103e390506107e1565b34610227576020366003190112610227576004356001600160401b0381116102275736602382011215610227576108ce60206108bb819336906024816004013591016116a9565b81604051938285809451938492016113fe565b8101600a81520301902054604051908152f35b34610227576000366003190112610227576007546040516001600160a01b039091168152602090f35b34610227576000366003190112610227576109236118cb565b600780546001600160a01b031981169091556000906001600160a01b03167f8be0079c531659141344cd1fd0a4f28419497f9722a3daafe3b4186f6b6457e08280a3005b34610227576020366003190112610227576001600160a01b03610988611446565b1680156109a75760005260036020526020604060002054604051908152f35b60405162461bcd60e51b815260206004820152602960248201527f4552433732313a2061646472657373207a65726f206973206e6f7420612076616044820152683634b21037bbb732b960b91b6064820152608490fd5b34610227576020366003190112610227576020610a1c600435611859565b6040516001600160a01b039091168152f35b346102275760203660031901126102275760043560048110156102275760407f8b8a73539637b819e9bcd5ad28d4228f2e663acb9bb5963e4e57d3c1be7ce3ca91610a776118cb565b610aa660ff600b54169160ff19600b541660ff821617600b55610a9c845180946113f1565b60208301906113f1565ba1005b3461022757602036600319011261022757600435600081815260026020526040902054610ae0906001600160a01b031615156116e0565b80600052600960205260ff6040600020541681600052600860205260406000209060405191610b0e836114d9565b80548352610b1e6001820161152c565b6020840152610b2f6002820161152c565b9260408101938452610b436003830161152c565b6060820152610b546004830161152c565b608082015260e060066005840154936001600160401b0360a085019560018060a01b038116875260a01c1660c08501520154910152610b9284611859565b916004811015610f6b5760038103610bf75760405162461bcd60e51b815260206004820152602560248201527f534d4152544d6f64656c436172645342543a20746f6b656e206e6f74206275726044820152646e61626c6560d81b6064820152608490fd5b80610df65750516001600160a01b0316331490508015610de2575b15610d8d57610d677f8289154d83f92a48d2772fac3b7ea86672f0881405a96844bad2d3f058ff290a915b51610c4784611859565b50836000610c5482611859565b8282526004602052604082206bffffffffffffffffffffffff60a01b815416905560018060a01b0316808252600360205260408220821981540190558282526002602052604082206bffffffffffffffffffffffff60a01b81541690557fddf252ad1be2c89b69c2b068fc378daa952ba7f163c4a11628f55a4df523b3ef8280a4836000526006602052610cec60406000205461149f565b610d72575b8360005260086020526000600660408220828155610d11600182016117be565b610d1d600282016117be565b610d29600382016117be565b610d35600482016117be565b8260058201550155836000526009602052604060002060ff198154169055604051918291604083526040830190611421565b3360208301520390a2005b836000526006602052610d8860406000206117be565b610cf1565b60405162461bcd60e51b815260206004820152602760248201527f534d4152544d6f64656c436172645342543a206f6e6c7920697373756572206360448201526630b710313ab93760c91b6064820152608490fd5b506007546001600160a01b03163314610c12565b60018103610e935750506001600160a01b03163303610e3957610d677f8289154d83f92a48d2772fac3b7ea86672f0881405a96844bad2d3f058ff290a91610c3d565b60405162461bcd60e51b815260206004820152602c60248201527f534d4152544d6f64656c436172645342543a206f6e6c7920746f6b656e206f7760448201526b3732b91031b0b710313ab93760a11b6064820152608490fd5b600214610ec7575b5050610d677f8289154d83f92a48d2772fac3b7ea86672f0881405a96844bad2d3f058ff290a91610c3d565b516001600160a01b03163314908115610f58575b508015610f44575b15610eef578280610e9b565b60405162461bcd60e51b815260206004820152602760248201527f534d4152544d6f64656c436172645342543a20756e617574686f72697a6564206044820152663a3790313ab93760c91b6064820152608490fd5b506007546001600160a01b03163314610ee3565b6001600160a01b03163314905083610edb565b634e487b7160e01b600052602160045260246000fd5b611649565b34610227576020366003190112610227576004356000526008602052604060002080546103f7610fb86001840161152c565b91610fc56002850161152c565b93610fd26003820161152c565b91610fdf6004830161152c565b60066005840154930154936040519788976001600160401b038660a01c169560018060a01b031694896115d0565b34610227576020366003190112610227576004356001600160401b03811161022757602061104081923690600401611472565b91908260405193849283378101600a81520301902054604051908152f35b3461022757604036600319011261022757611077611446565b602435906001600160a01b0361108c83611859565b6001600160a01b03909216911681811461119857803314908115611173575b501561110857600082815260046020526040902080546001600160a01b031916821790556001600160a01b036110e083611859565b167f8c5be1e5ebec7d5bd14f71427d1e84f3dd0314c0f7b2291e5b200ac8c7c3b925600080a4005b60405162461bcd60e51b815260206004820152603d60248201527f4552433732313a20617070726f76652063616c6c6572206973206e6f7420746f60448201527f6b656e206f776e6572206f7220617070726f76656420666f7220616c6c0000006064820152608490fd5b600090815260056020908152604080832033845290915290205460ff169050836110ab565b60405162461bcd60e51b815260206004820152602160248201527f4552433732313a20617070726f76616c20746f2063757272656e74206f776e656044820152603960f91b6064820152608490fd5b346102275760203660031901126102275760043560008181526002602052604090205461121e906001600160a01b0316151561180d565b6000526004602052602060018060a01b0360406000205416604051908152f35b34610227576000366003190112610227576040516000805461125f8161149f565b80845290600181169081156108505750600114611286576103f7836103e38185038261150b565b60008080527f290decd9548b62a8d60345a988386fc84ba6bc95484008f6362f93160ef3e563939250905b8082106112c9575090915081016020016103e36107e1565b9192600181602092548385880101520191019092916112b1565b346102275760203660031901126102275760043560008181526002602052604090205461131a906001600160a01b031615156116e0565b6000526009602052602060ff604060002054166105a660405180926113f1565b34610227576020366003190112610227576004359063ffffffff60e01b821680920361022757602091635a2d1e0760e11b81149081156113e0575b8115611383575b5015158152f35b632483248360e11b81149150811561139d575b508361137c565b6380ac58cd60e01b8114915081156113cf575b81156113be575b5083611396565b6301ffc9a760e01b149050836113b7565b635b5e139f60e01b811491506113b0565b630489b56f60e01b81149150611375565b906004821015610f6b5752565b60005b8381106114115750506000910152565b8181015183820152602001611401565b9060209161143a815180928185528580860191016113fe565b601f01601f1916010190565b600435906001600160a01b038216820361022757565b602435906001600160a01b038216820361022757565b9181601f84011215610227578235916001600160401b038311610227576020838186019501011161022757565b90600182811c921680156114cf575b60208310146114b957565b634e487b7160e01b600052602260045260246000fd5b91607f16916114ae565b61010081019081106001600160401b038211176114f557604052565b634e487b7160e01b600052604160045260246000fd5b90601f801991011681019081106001600160401b038211176114f557604052565b90604051918260008254926115408461149f565b80845293600181169081156115ae5750600114611567575b506115659250038361150b565b565b90506000929192526020600020906000915b8183106115925750509060206115659282010138611558565b6020919350806001915483858901015201910190918492611579565b90506020925061156594915060ff191682840152151560051b82010138611558565b94906001600160401b039461161360e0989b9a999561160561162f96611621958b5261010060208c01526101008b0190611421565b9089820360408b0152611421565b908782036060890152611421565b908582036080870152611421565b6001600160a01b0390971660a08401521660c08201520152565b34610227576000606036600319011261168b57600435906001600160a01b038216820361168b5750506024356001600160a01b0381168103610227575061173c565b80fd5b6001600160401b0381116114f557601f01601f191660200190565b9291926116b58261168e565b916116c3604051938461150b565b829481845281830111610227578281602093846000960137010152565b156116e757565b60405162461bcd60e51b815260206004820152602760248201527f534d4152544d6f64656c436172645342543a20746f6b656e20646f6573206e6f6044820152661d08195e1a5cdd60ca1b6064820152608490fd5b60405162461bcd60e51b815260206004820152603960248201527f534d4152544d6f64656c436172645342543a20736f756c626f756e6420746f6b60448201527f656e732063616e6e6f74206265207472616e73666572726564000000000000006064820152608490fd5b8181106117b2575050565b600081556001016117a7565b6117c8815461149f565b90816117d2575050565b81601f600093116001146117e4575055565b8183526020832061180091601f0160051c8101906001016117a7565b8082528160208120915555565b1561181457565b60405162461bcd60e51b815260206004820152601860248201527f4552433732313a20696e76616c696420746f6b656e20494400000000000000006044820152606490fd5b6000908152600260205260409020546001600160a01b031661187c81151561180d565b90565b6000818152600260205260409020546118a2906001600160a01b0316151561180d565b60005260066020526118b7604060002061152c565b60006040516118c760208261150b565b5290565b6007546001600160a01b031633036118df57565b606460405162461bcd60e51b815260206004820152602060248201527f4f776e61626c653a2063616c6c6572206973206e6f7420746865206f776e65726044820152fd5b908060209392818452848401376000828201840152601f01601f1916010190565b9d9b999c979d9a989a60a05261018052610140526101605260c0526101c05260e052610100526101a05260018060a01b0360a05116156080526080516124055761018051156123b557610160511561237057600c546101e0819052600019146105d3576101e051600101600c556020610120819052604051611aa8916119ca908261150b565b600080825260808190526101e0518152600260205260409020546119fa906001600160a01b031615155b156124ad565b6101e051600090815260026020526040902054611a21906001600160a01b031615156119f4565b60a08051608080516001600160a01b03928316905261012080516003905281516040808220805460010190556101e080519092529151600290529151908120935184546001600160a01b031916931692831790935551917fddf252ad1be2c89b69c2b068fc378daa952ba7f163c4a11628f55a4df523b3ef8180a46101e05160a0516124f9565b1561235357611ab89136916116a9565b6101e0516000908152600260205260409020546001600160a01b0316156122f5576101e0516080515260066101205152604060805120908051906001600160401b03821161201c57611b0a835461149f565b601f81116122bd575b5061012051906001601f84111461224a57918091611b499360805192611f4f575b50508160011b916000199060031b1c19161790565b90555b7ff8e1a15aba9398e019f0b49df1a4fde98ee17ae345cb5f6b5e2c27f5033e8ce76040516101e05181526101205190a160405192611b89846114d9565b610180518452611be1611ba33661016051610140516116a9565b95610120518601968752611bbd366101c05160c0516116a9565b9360408701948552611bd5366101005160e0516116a9565b606088015236916116a9565b60808501523360a08501526001600160401b03421660c085015260e08401526101e05160805152600861012051526040608051209383518555518051906001600160401b03821161201c57611c39600187015461149f565b601f811161220f575b5061012051906001601f84111461219657918091611c779360805192611f4f5750508160011b916000199060031b1c19161790565b60018501555b519283516001600160401b03811161201c57611c9c600283015461149f565b601f811161215b575b50610120516001601f8311146120e5578190611cdb9394959660805192611f4f5750508160011b916000199060031b1c19161790565b60028201555b60608301519283516001600160401b03811161201c57611d04600384015461149f565b601f81116120aa575b50610120516001601f831114612034578190611d439394959660805192611f4f5750508160011b916000199060031b1c19161790565b60038301555b60808101518051906001600160401b03821161201c57611d6c600485015461149f565b601f8111611fd6575b5061012051906001601f841114611f5a578260e09360069593611daf9360805192611f4f5750508160011b916000199060031b1c19161790565b60048501555b60a08181015160058601805460c08501516001600160e01b03199091166001600160a01b0393909316929092179190921b67ffffffffffffffff60a01b1617905501519101556101e0516080805191909152610120516009905251604090206101a05160041115611f375760ff1981541660ff6101a051161790556040516101c05160c05182376101c051810190600a82526101e051918161012051910301902055604051611e67816101a0516113f1565b6101e0519060018060a01b0360a05116907f135ffb3383e06280e062ac5095bbf8faa98517161e596a2536bd98a9a8b64a8833916101205190a460405160a081527f0557e5b13cb7733a058cf94615eb4b6d8705a8982d044a62ff9bf6b3cc65922a611f16611ef8611ee260a085016101c05160c051611923565b848103610120518601526101005160e051611923565b61018051604085015283810360608501526101605161014051611923565b91611f27608082016101a0516113f1565b806101e051930390a26101e05190565b634e487b7160e01b6080515260216004526024608051fd5b015190503880611b34565b9060048501608051526101205160805120916080515b601f1985168110611fbc5750926006949260019260e09583601f19811610611fa3575b505050811b016004850155611db5565b015160001960f88460031b161c19169055388080611f93565b818301518455610120516001909401939283019201611f70565b61200c9060048601608051526101205160805120601f850160051c810191610120518610612012575b601f0160051c01906117a7565b38611d75565b9091508190611fff565b634e487b7160e01b6080515260416004526024608051fd5b60038401608051526101205160805120906080515b601f1984168110612090575060019394959683601f19811610612077575b505050811b016003830155611d49565b015160001960f88460031b161c19169055388080612067565b878201518355610120516001909301929182019101612049565b6120df9060038501608051526101205160805120601f840160051c81019161012051851061201257601f0160051c01906117a7565b38611d0d565b60028301608051526101205160805120906080515b601f1984168110612141575060019394959683601f19811610612128575b505050811b016002820155611ce1565b015160001960f88460031b161c19169055388080612118565b8782015183556101205160019093019291820191016120fa565b6121909060028401608051526101205160805120601f840160051c81019161012051851061201257601f0160051c01906117a7565b38611ca5565b91906001870160805152610120516080512090608051935b601f19841685106121f2576001945083601f198116106121d9575b505050811b016001850155611c7d565b015160001960f88460031b161c191690553880806121c9565b8181015183556101205194850194600190930192909101906121ae565b6122449060018801608051526101205160805120601f850160051c81019161012051861061201257601f0160051c01906117a7565b38611c42565b91908360805152610120516080512090608051935b601f19841685106122a0576001945083601f19811610612287575b505050811b019055611b4c565b015160001960f88460031b161c1916905538808061227a565b81810151835561012051948501946001909301929091019061225f565b6122ef9084608051526101205160805120601f850160051c81019161012051861061201257601f0160051c01906117a7565b38611b13565b60405162461bcd60e51b8152610120516004820152602e60248201527f45524337323155524953746f726167653a2055524920736574206f66206e6f6e60448201526d32bc34b9ba32b73a103a37b5b2b760911b6064820152608490fd5b60405162461bcd60e51b81528061236c6004820161245a565b0390fd5b60405162461bcd60e51b815260206004820152601c60248201527f534d4152544d6f64656c436172645342543a20656d70747920434944000000006044820152606490fd5b60405162461bcd60e51b815260206004820152602260248201527f534d4152544d6f64656c436172645342543a20656d70747920636172642068616044820152610e6d60f31b6064820152608490fd5b60405162461bcd60e51b815260206004820152602760248201527f534d4152544d6f64656c436172645342543a206d696e7420746f207a65726f206044820152666164647265737360c81b6064820152608490fd5b60809060208152603260208201527f4552433732313a207472616e7366657220746f206e6f6e20455243373231526560408201527131b2b4bb32b91034b6b83632b6b2b73a32b960711b60608201520190565b156124b457565b60405162461bcd60e51b815260206004820152601c60248201527f4552433732313a20746f6b656e20616c7265616479206d696e746564000000006044820152606490fd5b91823b1561260f5761253f926020926000604051809681958294630a85bd0160e11b84523360048501528460248501526044840152608060648401526084830190611421565b03926001600160a01b03165af180916000916125c8575b50906125b2573d156125ab573d61256c8161168e565b9061257a604051928361150b565b81523d6000602083013e5b805190816125a65760405162461bcd60e51b81528061236c6004820161245a565b602001fd5b6060612585565b6001600160e01b031916630a85bd0160e11b1490565b6020813d602011612607575b816125e16020938361150b565b810103126126035751906001600160e01b03198216820361168b575038612556565b5080fd5b3d91506125d4565b50505060019056fea26469706673582212206aa7d19f91205a985aee5f5a2704f1b08b81af50435d652c4ed265859cdeeaf864736f6c634300081e0033",
  "linkReferences": {},
  "deployedLinkReferences": {}
}