{
  "_format": "hh-sol-artifact-1",
  "contractName": "SMARTUsernameRegistry",
  "sourceName": "src/account/SMARTUsernameRegistry.sol",
  "abi": [
    {
      "inputs": [],
      "stateMutability": "nonpayable",
      "type": "constructor"
    },
    {
      "anonymous": false,
      "inputs": [
        {
          "indexed": true,
          "internalType": "address",
          "name": "previousOwner",
          "type": "address"
        },
        {
          "indexed": true,
          "internalType": "address",
          "name": "newOwner",
          "type": "address"
        }
      ],
      "name": "OwnershipTransferred",
      "type": "event"
    },
    {
      "anonymous": false,
      "inputs": [
        {
          "indexed": true,
          "internalType": "string",
          "name": "username",
          "type": "string"
        },
        {
          "indexed": true,
          "internalType": "enum SMARTRole",
          "name": "role",
          "type": "uint8"
        },
        {
          "indexed": false,
          "internalType": "uint256",
          "name": "timestamp",
          "type": "uint256"
        }
      ],
      "name": "UsernameDeregistered",
      "type": "event"
    },
    {
      "anonymous": false,
      "inputs": [
        {
          "indexed": true,
          "internalType": "string",
          "name": "username",
          "type": "string"
        },
        {
          "indexed": true,
          "internalType": "enum SMARTRole",
          "name": "role",
          "type": "uint8"
        },
        {
          "indexed": true,
          "internalType": "address",
          "name": "account",
          "type": "address"
        },
        {
          "indexed": false,
          "internalType": "uint256",
          "name": "timestamp",
          "type": "uint256"
        }
      ],
      "name": "UsernameRegistered",
      "type": "event"
    },
    {
      "inputs": [
        {
          "internalType": "address",
          "name": "",
          "type": "address"
        }
      ],
      "name": "accountToUsername",
      "outputs": [
        {
          "internalType": "string",
          "name": "",
          "type": "string"
        }
      ],
      "stateMutability": "view",
      "type": "function"
    },
    {
      "inputs": [
        {
          "internalType": "string",
          "name": "username",
          "type": "string"
        },
        {
          "internalType": "enum SMARTRole",
          "name": "role",
          "type": "uint8"
        }
      ],
      "name": "deregisterUsername",
      "outputs": [],
      "stateMutability": "nonpayable",
      "type": "function"
    },
    {
      "inputs": [
        {
          "internalType": "string",
          "name": "username",
          "type": "string"
        },
        {
          "internalType": "enum SMARTRole",
          "name": "role",
          "type": "uint8"
        }
      ],
      "name": "getAccountByUsername",
      "outputs": [
        {
          "internalType": "address",
          "name": "",
          "type": "address"
        }
      ],
      "stateMutability": "view",
      "type": "function"
    },
    {
      "inputs": [
        {
          "internalType": "address",
          "name": "account",
          "type": "address"
        }
      ],
      "name": "getUsernameByAccount",
      "outputs": [
        {
          "internalType": "string",
          "name": "",
          "type": "string"
        }
      ],
      "stateMutability": "view",
      "type": "function"
    },
    {
      "inputs": [
        {
          "internalType": "address",
          "name": "account",
          "type": "address"
        }
      ],
      "name": "isAccountRegistered",
      "outputs": [
        {
          "internalType": "bool",
          "name": "",
          "type": "bool"
        }
      ],
      "stateMutability": "view",
      "type": "function"
    },
    {
      "inputs": [
        {
          "internalType": "string",
          "name": "username",
          "type": "string"
        },
        {
          "internalType": "enum SMARTRole",
          "name": "role",
          "type": "uint8"
        }
      ],
      "name": "isUsernameAvailable",
      "outputs": [
        {
          "internalType": "bool",
          "name": "",
          "type": "bool"
        }
      ],
      "stateMutability": "view",
      "type": "function"
    },
    {
      "inputs": [],
      "name": "owner",
      "outputs": [
        {
          "internalType": "address",
          "name": "",
          "type": "address"
        }
      ],
      "stateMutability": "view",
      "type": "function"
    },
    {
      "inputs": [
        {
          "internalType": "string",
          "name": "username",
          "type": "string"
        },
        {
          "internalType": "enum SMARTRole",
          "name": "role",
          "type": "uint8"
        },
        {
          "internalType": "address",
          "name": "account",
          "type": "address"
        }
      ],
      "name": "registerUsername",
      "outputs": [],
      "stateMutability": "nonpayable",
      "type": "function"
    },
    {
      "inputs": [],
      "name": "renounceOwnership",
      "outputs": [],
      "stateMutability": "nonpayable",
      "type": "function"
    },
    {
      "inputs": [],
      "name": "totalRegistrations",
      "outputs": [
        {
          "internalType": "uint256",
          "name": "",
          "type": "uint256"
        }
      ],
      "stateMutability": "view",
      "type": "function"
    },
    {
      "inputs": [
        {
          "internalType": "address",
          "name": "newOwner",
          "type": "address"
        }
      ],
      "name": "transferOwnership",
      "outputs": [],
      "stateMutability": "nonpayable",
      "type": "function"
    }
  ],
  "bytecode": "0x60808060405234605a5760008054336001600160a01b0319821681178355916001600160a01b03909116907f8be0079c531659141344cd1fd0a4f28419497f9722a3daafe3b4186f6b6457e09080a3610a5690816100608239f35b600080fdfe608080604052600436101561001357600080fd5b60003560e01c9081632bfec46d146107ad575080632f5d55ea146107685780633f1b38bb1461071e5780636c4a4c7b1461071e578063715018a6146106c55780638da5cb5b1461069c57806396a8a8d91461050b578063f1231d70146101c6578063f2fde38b146100ff578063f4f62b6d146100e15763f58514931461009857600080fd5b346100dc5760203660031901126100dc576001600160a01b036100b9610855565b16600052600260205260206100d260406000205461086b565b1515604051908152f35b600080fd5b346100dc5760003660031901126100dc576020600354604051908152f35b346100dc5760203660031901126100dc57610118610855565b6101206109c8565b6001600160a01b0316801561017257600080546001600160a01b03198116831782556001600160a01b0316907f8be0079c531659141344cd1fd0a4f28419497f9722a3daafe3b4186f6b6457e09080a3005b60405162461bcd60e51b815260206004820152602660248201527f4f776e61626c653a206e6577206f776e657220697320746865207a65726f206160448201526564647265737360d01b6064820152608490fd5b346100dc5760603660031901126100dc5760043567ffffffffffffffff81116100dc576101f79036906004016107eb565b6024359060058210156100dc576044356001600160a01b03811693908490036100dc576102226109c8565b81156104b85783156104675760405182828237600181840190815281900360200190206001600160a01b0390610259908590610999565b541661040f5761027d83604051848482376020818681016001815203019020610999565b80546001600160a01b03191685179055600084815260026020526040902067ffffffffffffffff83116103f9576102b4815461086b565b601f81116103bc575b50826000601f82116001146103595760009161034e575b508360011b906000198560031b1c19161790555b6003546000198114610338576001016003558160405192839283378101600081520390207f4047ff2317bde89a390fd7d6fbe516b1a2b431ed357548d7fa72d3b26e2d32b76020604051428152a4005b634e487b7160e01b600052601160045260246000fd5b9050820135866102d4565b82815260208120915084601f198116825b8181106103a1575010610387575b5050600183811b0190556102e8565b830135600019600386901b60f8161c191690558580610378565b8684013585556001909401936020938401938893500161036a565b6103e990826000526020600020601f860160051c810191602087106103ef575b601f0160051c01906109b1565b856102bd565b90915081906103dc565b634e487b7160e01b600052604160045260246000fd5b60405162461bcd60e51b815260206004820152602a60248201527f534d415254557365726e616d6552656769737472793a20757365726e616d652b6044820152693937b632903a30b5b2b760b11b6064820152608490fd5b60405162461bcd60e51b815260206004820152602360248201527f534d415254557365726e616d6552656769737472793a207a65726f206164647260448201526265737360e81b6064820152608490fd5b60405162461bcd60e51b815260206004820152602560248201527f534d415254557365726e616d6552656769737472793a20656d70747920757365604482015264726e616d6560d81b6064820152608490fd5b346100dc5761051936610819565b916105226109c8565b60405182828237600181840190815281900360200190206001600160a01b039061054d908590610999565b541680156106495761057384604051858582376020818781016001815203019020610999565b6bffffffffffffffffffffffff60a01b81541690556000526002602052604060002061059f815461086b565b9081610605575b505081604051928392833781016000815203902060058210156105ef577f549bb8560af62467597e5f0d46ef19d930475067fbdcea5943a0c33a1565e2c06020604051428152a3005b634e487b7160e01b600052602160045260246000fd5b81601f6000931160011461061d5750555b83806105a6565b8183526020832061063991601f0160051c8101906001016109b1565b8082528160208120915555610616565b60405162461bcd60e51b815260206004820152602560248201527f534d415254557365726e616d6552656769737472793a206e6f742072656769736044820152641d195c995960da1b6064820152608490fd5b346100dc5760003660031901126100dc576000546040516001600160a01b039091168152602090f35b346100dc5760003660031901126100dc576106de6109c8565b600080546001600160a01b0319811682556001600160a01b03167f8be0079c531659141344cd1fd0a4f28419497f9722a3daafe3b4186f6b6457e08280a3005b346100dc5760203660031901126100dc576001600160a01b0361073f610855565b16600052600260205261076461075860406000206108a5565b60405191829182610950565b0390f35b346100dc576020806107a361077c36610819565b9390918260405193849283376001908201908152030190206001600160a01b039290610999565b5416604051908152f35b346100dc576020906107e06107c136610819565b918190853783019260018452848160018060a01b039503019020610999565b541615604051908152f35b9181601f840112156100dc5782359167ffffffffffffffff83116100dc57602083818601950101116100dc57565b60406003198201126100dc576004359067ffffffffffffffff82116100dc57610844916004016107eb565b909160243560058110156100dc5790565b600435906001600160a01b03821682036100dc57565b90600182811c9216801561089b575b602083101461088557565b634e487b7160e01b600052602260045260246000fd5b91607f169161087a565b90604051916000908054906108b98261086b565b808652916001811690811561093257506001146108f7575b5050829003601f01601f1916820167ffffffffffffffff8111838210176103f957604052565b90915060005260206000206000905b82821061091c57506020915083010138806108d1565b6001816020925483858901015201910190610906565b9150506020925060ff191682850152151560051b83010138806108d1565b91909160208152825180602083015260005b818110610983575060409293506000838284010152601f8019910116010190565b8060208092870101516040828601015201610962565b9060058110156105ef57600052602052604060002090565b8181106109bc575050565b600081556001016109b1565b6000546001600160a01b031633036109dc57565b606460405162461bcd60e51b815260206004820152602060248201527f4f776e61626c653a2063616c6c6572206973206e6f7420746865206f776e65726044820152fdfea26469706673582212204d9f07029ab83323749375653dc54cab064fd2c3e568a86bbd72ebee9a9d20c664736f6c634300081e0033",
  "linkReferences": {},
  "deployedLinkReferences": {}
}