{
  "_format": "hh-sol-artifact-1",
  "contractName": "SMARTRelayer",
  "sourceName": "src/account/SMARTRelayer.sol",
  "abi": [
    {
      "inputs": [
        {
          "internalType": "address",
          "name": "_lifecycleContract",
          "type": "address"
        },
        {
          "internalType": "address",
          "name": "_accountFactory",
          "type": "address"
        }
      ],
      "stateMutability": "nonpayable",
      "type": "constructor"
    },
    {
      "anonymous": false,
      "inputs": [
        {
          "indexed": true,
          "internalType": "address",
          "name": "previousOwner",
          "type": "address"
        },
        {
          "indexed": true,
          "internalType": "address",
          "name": "newOwner",
          "type": "address"
        }
      ],
      "name": "OwnershipTransferred",
      "type": "event"
    },
    {
      "anonymous": false,
      "inputs": [
        {
          "indexed": true,
          "internalType": "uint256",
          "name": "tokenId",
          "type": "uint256"
        },
        {
          "indexed": true,
          "internalType": "address",
          "name": "admin",
          "type": "address"
        }
      ],
      "name": "RelayedAdminEmergencyDeprecate",
      "type": "event"
    },
    {
      "anonymous": false,
      "inputs": [
        {
          "indexed": true,
          "internalType": "uint256",
          "name": "tokenId",
          "type": "uint256"
        },
        {
          "indexed": true,
          "internalType": "address",
          "name": "admin",
          "type": "address"
        }
      ],
      "name": "RelayedAdminEmergencyPublish",
      "type": "event"
    },
    {
      "anonymous": false,
      "inputs": [
        {
          "indexed": true,
          "internalType": "uint256",
          "name": "tokenId",
          "type": "uint256"
        },
        {
          "indexed": true,
          "internalType": "address",
          "name": "creator",
          "type": "address"
        }
      ],
      "name": "RelayedCreateModelCard",
      "type": "event"
    },
    {
      "anonymous": false,
      "inputs": [
        {
          "indexed": true,
          "internalType": "uint256",
          "name": "tokenId",
          "type": "uint256"
        },
        {
          "indexed": true,
          "internalType": "address",
          "name": "deprecator",
          "type": "address"
        }
      ],
      "name": "RelayedDeprecateModelCard",
      "type": "event"
    },
    {
      "anonymous": false,
      "inputs": [
        {
          "indexed": true,
          "internalType": "uint256",
          "name": "tokenId",
          "type": "uint256"
        },
        {
          "indexed": true,
          "internalType": "address",
          "name": "publisher",
          "type": "address"
        }
      ],
      "name": "RelayedPublishModelCard",
      "type": "event"
    },
    {
      "anonymous": false,
      "inputs": [
        {
          "indexed": true,
          "internalType": "uint256",
          "name": "tokenId",
          "type": "uint256"
        },
        {
          "indexed": true,
          "internalType": "address",
          "name": "rejector",
          "type": "address"
        }
      ],
      "name": "RelayedRejectModelCard",
      "type": "event"
    },
    {
      "anonymous": false,
      "inputs": [
        {
          "indexed": true,
          "internalType": "uint256",
          "name": "tokenId",
          "type": "uint256"
        },
        {
          "indexed": true,
          "internalType": "address",
          "name": "requester",
          "type": "address"
        }
      ],
      "name": "RelayedRequestRevision",
      "type": "event"
    },
    {
      "anonymous": false,
      "inputs": [
        {
          "indexed": true,
          "internalType": "uint256",
          "name": "tokenId",
          "type": "uint256"
        },
        {
          "indexed": true,
          "internalType": "address",
          "name": "revisor",
          "type": "address"
        }
      ],
      "name": "RelayedReviseModelCard",
      "type": "event"
    },
    {
      "anonymous": false,
      "inputs": [
        {
          "indexed": true,
          "internalType": "uint256",
          "name": "tokenId",
          "type": "uint256"
        },
        {
          "indexed": true,
          "internalType": "address",
          "name": "initiator",
          "type": "address"
        }
      ],
      "name": "RelayedSubmitForEvaluation",
      "type": "event"
    },
    {
      "anonymous": false,
      "inputs": [
        {
          "indexed": true,
          "internalType": "uint256",
          "name": "tokenId",
          "type": "uint256"
        },
        {
          "indexed": true,
          "internalType": "address",
          "name": "validator",
          "type": "address"
        }
      ],
      "name": "RelayedValidateModelCard",
      "type": "event"
    },
    {
      "inputs": [],
      "name": "accountFactory",
      "outputs": [
        {
          "internalType": "contract SMARTAccountFactory",
          "name": "",
          "type": "address"
        }
      ],
      "stateMutability": "view",
      "type": "function"
    },
    {
      "inputs": [
        {
          "internalType": "address",
          "name": "user",
          "type": "address"
        }
      ],
      "name": "getNonce",
      "outputs": [
        {
          "internalType": "uint256",
          "name": "",
          "type": "uint256"
        }
      ],
      "stateMutability": "view",
      "type": "function"
    },
    {
      "inputs": [],
      "name": "lifecycleContract",
      "outputs": [
        {
          "internalType": "contract SMARTLifecycle",
          "name": "",
          "type": "address"
        }
      ],
      "stateMutability": "view",
      "type": "function"
    },
    {
      "inputs": [
        {
          "internalType": "address",
          "name": "",
          "type": "address"
        }
      ],
      "name": "nonces",
      "outputs": [
        {
          "internalType": "uint256",
          "name": "",
          "type": "uint256"
        }
      ],
      "stateMutability": "view",
      "type": "function"
    },
    {
      "inputs": [],
      "name": "owner",
      "outputs": [
        {
          "internalType": "address",
          "name": "",
          "type": "address"
        }
      ],
      "stateMutability": "view",
      "type": "function"
    },
    {
      "inputs": [
        {
          "internalType": "uint256",
          "name": "tokenId",
          "type": "uint256"
        },
        {
          "internalType": "address",
          "name": "admin",
          "type": "address"
        },
        {
          "internalType": "string",
          "name": "reason",
          "type": "string"
        },
        {
          "internalType": "string",
          "name": "justification",
          "type": "string"
        },
        {
          "internalType": "bytes",
          "name": "signature",
          "type": "bytes"
        }
      ],
      "name": "relayAdminEmergencyDeprecate",
      "outputs": [],
      "stateMutability": "nonpayable",
      "type": "function"
    },
    {
      "inputs": [
        {
          "internalType": "uint256",
          "name": "tokenId",
          "type": "uint256"
        },
        {
          "internalType": "address",
          "name": "admin",
          "type": "address"
        },
        {
          "internalType": "string",
          "name": "justification",
          "type": "string"
        },
        {
          "internalType": "bytes",
          "name": "signature",
          "type": "bytes"
        }
      ],
      "name": "relayAdminEmergencyPublish",
      "outputs": [],
      "stateMutability": "nonpayable",
      "type": "function"
    },
    {
      "inputs": [
        {
          "internalType": "address",
          "name": "creator",
          "type": "address"
        },
        {
          "internalType": "string",
          "name": "metadataURI",
          "type": "string"
        },
        {
          "internalType": "bytes32",
          "name": "contentHash",
          "type": "bytes32"
        },
        {
          "internalType": "bytes",
          "name": "signature",
          "type": "bytes"
        }
      ],
      "name": "relayCreateModelCard",
      "outputs": [
        {
          "internalType": "uint256",
          "name": "",
          "type": "uint256"
        }
      ],
      "stateMutability": "nonpayable",
      "type": "function"
    },
    {
      "inputs": [
        {
          "internalType": "uint256",
          "name": "tokenId",
          "type": "uint256"
        },
        {
          "internalType": "address",
          "name": "deprecator",
          "type": "address"
        },
        {
          "internalType": "string",
          "name": "reason",
          "type": "string"
        },
        {
          "internalType": "bytes",
          "name": "signature",
          "type": "bytes"
        }
      ],
      "name": "relayDeprecateModelCard",
      "outputs": [],
      "stateMutability": "nonpayable",
      "type": "function"
    },
    {
      "inputs": [
        {
          "internalType": "uint256",
          "name": "tokenId",
          "type": "uint256"
        },
        {
          "internalType": "address",
          "name": "publisher",
          "type": "address"
        },
        {
          "internalType": "bytes",
          "name": "signature",
          "type": "bytes"
        }
      ],
      "name": "relayPublishModelCard",
      "outputs": [],
      "stateMutability": "nonpayable",
      "type": "function"
    },
    {
      "inputs": [
        {
          "internalType": "uint256",
          "name": "tokenId",
          "type": "uint256"
        },
        {
          "internalType": "address",
          "name": "rejector",
          "type": "address"
        },
        {
          "internalType": "string",
          "name": "reason",
          "type": "string"
        },
        {
          "internalType": "bytes",
          "name": "signature",
          "type": "bytes"
        }
      ],
      "name": "relayRejectModelCard",
      "outputs": [],
      "stateMutability": "nonpayable",
      "type": "function"
    },
    {
      "inputs": [
        {
          "internalType": "uint256",
          "name": "tokenId",
          "type": "uint256"
        },
        {
          "internalType": "address",
          "name": "requester",
          "type": "address"
        },
        {
          "internalType": "string",
          "name": "feedback",
          "type": "string"
        },
        {
          "internalType": "bytes",
          "name": "signature",
          "type": "bytes"
        }
      ],
      "name": "relayRequestRevision",
      "outputs": [],
      "stateMutability": "nonpayable",
      "type": "function"
    },
    {
      "inputs": [
        {
          "internalType": "uint256",
          "name": "tokenId",
          "type": "uint256"
        },
        {
          "internalType": "address",
          "name": "revisor",
          "type": "address"
        },
        {
          "internalType": "string",
          "name": "newMetadataURI",
          "type": "string"
        },
        {
          "internalType": "bytes32",
          "name": "newContentHash",
          "type": "bytes32"
        },
        {
          "internalType": "string",
          "name": "revisionNotes",
          "type": "string"
        },
        {
          "internalType": "bytes",
          "name": "signature",
          "type": "bytes"
        }
      ],
      "name": "relayReviseModelCard",
      "outputs": [],
      "stateMutability": "nonpayable",
      "type": "function"
    },
    {
      "inputs": [
        {
          "internalType": "uint256",
          "name": "tokenId",
          "type": "uint256"
        },
        {
          "internalType": "address",
          "name": "initiator",
          "type": "address"
        },
        {
          "internalType": "bytes",
          "name": "signature",
          "type": "bytes"
        }
      ],
      "name": "relaySubmitForEvaluation",
      "outputs": [],
      "stateMutability": "nonpayable",
      "type": "function"
    },
    {
      "inputs": [
        {
          "internalType": "uint256",
          "name": "tokenId",
          "type": "uint256"
        },
        {
          "internalType": "address",
          "name": "validator",
          "type": "address"
        },
        {
          "internalType": "bytes",
          "name": "signature",
          "type": "bytes"
        }
      ],
      "name": "relayValidateModelCard",
      "outputs": [],
      "stateMutability": "nonpayable",
      "type": "function"
    },
    {
      "inputs": [],
      "name": "renounceOwnership",
      "outputs": [],
      "stateMutability": "nonpayable",
      "type": "function"
    },
    {
      "inputs": [
        {
          "internalType": "address",
          "name": "newOwner",
          "type": "address"
        }
      ],
      "name": "transferOwnership",
      "outputs": [],
      "stateMutability": "nonpayable",
      "type": "function"
    },
    {
      "inputs": [
        {
          "internalType": "address",
          "name": "_newFactory",
          "type": "address"
        }
      ],
      "name": "updateAccountFactory",
      "outputs": [],
      "stateMutability": "nonpayable",
      "type": "function"
    },
    {
      "inputs": [
        {
          "internalType": "address",
          "name": "_newLifecycle",
          "type": "address"
        }
      ],
      "name": "updateLifecycleContract",
      "outputs": [],
      "stateMutability": "nonpayable",
      "type": "function"
    }
  ],
  "bytecode": "0x60803461017257601f61153838819003918201601f19168301916001600160401b0383118484101761017757808492604094855283398101031261017257610052602061004b8361018d565b920161018d565b60008054336001600160a01b0319821681178355604051949290916001600160a01b0316907f8be0079c531659141344cd1fd0a4f28419497f9722a3daafe3b4186f6b6457e09080a36001600160a01b031691821561013057506001600160a01b03169081156100eb5760018060a01b0319600154161760015560018060a01b0319600254161760025560405161139690816101a28239f35b60405162461bcd60e51b815260206004820152601d60248201527f534d41525452656c617965723a20696e76616c696420666163746f72790000006044820152606490fd5b62461bcd60e51b815260206004820152601f60248201527f534d41525452656c617965723a20696e76616c6964206c6966656379636c65006044820152606490fd5b600080fd5b634e487b7160e01b600052604160045260246000fd5b51906001600160a01b03821682036101725756fe608080604052600436101561001357600080fd5b600090813560e01c90816311da40b214610df8575080631b71e70b14610c3a5780631c36074b14610a545780632d0335ab146105a05780632ec57a8014610a085780633024bc961461095557806333fdb462146108ad578063483001f41461070f5780635c5d11f21461065c578063687cd9c114610633578063715018a6146105d95780637ecebe00146105a05780638da5cb5b14610579578063a5e79ac8146104c6578063a6b333e61461041e578063e9dfcfff146103d2578063f2fde38b1461030c578063faed1b261461020a5763ff41ec29146100f257600080fd5b346102075761015b6101568261010736610ed9565b60018060a0989498979395971b0387169687865260036020528661013f61014d60408920546040519283918a87602085019788611085565b03601f198101835282610e4e565b519020906110d7565b610fa3565b8382526003602052604082206101718154610fef565b90556001546001600160a01b0316803b156101f85760405163a36697d360e01b815291839183918290849082906101ac908a600484016110c0565b03925af180156101fc576101e3575b50807f539faa95e3f26545443669874115e25d81f764857500a8dd76e73de4e653928a91a380f35b816101ed91610e4e565b6101f85782386101bb565b8280fd5b6040513d84823e3d90fd5b80fd5b50346102075761027561015661021f36610f3e565b6001600160a01b038216808752600360209081526040808920548151928301878152606087901b6bffffffffffffffffffffffff19169284019290925260548301529196949593919061014d816074810161013f565b81835260036020526040832061028b8154610fef565b905560015483906001600160a01b0316803b1561030857818091602460405180948193639e21263760e01b83528860048401525af180156101fc576102f3575b50807fba5509a8b432154cfcf492406f11e79492e9c5c5e483b15312398d1eea0d86c791a380f35b816102fd91610e4e565b6101f85782386102cb565b5080fd5b503461020757602036600319011261020757610326610e38565b61032e61112a565b6001600160a01b0316801561037e5781546001600160a01b03198116821783556001600160a01b03167f8be0079c531659141344cd1fd0a4f28419497f9722a3daafe3b4186f6b6457e08380a380f35b60405162461bcd60e51b815260206004820152602660248201527f4f776e61626c653a206e6577206f776e657220697320746865207a65726f206160448201526564647265737360d01b6064820152608490fd5b5034610207576020366003190112610207576103ec610e38565b6103f461112a565b6001600160a01b0316610408811515611039565b6001600160601b0360a01b600154161760015580f35b50346102075761043361015661021f36610f3e565b8183526003602052604083206104498154610fef565b905560015483906001600160a01b0316803b156103085781809160246040518094819363c997116b60e01b83528860048401525af180156101fc576104b1575b50807fd01f81e9b769d36d4838a7aa3fb30ebed42135e4290f139099f844c4c2484bff91a380f35b816104bb91610e4e565b6101f8578238610489565b5034610207576104dc6101568261010736610ed9565b8382526003602052604082206104f28154610fef565b90556001546001600160a01b0316803b156101f857604051630245e3f160e31b8152918391839182908490829061052d908a600484016110c0565b03925af180156101fc57610564575b50807fe3bba44cf9ce3b4b8f892e4288e450f81bba66d850cad2a627c25ac62e61abef91a380f35b8161056e91610e4e565b6101f857823861053c565b5034610207578060031936011261020757546040516001600160a01b039091168152602090f35b5034610207576020366003190112610207576020906040906001600160a01b036105c8610e38565b168152600383522054604051908152f35b50346102075780600319360112610207576105f261112a565b80546001600160a01b03198116825581906001600160a01b03167f8be0079c531659141344cd1fd0a4f28419497f9722a3daafe3b4186f6b6457e08280a380f35b50346102075780600319360112610207576002546040516001600160a01b039091168152602090f35b5034610207576106726101568261010736610ed9565b8382526003602052604082206106888154610fef565b90556001546001600160a01b0316803b156101f857604051630eed4e9360e41b815291839183918290849082906106c3908a600484016110c0565b03925af180156101fc576106fa575b50807ff0da4d382b2cdf0e057534c61e3e1225be3a21eeb5db9f61bc2c9d7f1edb922991a380f35b8161070491610e4e565b6101f85782386106d2565b503461020757608036600319011261020757610729610e38565b906024356001600160401b03811161030857610749903690600401610e85565b91604435926064356001600160401b0381116108a9576020916107de61015661077961082c943690600401610e85565b60018060a01b038716968789526003875260408920548a61014d60406034815180948d8201966001600160601b03198960601b1688528c6107c4815160209281938888019101610f80565b83019184830152605482015203018b810184520182610e4e565b83855260038352604085206107f38154610fef565b905560018060a01b03600154169085604051809881958294632c23038160e21b8452896004850152606060248501526064840190611014565b90604483015203925af19081156101fc578291610874575b60209350817facb6729f8ec9d0f676b0c73ec055761b1b73dd90c6234ce0173cfddd0c6012726040519480a38152f35b90506020833d6020116108a1575b8161088f60209383610e4e565b81010312610308576020925190610844565b3d9150610882565b8380fd5b5034610207576108c261015661021f36610f3e565b8183526003602052604083206108d88154610fef565b905560015483906001600160a01b0316803b1561030857818091602460405180948193631fc287d160e21b83528860048401525af180156101fc57610940575b50807ff44543f7e44ca465d1fa8cd7d8b111204147a8a0b081ade768a19a5cf127559991a380f35b8161094a91610e4e565b6101f8578238610918565b50346102075761096b6101568261010736610ed9565b8382526003602052604082206109818154610fef565b90556001546001600160a01b0316803b156101f85760405163adb66abb60e01b815291839183918290849082906109bc908a600484016110c0565b03925af180156101fc576109f3575b50807fc782ec38a7892f2c6329c879a0f2a1d676acfd24fda47bd21db187f14cdfc23a91a380f35b816109fd91610e4e565b6101f85782386109cb565b503461020757602036600319011261020757610a22610e38565b610a2a61112a565b6001600160a01b0316610a3e811515611039565b6001600160601b0360a01b600254161760025580f35b50346102075760c036600319011261020757600435610a71610e1d565b90826044356001600160401b03811161030857610a92903690600401610e85565b606435906084356001600160401b0381116108a957610ab5903690600401610e85565b60a4356001600160401b038111610c3657610ad4903690600401610e85565b95600160a01b60019003811696878652600360205260408620546040518060208101928a84526001600160601b03198660601b1660408301528751605483018160208b0191610b2292610f80565b8201896054820152875190607481018260208b0191610b4092610f80565b0160540190602082015203602001808252602001610b5e9082610e4e565b519020610b6a926110d7565b610b7390610fa3565b8584526003602052604084208054610b8a90610fef565b90556001546001600160a01b0316803b15610c3657610bd3858094610bea604051978896879586946374cdeb2760e11b86528d6004870152608060248701526084860190611014565b916044850152600319848303016064850152611014565b03925af180156101fc57610c21575b50807fd8ced7f0e936b74a86fc895d88d8041861da4a87af98605c5ba5bc6968bdad9591a380f35b81610c2b91610e4e565b6101f8578238610bf9565b8480fd5b50346102075760a036600319011261020757600435610c57610e1d565b906044356001600160401b0381116108a957610c77903690600401610e85565b836064356001600160401b03811161030857610c97903690600401610e85565b6084356001600160401b0381116101f857610156610cbc610d32923690600401610e85565b60018060a01b038816978886526003602052878561014d60208a60408b205460546040519586938585019889526001600160601b03198a60601b166040860152610d0e81518092888689019101610f80565b8401610d2282518093888685019101610f80565b0101908152038084520182610e4e565b848252600360205260408220610d488154610fef565b90556001546001600160a01b0316803b156101f857610d9083610da2956040519687958694859363c675066d60e01b85528b6004860152606060248601526064850190611014565b83810360031901604485015290611014565b03925af18015610ded57610dd9575b507ffc7cb2b8546fce38abe91f5a3b4feafd31535c289cba030dc1d254383b00cdbb8380a380f35b83610de691949294610e4e565b9138610db1565b6040513d86823e3d90fd5b9050346103085781600319360112610308576001546001600160a01b03168152602090f35b602435906001600160a01b0382168203610e3357565b600080fd5b600435906001600160a01b0382168203610e3357565b90601f801991011681019081106001600160401b03821117610e6f57604052565b634e487b7160e01b600052604160045260246000fd5b81601f82011215610e33576020813591016001600160401b038211610e6f5760405192610ebc601f8401601f191660200185610e4e565b82845282820111610e335781600092602092838601378301015290565b906080600319830112610e3357600435916024356001600160a01b0381168103610e3357916044356001600160401b038111610e335782610f1c91600401610e85565b91606435906001600160401b038211610e3357610f3b91600401610e85565b90565b6060600319820112610e3357600435916024356001600160a01b0381168103610e335791604435906001600160401b038211610e3357610f3b91600401610e85565b60005b838110610f935750506000910152565b8181015183820152602001610f83565b15610faa57565b60405162461bcd60e51b815260206004820152601f60248201527f534d41525452656c617965723a20696e76616c6964207369676e6174757265006044820152606490fd5b6000198114610ffe5760010190565b634e487b7160e01b600052601160045260246000fd5b9060209161102d81518092818552858086019101610f80565b601f01601f1916010190565b1561104057565b60405162461bcd60e51b815260206004820152601d60248201527f534d41525452656c617965723a20696e76616c696420616464726573730000006044820152606490fd5b9091605494939282526001600160601b03199060601b1660208201526110b5825180936020603485019101610f80565b019060348201520190565b604090610f3b939281528160208201520190611014565b9061111992611111917f19457468657265756d205369676e6564204d6573736167653a0a333200000000600052601c52603c600020611182565b9290926111ba565b6001600160a01b0391821691161490565b6000546001600160a01b0316330361113e57565b606460405162461bcd60e51b815260206004820152602060248201527f4f776e61626c653a2063616c6c6572206973206e6f7420746865206f776e65726044820152fd5b9060418151146000146111b0576111ac916020820151906060604084015193015160001a906112d4565b9091565b5050600090600290565b60058110156112be57806111cb5750565b600181036112185760405162461bcd60e51b815260206004820152601860248201527f45434453413a20696e76616c6964207369676e617475726500000000000000006044820152606490fd5b600281036112655760405162461bcd60e51b815260206004820152601f60248201527f45434453413a20696e76616c6964207369676e6174757265206c656e677468006044820152606490fd5b60031461126e57565b60405162461bcd60e51b815260206004820152602260248201527f45434453413a20696e76616c6964207369676e6174757265202773272076616c604482015261756560f01b6064820152608490fd5b634e487b7160e01b600052602160045260246000fd5b7f7fffffffffffffffffffffffffffffff5d576e7357a4501ddfe92f46681b20a084116113545760209360009360ff60809460405194855216868401526040830152606082015282805260015afa15611348576000516001600160a01b0381161561133f5790600090565b50600090600190565b6040513d6000823e3d90fd5b5050505060009060039056fea2646970667358221220454780a4d98c1fe75a67b85f2cc0cb780209485c4b5fd932868af18ff999835e64736f6c634300081e0033",
  "linkReferences": {},
  "deployedLinkReferences": {}
}