{
  "_format": "hh-sol-artifact-1",
  "contractName": "SMARTAccount",
  "sourceName": "src/account/SMARTAccount.sol",
  "abi": [
    {
      "inputs": [
        {
          "internalType": "address",
          "name": "_owner",
          "type": "address"
        },
        {
          "internalType": "string",
          "name": "_username",
          "type": "string"
        },
        {
          "internalType": "enum SMARTRole",
          "name": "_role",
          "type": "uint8"
        }
      ],
      "stateMutability": "nonpayable",
      "type": "constructor"
    },
    {
      "anonymous": false,
      "inputs": [
        {
          "indexed": true,
          "internalType": "address",
          "name": "deactivatedBy",
          "type": "address"
        }
      ],
      "name": "AccountDeactivated",
      "type": "event"
    },
    {
      "anonymous": false,
      "inputs": [
        {
          "indexed": true,
          "internalType": "address",
          "name": "reactivatedBy",
          "type": "address"
        }
      ],
      "name": "AccountReactivated",
      "type": "event"
    },
    {
      "anonymous": false,
      "inputs": [
        {
          "indexed": true,
          "internalType": "address",
          "name": "previousOwner",
          "type": "address"
        },
        {
          "indexed": true,
          "internalType": "address",
          "name": "newOwner",
          "type": "address"
        }
      ],
      "name": "OwnershipTransferred",
      "type": "event"
    },
    {
      "anonymous": false,
      "inputs": [
        {
          "indexed": false,
          "internalType": "enum SMARTRole",
          "name": "previousRole",
          "type": "uint8"
        },
        {
          "indexed": false,
          "internalType": "enum SMARTRole",
          "name": "newRole",
          "type": "uint8"
        }
      ],
      "name": "RoleUpdated",
      "type": "event"
    },
    {
      "anonymous": false,
      "inputs": [
        {
          "indexed": true,
          "internalType": "address",
          "name": "target",
          "type": "address"
        },
        {
          "indexed": false,
          "internalType": "uint256",
          "name": "value",
          "type": "uint256"
        },
        {
          "indexed": false,
          "internalType": "bool",
          "name": "success",
          "type": "bool"
        }
      ],
      "name": "TransactionExecuted",
      "type": "event"
    },
    {
      "stateMutability": "payable",
      "type": "fallback"
    },
    {
      "inputs": [],
      "name": "accountRole",
      "outputs": [
        {
          "internalType": "enum SMARTRole",
          "name": "",
          "type": "uint8"
        }
      ],
      "stateMutability": "view",
      "type": "function"
    },
    {
      "inputs": [],
      "name": "createdAt",
      "outputs": [
        {
          "internalType": "uint256",
          "name": "",
          "type": "uint256"
        }
      ],
      "stateMutability": "view",
      "type": "function"
    },
    {
      "inputs": [],
      "name": "deactivate",
      "outputs": [],
      "stateMutability": "nonpayable",
      "type": "function"
    },
    {
      "inputs": [
        {
          "internalType": "address",
          "name": "target",
          "type": "address"
        },
        {
          "internalType": "uint256",
          "name": "value",
          "type": "uint256"
        },
        {
          "internalType": "bytes",
          "name": "data",
          "type": "bytes"
        }
      ],
      "name": "execute",
      "outputs": [
        {
          "internalType": "bytes",
          "name": "result",
          "type": "bytes"
        }
      ],
      "stateMutability": "payable",
      "type": "function"
    },
    {
      "inputs": [
        {
          "internalType": "address[]",
          "name": "targets",
          "type": "address[]"
        },
        {
          "internalType": "uint256[]",
          "name": "values",
          "type": "uint256[]"
        },
        {
          "internalType": "bytes[]",
          "name": "datas",
          "type": "bytes[]"
        }
      ],
      "name": "executeBatch",
      "outputs": [],
      "stateMutability": "payable",
      "type": "function"
    },
    {
      "inputs": [],
      "name": "getAccountInfo",
      "outputs": [
        {
          "internalType": "address",
          "name": "_owner",
          "type": "address"
        },
        {
          "internalType": "string",
          "name": "_username",
          "type": "string"
        },
        {
          "internalType": "enum SMARTRole",
          "name": "_role",
          "type": "uint8"
        },
        {
          "internalType": "bool",
          "name": "_isActive",
          "type": "bool"
        },
        {
          "internalType": "uint256",
          "name": "_createdAt",
          "type": "uint256"
        }
      ],
      "stateMutability": "view",
      "type": "function"
    },
    {
      "inputs": [
        {
          "internalType": "enum SMARTRole",
          "name": "minimumRole",
          "type": "uint8"
        }
      ],
      "name": "hasMinimumRole",
      "outputs": [
        {
          "internalType": "bool",
          "name": "",
          "type": "bool"
        }
      ],
      "stateMutability": "view",
      "type": "function"
    },
    {
      "inputs": [
        {
          "internalType": "enum SMARTRole",
          "name": "role",
          "type": "uint8"
        }
      ],
      "name": "hasRole",
      "outputs": [
        {
          "internalType": "bool",
          "name": "",
          "type": "bool"
        }
      ],
      "stateMutability": "view",
      "type": "function"
    },
    {
      "inputs": [],
      "name": "isActive",
      "outputs": [
        {
          "internalType": "bool",
          "name": "",
          "type": "bool"
        }
      ],
      "stateMutability": "view",
      "type": "function"
    },
    {
      "inputs": [],
      "name": "owner",
      "outputs": [
        {
          "internalType": "address",
          "name": "",
          "type": "address"
        }
      ],
      "stateMutability": "view",
      "type": "function"
    },
    {
      "inputs": [],
      "name": "reactivate",
      "outputs": [],
      "stateMutability": "nonpayable",
      "type": "function"
    },
    {
      "inputs": [],
      "name": "renounceOwnership",
      "outputs": [],
      "stateMutability": "nonpayable",
      "type": "function"
    },
    {
      "inputs": [
        {
          "internalType": "address",
          "name": "newOwner",
          "type": "address"
        }
      ],
      "name": "transferOwnership",
      "outputs": [],
      "stateMutability": "nonpayable",
      "type": "function"
    },
    {
      "inputs": [
        {
          "internalType": "enum SMARTRole",
          "name": "newRole",
          "type": "uint8"
        }
      ],
      "name": "updateRole",
      "outputs": [],
      "stateMutability": "nonpayable",
      "type": "function"
    },
    {
      "inputs": [],
      "name": "username",
      "outputs": [
        {
          "internalType": "string",
          "name": "",
          "type": "string"
        }
      ],
      "stateMutability": "view",
      "type": "function"
    },
    {
      "stateMutability": "payable",
      "type": "receive"
    }
  ],
  "bytecode": "0x608060405234610307576110bf8038038061001981610321565b9283398101906060818303126103075780516001600160a01b038116918282036103075760208101516001600160401b03811161030757810184601f82011215610307578051906001600160401b03821161026757610081601f8301601f1916602001610321565b95828752602083830101116103075760005b82811061030c57505060009085016020015260400151916005831015610307576100bc33610346565b156102c25782511561027d576100d190610346565b81516001600160401b03811161026757600154600181811c9116801561025d575b602082101461024757601f81116101e2575b50602092601f821160011461017d5792819293600092610172575b50508160011b916000199060031b1c1916176001555b6000805460ff60a01b191660a09290921b60ff60a01b169190911790556002805460ff1916600117905542600355604051610d31908161038e8239f35b01519050388061011f565b601f198216936001600052806000209160005b8681106101ca57508360019596106101b1575b505050811b01600155610135565b015160001960f88460031b161c191690553880806101a3565b91926020600181928685015181550194019201610190565b60016000527fb10e2d527612073b26eecdfd717e6a320cf44b4afac2b0732d9fcbe2b7fa0cf6601f830160051c8101916020841061023d575b601f0160051c01905b8181106102315750610104565b60008155600101610224565b909150819061021b565b634e487b7160e01b600052602260045260246000fd5b90607f16906100f2565b634e487b7160e01b600052604160045260246000fd5b60405162461bcd60e51b815260206004820152601c60248201527f534d4152544163636f756e743a20656d70747920757365726e616d65000000006044820152606490fd5b60405162461bcd60e51b815260206004820152601b60248201527f534d4152544163636f756e743a20696e76616c6964206f776e657200000000006044820152606490fd5b600080fd5b80602080928401015182828a01015201610093565b6040519190601f01601f191682016001600160401b0381118382101761026757604052565b600080546001600160a01b039283166001600160a01b03198216811783559216907f8be0079c531659141344cd1fd0a4f28419497f9722a3daafe3b4186f6b6457e09080a356fe60806040526004361015610010575b005b60003560e01c806319e0755c146101005780631b9e16ad146100fb57806322f3e2d4146100f657806347e1da2a146100f157806351b42b00146100ec57806361765a26146100e757806361fac54d146100e2578063715018a6146100dd5780638da5cb5b146100d857806390ef5777146100d3578063b61d27f6146100ce578063c2e84a23146100c9578063cf09e0d0146100c4578063d18611d6146100bf5763f2fde38b0361000e57610948565b6108ad565b61088f565b61083f565b6107c9565b610779565b610750565b6106f7565b6106c7565b610531565b61048e565b6102a3565b61024f565b6101dc565b610125565b60209060031901126101205760043560058110156101205790565b600080fd5b346101205761013336610105565b60ff6002541680610151575b604051901515815280602081015b0390f35b5060ff60005460a01c169060058110156101785760058210156101785761014d911461013f565b634e487b7160e01b600052602160045260246000fd5b919082519283825260005b8481106101ba575050826000602080949584010152601f8019910116010190565b80602080928401015182828601015201610199565b9060058210156101785752565b346101205760003660031901126101205761022e60005460ff60025416906003546102056105ec565b6040516001600160a01b038416815260a060208201819052909586959261023f9287019061018e565b9360ff604087019160a01c166101cf565b1515606084015260808301520390f35b3461012057600036600319011261012057602060ff600254166040519015158152f35b9181601f840112156101205782359167ffffffffffffffff8311610120576020808501948460051b01011161012057565b60603660031901126101205760043567ffffffffffffffff8111610120576102cf903690600401610272565b60243567ffffffffffffffff8111610120576102ef903690600401610272565b919060443567ffffffffffffffff811161012057610311903690600401610272565b93909261031c610ca3565b61033061032b60025460ff1690565b610a17565b81811480610485575b61034290610a62565b60005b81811061034e57005b61037a61037361036761036284868c610ad0565b610ae5565b6001600160a01b031690565b1515610aef565b60008061038b61036284868c610ad0565b610396848789610ad0565b356103a2858b8b610b3b565b91906103b360405180948193610b7d565b03925af16103bf610b8b565b906103ce61036284868c610ad0565b7ffb04f5456ba4dadf3b50c2335860f8832b49b85d0f6c23a86c79d640d6ea3c5e826103fb86898b610ad0565b604080519135825291151560208201526001600160a01b039390931692a2156104275750600101610345565b805190816104805760405162461bcd60e51b8152602060048201526024808201527f534d4152544163636f756e743a20626174636820657865637574696f6e2066616044820152631a5b195960e21b6064820152608490fd5b602001fd5b50818514610339565b34610120576000366003190112610120576104a7610ca3565b60025460ff8116156104e25760ff1916600255337f21831c2238658baa66ab1895cb18bdeaf2bea535a3df6126b7ada38425748375600080a2005b60405162461bcd60e51b815260206004820152602160248201527f534d4152544163636f756e743a20616c726561647920646561637469766174656044820152601960fa1b6064820152608490fd5b346101205761053f36610105565b610547610ca3565b60005460058210156101785760ff6105ac7f91fee875f0fad0825d7d410a1ebb8b98e40bbde37e47eacccfe12b6b2a0923fb936105a26040948460a01b8360a01b168560a01b19821617600055855194859160a01c166101cf565b60208301906101cf565ba1005b634e487b7160e01b600052604160045260246000fd5b90601f8019910116810190811067ffffffffffffffff8211176105e757604052565b6105af565b604051906000600154908160011c91600181169081156106bd575b6020841082146106a95783865285929160208401918115610690575060011461063a575b50610638925003836105c5565b565b6001600090815291507fb10e2d527612073b26eecdfd717e6a320cf44b4afac2b0732d9fcbe2b7fa0cf65b84831061067957506106389350013861062b565b805482840152869350602090920191600101610665565b60ff191682525061063893151560051b0190503861062b565b634e487b7160e01b83526022600452602483fd5b92607f1692610607565b346101205760003660031901126101205761014d6106e36105ec565b60405191829160208352602083019061018e565b3461012057600036600319011261012057610710610ca3565b600080546001600160a01b0319811682556001600160a01b03167f8be0079c531659141344cd1fd0a4f28419497f9722a3daafe3b4186f6b6457e08280a3005b34610120576000366003190112610120576000546040516001600160a01b039091168152602090f35b3461012057600036600319011261012057602060ff60005460a01c166107a260405180926101cf565bf35b6001600160a01b0381160361012057565b9060206107c692818152019061018e565b90565b6060366003190112610120576004356107e1816107a4565b60443567ffffffffffffffff8111610120573660238201121561012057806004013567ffffffffffffffff81116101205736602482840101116101205761014d92602461083393019060243590610bcb565b604051918291826107b5565b346101205761084d36610105565b60ff6002541680610865576040519015158152602090f35b5060ff60005460a01c1660058110156101785760058210156101785760ff61014d9216111561013f565b34610120576000366003190112610120576020600354604051908152f35b34610120576000366003190112610120576108c6610ca3565b60025460ff81166109035760ff1916600117600255337fe59051bfc78cdbcab6d5743d762e138b550c6c7c41db05ee5d0812ba1be1176c600080a2005b60405162461bcd60e51b815260206004820152601c60248201527f534d4152544163636f756e743a20616c726561647920616374697665000000006044820152606490fd5b3461012057602036600319011261012057600435610965816107a4565b61096d610ca3565b6001600160a01b038116156109c357600080546001600160a01b039283166001600160a01b03198216811783559216907f8be0079c531659141344cd1fd0a4f28419497f9722a3daafe3b4186f6b6457e09080a3005b60405162461bcd60e51b815260206004820152602660248201527f4f776e61626c653a206e6577206f776e657220697320746865207a65726f206160448201526564647265737360d01b6064820152608490fd5b15610a1e57565b606460405162461bcd60e51b815260206004820152602060248201527f534d4152544163636f756e743a206163636f756e74206e6f74206163746976656044820152fd5b15610a6957565b60405162461bcd60e51b815260206004820152602360248201527f534d4152544163636f756e743a206172726179206c656e677468206d69736d616044820152620e8c6d60eb1b6064820152608490fd5b634e487b7160e01b600052603260045260246000fd5b9190811015610ae05760051b0190565b610aba565b356107c6816107a4565b15610af657565b60405162461bcd60e51b815260206004820152601c60248201527f534d4152544163636f756e743a20696e76616c696420746172676574000000006044820152606490fd5b9190811015610ae05760051b81013590601e198136030182121561012057019081359167ffffffffffffffff8311610120576020018236038113610120579190565b908092918237016000815290565b3d15610bc6573d9067ffffffffffffffff82116105e75760405191610bba601f8201601f1916602001846105c5565b82523d6000602084013e565b606090565b60009193908291610bda610ca3565b610be860ff60025416610a17565b6001600160a01b038216948690610c00871515610aef565b826040519384928337810185815203925af1907ffb04f5456ba4dadf3b50c2335860f8832b49b85d0f6c23a86c79d640d6ea3c5e82610c3d610b8b565b60408051968752911515602087015294a215610c565790565b805190816104805760405162461bcd60e51b815260206004820152601e60248201527f534d4152544163636f756e743a20657865637574696f6e206661696c656400006044820152606490fd5b6000546001600160a01b03163303610cb757565b606460405162461bcd60e51b815260206004820152602060248201527f4f776e61626c653a2063616c6c6572206973206e6f7420746865206f776e65726044820152fdfea26469706673582212206de43e80bd140c78aded54af14a466dfb6b8799241166beca94720893bdb581064736f6c634300081e0033",
  "linkReferences": {},
  "deployedLinkReferences": {}
}