{
  "_format": "hh-sol-artifact-1",
  "contractName": "SMARTAccountFactory",
  "sourceName": "src/account/SMARTAccountFactory.sol",
  "abi": [
    {
      "inputs": [
        {
          "internalType": "address",
          "name": "_usernameRegistry",
          "type": "address"
        }
      ],
      "stateMutability": "nonpayable",
      "type": "constructor"
    },
    {
      "anonymous": false,
      "inputs": [
        {
          "indexed": true,
          "internalType": "string",
          "name": "username",
          "type": "string"
        },
        {
          "indexed": true,
          "internalType": "enum SMARTRole",
          "name": "role",
          "type": "uint8"
        },
        {
          "indexed": true,
          "internalType": "address",
          "name": "account",
          "type": "address"
        },
        {
          "indexed": false,
          "internalType": "address",
          "name": "owner",
          "type": "address"
        },
        {
          "indexed": false,
          "internalType": "uint256",
          "name": "timestamp",
          "type": "uint256"
        }
      ],
      "name": "AccountCreated",
      "type": "event"
    },
    {
      "anonymous": false,
      "inputs": [
        {
          "indexed": true,
          "internalType": "address",
          "name": "previousOwner",
          "type": "address"
        },
        {
          "indexed": true,
          "internalType": "address",
          "name": "newOwner",
          "type": "address"
        }
      ],
      "name": "OwnershipTransferred",
      "type": "event"
    },
    {
      "anonymous": false,
      "inputs": [
        {
          "indexed": true,
          "internalType": "address",
          "name": "previousRelayer",
          "type": "address"
        },
        {
          "indexed": true,
          "internalType": "address",
          "name": "newRelayer",
          "type": "address"
        }
      ],
      "name": "RelayerUpdated",
      "type": "event"
    },
    {
      "inputs": [
        {
          "internalType": "string",
          "name": "username",
          "type": "string"
        },
        {
          "internalType": "enum SMARTRole",
          "name": "role",
          "type": "uint8"
        }
      ],
      "name": "accountExists",
      "outputs": [
        {
          "internalType": "bool",
          "name": "",
          "type": "bool"
        }
      ],
      "stateMutability": "view",
      "type": "function"
    },
    {
      "inputs": [
        {
          "internalType": "string",
          "name": "",
          "type": "string"
        },
        {
          "internalType": "enum SMARTRole",
          "name": "",
          "type": "uint8"
        }
      ],
      "name": "accountOfUsername",
      "outputs": [
        {
          "internalType": "address",
          "name": "",
          "type": "address"
        }
      ],
      "stateMutability": "view",
      "type": "function"
    },
    {
      "inputs": [
        {
          "internalType": "address",
          "name": "",
          "type": "address"
        },
        {
          "internalType": "uint256",
          "name": "",
          "type": "uint256"
        }
      ],
      "name": "accountsOfOwner",
      "outputs": [
        {
          "internalType": "address",
          "name": "",
          "type": "address"
        }
      ],
      "stateMutability": "view",
      "type": "function"
    },
    {
      "inputs": [
        {
          "internalType": "address",
          "name": "owner",
          "type": "address"
        },
        {
          "internalType": "string",
          "name": "username",
          "type": "string"
        },
        {
          "internalType": "enum SMARTRole",
          "name": "role",
          "type": "uint8"
        }
      ],
      "name": "computeAddress",
      "outputs": [
        {
          "internalType": "address",
          "name": "",
          "type": "address"
        }
      ],
      "stateMutability": "view",
      "type": "function"
    },
    {
      "inputs": [
        {
          "internalType": "address",
          "name": "owner",
          "type": "address"
        },
        {
          "internalType": "string",
          "name": "username",
          "type": "string"
        },
        {
          "internalType": "enum SMARTRole",
          "name": "role",
          "type": "uint8"
        }
      ],
      "name": "createAccount",
      "outputs": [
        {
          "internalType": "address",
          "name": "accountAddress",
          "type": "address"
        }
      ],
      "stateMutability": "nonpayable",
      "type": "function"
    },
    {
      "inputs": [
        {
          "internalType": "address",
          "name": "owner",
          "type": "address"
        },
        {
          "internalType": "string",
          "name": "username",
          "type": "string"
        }
      ],
      "name": "createAllRoleAccounts",
      "outputs": [
        {
          "internalType": "address[]",
          "name": "accounts",
          "type": "address[]"
        }
      ],
      "stateMutability": "nonpayable",
      "type": "function"
    },
    {
      "inputs": [
        {
          "internalType": "string",
          "name": "username",
          "type": "string"
        },
        {
          "internalType": "enum SMARTRole",
          "name": "role",
          "type": "uint8"
        }
      ],
      "name": "getAccount",
      "outputs": [
        {
          "internalType": "address",
          "name": "",
          "type": "address"
        }
      ],
      "stateMutability": "view",
      "type": "function"
    },
    {
      "inputs": [
        {
          "internalType": "address",
          "name": "owner",
          "type": "address"
        }
      ],
      "name": "getAccountsOfOwner",
      "outputs": [
        {
          "internalType": "address[]",
          "name": "",
          "type": "address[]"
        }
      ],
      "stateMutability": "view",
      "type": "function"
    },
    {
      "inputs": [],
      "name": "owner",
      "outputs": [
        {
          "internalType": "address",
          "name": "",
          "type": "address"
        }
      ],
      "stateMutability": "view",
      "type": "function"
    },
    {
      "inputs": [
        {
          "internalType": "address",
          "name": "",
          "type": "address"
        }
      ],
      "name": "ownerOfAccount",
      "outputs": [
        {
          "internalType": "address",
          "name": "",
          "type": "address"
        }
      ],
      "stateMutability": "view",
      "type": "function"
    },
    {
      "inputs": [],
      "name": "relayer",
      "outputs": [
        {
          "internalType": "address",
          "name": "",
          "type": "address"
        }
      ],
      "stateMutability": "view",
      "type": "function"
    },
    {
      "inputs": [],
      "name": "renounceOwnership",
      "outputs": [],
      "stateMutability": "nonpayable",
      "type": "function"
    },
    {
      "inputs": [
        {
          "internalType": "address",
          "name": "newRelayer",
          "type": "address"
        }
      ],
      "name": "setRelayer",
      "outputs": [],
      "stateMutability": "nonpayable",
      "type": "function"
    },
    {
      "inputs": [
        {
          "internalType": "address",
          "name": "newRegistry",
          "type": "address"
        }
      ],
      "name": "setUsernameRegistry",
      "outputs": [],
      "stateMutability": "nonpayable",
      "type": "function"
    },
    {
      "inputs": [],
      "name": "totalAccounts",
      "outputs": [
        {
          "internalType": "uint256",
          "name": "",
          "type": "uint256"
        }
      ],
      "stateMutability": "view",
      "type": "function"
    },
    {
      "inputs": [
        {
          "internalType": "address",
          "name": "newOwner",
          "type": "address"
        }
      ],
      "name": "transferOwnership",
      "outputs": [],
      "stateMutability": "nonpayable",
      "type": "function"
    },
    {
      "inputs": [],
      "name": "usernameRegistry",
      "outputs": [
        {
          "internalType": "contract SMARTUsernameRegistry",
          "name": "",
          "type": "address"
        }
      ],
      "stateMutability": "view",
      "type": "function"
    }
  ],
  "bytecode": "0x60803461012057601f6130de38819003918201601f19168301916001600160401b038311848410176101255780849260209460405283398101031261012057516001600160a01b038116908190036101205760008054336001600160a01b03198216811783556040519290916001600160a01b0316907f8be0079c531659141344cd1fd0a4f28419497f9722a3daafe3b4186f6b6457e09080a381156100d05750600180546001600160a01b03199081169290921790556002805490911633179055604051612fa2908161013c8239f35b62461bcd60e51b815260206004820152602560248201527f534d4152544163636f756e74466163746f72793a20696e76616c696420726567604482015264697374727960d81b6064820152608490fd5b600080fd5b634e487b7160e01b600052604160045260246000fdfe6080604052600436101561001257600080fd5b6000803560e01c8063275c6ae514611b7f57806358451f9714611b615780636548e9bc14611af65780636d65fc2114611a57578063715018a6146119fd5780638406c079146119d45780638da5cb5b146119ad5780638ef874531461194c578063a1f676e31461192e578063aaae8a75146118a7578063b1f8fd561461159d578063bb80698914611484578063be46ee9c14611443578063c048eea3146113f2578063c57f6c38146113c9578063f1e46cce146101a05763f2fde38b146100d857600080fd5b3461019d57602036600319011261019d576100f1611c97565b6100f9611e35565b6001600160a01b031680156101495781546001600160a01b03198116821783556001600160a01b03167f8be0079c531659141344cd1fd0a4f28419497f9722a3daafe3b4186f6b6457e08380a380f35b60405162461bcd60e51b815260206004820152602660248201527f4f776e61626c653a206e6577206f776e657220697320746865207a65726f206160448201526564647265737360d01b6064820152608490fd5b80fd5b503461019d57604036600319011261019d576101ba611c97565b60243567ffffffffffffffff81116113c5576101da903690600401611c00565b90604051916101ea60c084611bc8565b600583526020830160a03682376001600160a01b038316923384148015929080846113b1575b801561139e575b1561106057851561134e5784511561100f576040519385519461025f8a602089019761024481858b611cdb565b8301926003845260208160018060a01b039503019020611cfe565b5416610fac578460405161029a6001828d60208c61028582850198899251928391611cdb565b8301019081520301601f198101835282611bc8565b51902092604051936110bf948581019681881067ffffffffffffffff891117611170576102d18d8b8493611e8e9b8b8d8739611e03565b03908cf580156111845760405188516001600160a01b03929092169291610313918d91602090829061030481838f611cdb565b81016003815203019020611cfe565b80546001600160a01b03199081166001600160a01b03851617909155828c52600460209081526040808e2080549093168c179092558a8d52600590528b20805490600160401b821015611170579061037091600182018155611cad565b81546001600160a01b0360039290921b91821b19169084901b179055600654600019811461115c576001016006558a6103e260206103d78b60018060a01b0360015416946040519485938493632bfec46d60e01b8552604060048601526044850190611dd1565b916024840190611df6565b0381855afa908115611151578d91611313575b5015610ebd57808c913b1561130f578161042f81928c604051948580948193630f1231d760e41b8352606060048401526064830190611dd1565b61043c6024830184611df6565b8a604483015203925af18015611103576112fa575b50604051895184929190819061046881838e611cdb565b8101039020600080516020612f4d83398151915260408d8151908152426020820152a48951156110d6575281816112e6575b80156112d3575b1561106057600086511561100f576040516104de600189516104c481858c611cdb565b83019260038452602081838060a01b039503019020611cfe565b5416610fac5760405187516020828101929161051d9160019184919061050581888f611cdb565b8201018260f81b81520301601f198101835282611bc8565b51902060405185810181811067ffffffffffffffff821117611170578190878983398b815260606020820152610565604061055c8d6060850190611dd1565b92016001611df6565b03908cf580156111845760405188516001600160a01b03929092169161059891600191602090829061030481838f611cdb565b80546001600160a01b03199081166001600160a01b03841617909155818c52600460209081526040808e2080549093168c179092558a8d52600590528b20805490600160401b82101561117057906105f591600182018155611cad565b81546001600160a01b0360039290921b91821b19169083901b179055600654600019811461115c5760010160065560018060a01b0360015416604051632bfec46d60e01b81526040600482015261064f604482018b611dd1565b8180602092600160248301520381855afa908115611151578d91611298575b5015610ebd57803b1561110e57604051630f1231d760e41b8152606060048201529061069d606483018b611dd1565b8280928f94858181956001602483015289604483015203925af1801561110357611283575b50506040518851829160019181906106db81838e611cdb565b8101039020600080516020612f4d83398151915260408d8151908152426020820152a48951600110156110d65760408a0152828261126f575b801561125c575b15611060575085511561100f5760405161073d6002885161024481858b611cdb565b5416610fac5760405186516020828101929161077c9160019184919061076481888e611cdb565b8201018260f91b81520301601f198101835282611bc8565b51902060405184810181811067ffffffffffffffff82111761123d578190868883398a8152606060208201526107c360406107ba606084018d611dd1565b92016002611df6565b03908bf580156112515760405187516001600160a01b0392909216916107f691600291602090829061030481838e611cdb565b80546001600160a01b03199081166001600160a01b03841617909155818b52600460209081526040808d2080549093168b17909255898c52600590528a20805490600160401b82101561123d579061085391600182018155611cad565b81546001600160a01b0360039290921b91821b19169083901b17905560065460001981146112295760010160065560018060a01b0360015416604051632bfec46d60e01b8152604060048201526108ad604482018a611dd1565b8180602092600260248301520381855afa90811561121e578c916111e3575b5015610ebd57803b156110ff57604051630f1231d760e41b8152606060048201526108fa606482018a611dd1565b91818d939181858181956002602483015289604483015203925af18015611103576111ca575b5050806002604051808a5161093681838d611cdb565b8101039020600080516020612f4d833981519152604080518d8152426020820152a48851600210156111b657606089015281816111a2575b801561118f575b156110605760009186511561100f576040516109b66003895161099981858c611cdb565b83018181528390036020019092206001600160a01b039290611cfe565b5416610fac576040518751602082810192916109f6916001918491906109dd81888f611cdb565b820101600360f81b81520301601f198101835282611bc8565b51902060405185810181811067ffffffffffffffff821117611170578190878983398b815260606020820152610a3e6040610a358d6060850190611dd1565b92016003611df6565b03908cf580156111845760405188516001600160a01b039290921691610a7f916003916020908290610a7181838f611cdb565b810184815203019020611cfe565b80546001600160a01b03199081166001600160a01b03841617909155818c52600460209081526040808e2080549093168c179092558a8d52600590528b20805490600160401b8210156111705790610adc91600182018155611cad565b81546001600160a01b0360039290921b91821b19169083901b179055600654600019811461115c5760010160065560018060a01b0360015416604051632bfec46d60e01b815260406004820152610b36604482018b611dd1565b8180602092600360248301520381855afa908115611151578d91611112575b5015610ebd57803b1561110e57604051630f1231d760e41b81526060600482015290610b84606483018b611dd1565b8280928f94858181956003602483015289604483015203925af18015611103576110ea575b5050604051885182916003918190610bc281838e611cdb565b8101039020600080516020612f4d83398151915260408d8151908152426020820152a48951600310156110d65760808a0152906110c2575b80156110af575b15611060575083511561100f57604051610c2360048651610244818589611cdb565b5416610fac576040516020810190610c5e60018260208951610c4681888c611cdb565b8201018260fa1b81520301601f198101835282611bc8565b51902091604051918083019183831067ffffffffffffffff841117610f985790839291833986815260606020820152610ca86040610c9f6060840189611dd1565b92016004611df6565b039087f58015610f8d5760018060a01b031692610cd36004604051602081875161030481838a611cdb565b80546001600160a01b03199081166001600160a01b0387161790915584875260046020908152604080892080549093168417909255828852600590528620805490600160401b821015610f795790610d3091600182018155611cad565b81546001600160a01b0360039290921b91821b19169086901b1790556006546000198114610f655760010160065560018060a01b036001541691604051632bfec46d60e01b815260406004820152610d8b6044820186611dd1565b8180602092600460248301520381875afa908115610f5a578891610f1b575b5015610ebd57823b15610eb957604051630f1231d760e41b81526060600482015292610dd96064850186611dd1565b90848992918184818195600460248301528c604483015203925af1938415610e96578694610e77575b50506040610e2d600080516020612f4d83398151915292600495968351928392839251928391611cdb565b8101039020928151908152426020820152a4815160041015610e6357610e5f925060a082015260405191829182611d16565b0390f35b634e487b7160e01b83526032600452602483fd5b8192945090610e8591611bc8565b610e925783918638610e02565b8580fd5b50604051903d90823e3d90fd5b634e487b7160e01b600052602160045260246000fd5b8680fd5b60405162461bcd60e51b815260206004820152603060248201527f534d4152544163636f756e74466163746f72793a20757365726e616d652b726f60448201526f36329030b63932b0b23c903a30b5b2b760811b6064820152608490fd5b90506020813d602011610f52575b81610f3660209383611bc8565b81010312610f4e57518015158103610f4e5738610daa565b8780fd5b3d9150610f29565b6040513d8a823e3d90fd5b634e487b7160e01b87526011600452602487fd5b634e487b7160e01b88526041600452602488fd5b6040513d87823e3d90fd5b634e487b7160e01b8a52604160045260248afd5b60405162461bcd60e51b815260206004820152603560248201527f534d4152544163636f756e74466163746f72793a206163636f756e742065786960448201527473747320666f7220757365726e616d652b726f6c6560581b6064820152608490fd5b60405162461bcd60e51b815260206004820152602360248201527f534d4152544163636f756e74466163746f72793a20656d70747920757365726e604482015262616d6560e81b6064820152608490fd5b60405162461bcd60e51b815260206004820152602160248201527f534d4152544163636f756e74466163746f72793a20756e617574686f72697a656044820152601960fa1b6064820152608490fd5b5087546001600160a01b03163314610c01565b506002546001600160a01b03163314610bfa565b634e487b7160e01b8b52603260045260248bfd5b816110f491611bc8565b6110ff578a38610ba9565b8a80fd5b6040513d84823e3d90fd5b8b80fd5b90506020813d602011611149575b8161112d60209383611bc8565b81010312611145575180151581036111455738610b55565b8c80fd5b3d9150611120565b6040513d8f823e3d90fd5b634e487b7160e01b8c52601160045260248cfd5b634e487b7160e01b8d52604160045260248dfd5b6040513d8c823e3d90fd5b5088546001600160a01b03163314610975565b506002546001600160a01b0316331461096e565b634e487b7160e01b8a52603260045260248afd5b816111d491611bc8565b6111df578938610920565b8980fd5b90506020813d602011611216575b816111fe60209383611bc8565b8101031261110e5751801515810361110e57386108cc565b3d91506111f1565b6040513d8e823e3d90fd5b634e487b7160e01b8b52601160045260248bfd5b634e487b7160e01b8c52604160045260248cfd5b6040513d8b823e3d90fd5b5089546001600160a01b0316331461071b565b506002546001600160a01b03163314610714565b8161128d91611bc8565b6110ff578a386106c2565b90506020813d6020116112cb575b816112b360209383611bc8565b8101031261114557518015158103611145573861066e565b3d91506112a6565b5088546001600160a01b031633146104a1565b506002546001600160a01b0316331461049a565b8161130491611bc8565b6110ff578a38610451565b5080fd5b90506020813d602011611346575b8161132e60209383611bc8565b810103126111455751801515810361114557386103f5565b3d9150611321565b60405162461bcd60e51b815260206004820152602260248201527f534d4152544163636f756e74466163746f72793a20696e76616c6964206f776e60448201526132b960f11b6064820152608490fd5b5087546001600160a01b03163314610217565b506002546001600160a01b03163314610210565b8280fd5b503461019d578060031936011261019d576001546040516001600160a01b039091168152602090f35b503461019d57602061143761140636611c5c565b8361141d6040949394519485815193849201611cdb565b83019260038452848160018060a01b039503019020611cfe565b54161515604051908152f35b503461019d57602036600319011261019d576020906001600160a01b03611468611c97565b16815260048252604060018060a01b0391205416604051908152f35b503461019d5761149336611d59565b90926005821015611589575061152e61153e60209485604051818101906114cd816114bf898786611da9565b03601f198101835282611bc8565b519020956110bf95611507604051946114e8858a0187611bc8565b88865284860198611e8e8a396114bf6040519384928784019687611e03565b60405195869461151f858701998a9251928391611cdb565b85019151809385840190611cdb565b010103601f198101835282611bc8565b51902090604051918383019160ff60f81b83523060601b60218501526035840152605583015260558252611573607583611bc8565b905190206040516001600160a01b039091168152f35b634e487b7160e01b81526021600452602490fd5b503461019d576115ac36611d59565b90916001600160a01b038116903382148015611893575b8015611880575b1561106057811561134e5783511561100f57604051908451916115f7856020880194610244818588611cdb565b5416610fac57600584101561186c57604051602081019061161d816114bf888a86611da9565b51902090604051906110bf8083019083821067ffffffffffffffff831117610f9857888493611652938a93611e8e8739611e03565b039087f58015610f8d5760018060a01b03169361167c84604051602081855161030481838a611cdb565b80546001600160a01b03199081166001600160a01b0388161790915585875260046020908152604080892080549093168617909255848852600590528620805490600160401b821015610f7957906116d991600182018155611cad565b81546001600160a01b0360039290921b91821b19169087901b1790556006546000198114610f655760010160065560018060a01b0360015416604051632bfec46d60e01b815260406004820152602081806117376044820187611dd1565b611744602483018b611df6565b0381855afa908115610f5a578891611831575b5015610ebd57803b15610eb957866040518092630f1231d760e41b82526060600483015281838161178b6064820189611dd1565b611798602483018d611df6565b8c604483015203925af1801561182657916020979391879695936117f9575b50916117df604092600080516020612f4d833981519152948451928392839251928391611cdb565b8101039020935081519081524288820152a4604051908152f35b6040928561181b600080516020612f4d8339815191529694976117df94611bc8565b9592945092506117b7565b6040513d89823e3d90fd5b90506020813d602011611864575b8161184c60209383611bc8565b81010312610f4e57518015158103610f4e5738611757565b3d915061183f565b634e487b7160e01b86526021600452602486fd5b5084546001600160a01b031633146115ca565b506002546001600160a01b031633146115c3565b503461019d57602036600319011261019d576001600160a01b036118c9611c97565b168152600560205260408120604051918260208354918281520192825260208220915b81811061190f57610e5f8561190381870382611bc8565b60405191829182611d16565b82546001600160a01b03168452602090930192600192830192016118ec565b503461019d57602061194261140636611c5c565b5416604051908152f35b503461019d57604036600319011261019d57611966611c97565b6001600160a01b031681526005602052604081208054602435929083101561019d5760206119948484611cad565b905460405160039290921b1c6001600160a01b03168152f35b503461019d578060031936011261019d57546040516001600160a01b039091168152602090f35b503461019d578060031936011261019d576002546040516001600160a01b039091168152602090f35b503461019d578060031936011261019d57611a16611e35565b80546001600160a01b03198116825581906001600160a01b03167f8be0079c531659141344cd1fd0a4f28419497f9722a3daafe3b4186f6b6457e08280a380f35b503461019d57602036600319011261019d57611a71611c97565b611a79611e35565b6001600160a01b03168015611aa3576bffffffffffffffffffffffff60a01b600154161760015580f35b60405162461bcd60e51b815260206004820152602560248201527f534d4152544163636f756e74466163746f72793a20696e76616c696420726567604482015264697374727960d81b6064820152608490fd5b503461019d57602036600319011261019d57611b10611c97565b611b18611e35565b600280546001600160a01b039283166001600160a01b0319821681179092559091167f605ca4e43489fb38b91aa63dd9147cd3847957694b080b9285ec898b34269f0c8380a380f35b503461019d578060031936011261019d576020600654604051908152f35b503461019d57602090611942611bad83611b9836611c5c565b94508160405193828580945193849201611cdb565b6003908201908152030190206001600160a01b039290611cfe565b90601f8019910116810190811067ffffffffffffffff821117611bea57604052565b634e487b7160e01b600052604160045260246000fd5b81601f82011215611c575780359067ffffffffffffffff8211611bea5760405192611c35601f8401601f191660200185611bc8565b82845260208383010111611c5757816000926020809301838601378301015290565b600080fd5b6040600319820112611c57576004359067ffffffffffffffff8211611c5757611c8791600401611c00565b906024356005811015611c575790565b600435906001600160a01b0382168203611c5757565b8054821015611cc55760005260206000200190600090565b634e487b7160e01b600052603260045260246000fd5b60005b838110611cee5750506000910152565b8181015183820152602001611cde565b906005811015610ea357600052602052604060002090565b602060408183019282815284518094520192019060005b818110611d3a5750505090565b82516001600160a01b0316845260209384019390920191600101611d2d565b906060600319830112611c57576004356001600160a01b0381168103611c5757916024359067ffffffffffffffff8211611c5757611d9991600401611c00565b906044356005811015611c575790565b602090611dbf6001949382815194859201611cdb565b019060ff60f81b9060f81b1681520190565b90602091611dea81518092818552858086019101611cdb565b601f01601f1916010190565b906005821015610ea35752565b939290611e2b611e339360409260018060a01b03168752606060208801526060870190611dd1565b940190611df6565b565b6000546001600160a01b03163303611e4957565b606460405162461bcd60e51b815260206004820152602060248201527f4f776e61626c653a2063616c6c6572206973206e6f7420746865206f776e65726044820152fdfe608060405234610307576110bf8038038061001981610321565b9283398101906060818303126103075780516001600160a01b038116918282036103075760208101516001600160401b03811161030757810184601f82011215610307578051906001600160401b03821161026757610081601f8301601f1916602001610321565b95828752602083830101116103075760005b82811061030c57505060009085016020015260400151916005831015610307576100bc33610346565b156102c25782511561027d576100d190610346565b81516001600160401b03811161026757600154600181811c9116801561025d575b602082101461024757601f81116101e2575b50602092601f821160011461017d5792819293600092610172575b50508160011b916000199060031b1c1916176001555b6000805460ff60a01b191660a09290921b60ff60a01b169190911790556002805460ff1916600117905542600355604051610d31908161038e8239f35b01519050388061011f565b601f198216936001600052806000209160005b8681106101ca57508360019596106101b1575b505050811b01600155610135565b015160001960f88460031b161c191690553880806101a3565b91926020600181928685015181550194019201610190565b60016000527fb10e2d527612073b26eecdfd717e6a320cf44b4afac2b0732d9fcbe2b7fa0cf6601f830160051c8101916020841061023d575b601f0160051c01905b8181106102315750610104565b60008155600101610224565b909150819061021b565b634e487b7160e01b600052602260045260246000fd5b90607f16906100f2565b634e487b7160e01b600052604160045260246000fd5b60405162461bcd60e51b815260206004820152601c60248201527f534d4152544163636f756e743a20656d70747920757365726e616d65000000006044820152606490fd5b60405162461bcd60e51b815260206004820152601b60248201527f534d4152544163636f756e743a20696e76616c6964206f776e657200000000006044820152606490fd5b600080fd5b80602080928401015182828a01015201610093565b6040519190601f01601f191682016001600160401b0381118382101761026757604052565b600080546001600160a01b039283166001600160a01b03198216811783559216907f8be0079c531659141344cd1fd0a4f28419497f9722a3daafe3b4186f6b6457e09080a356fe60806040526004361015610010575b005b60003560e01c806319e0755c146101005780631b9e16ad146100fb57806322f3e2d4146100f657806347e1da2a146100f157806351b42b00146100ec57806361765a26146100e757806361fac54d146100e2578063715018a6146100dd5780638da5cb5b146100d857806390ef5777146100d3578063b61d27f6146100ce578063c2e84a23146100c9578063cf09e0d0146100c4578063d18611d6146100bf5763f2fde38b0361000e57610948565b6108ad565b61088f565b61083f565b6107c9565b610779565b610750565b6106f7565b6106c7565b610531565b61048e565b6102a3565b61024f565b6101dc565b610125565b60209060031901126101205760043560058110156101205790565b600080fd5b346101205761013336610105565b60ff6002541680610151575b604051901515815280602081015b0390f35b5060ff60005460a01c169060058110156101785760058210156101785761014d911461013f565b634e487b7160e01b600052602160045260246000fd5b919082519283825260005b8481106101ba575050826000602080949584010152601f8019910116010190565b80602080928401015182828601015201610199565b9060058210156101785752565b346101205760003660031901126101205761022e60005460ff60025416906003546102056105ec565b6040516001600160a01b038416815260a060208201819052909586959261023f9287019061018e565b9360ff604087019160a01c166101cf565b1515606084015260808301520390f35b3461012057600036600319011261012057602060ff600254166040519015158152f35b9181601f840112156101205782359167ffffffffffffffff8311610120576020808501948460051b01011161012057565b60603660031901126101205760043567ffffffffffffffff8111610120576102cf903690600401610272565b60243567ffffffffffffffff8111610120576102ef903690600401610272565b919060443567ffffffffffffffff811161012057610311903690600401610272565b93909261031c610ca3565b61033061032b60025460ff1690565b610a17565b81811480610485575b61034290610a62565b60005b81811061034e57005b61037a61037361036761036284868c610ad0565b610ae5565b6001600160a01b031690565b1515610aef565b60008061038b61036284868c610ad0565b610396848789610ad0565b356103a2858b8b610b3b565b91906103b360405180948193610b7d565b03925af16103bf610b8b565b906103ce61036284868c610ad0565b7ffb04f5456ba4dadf3b50c2335860f8832b49b85d0f6c23a86c79d640d6ea3c5e826103fb86898b610ad0565b604080519135825291151560208201526001600160a01b039390931692a2156104275750600101610345565b805190816104805760405162461bcd60e51b8152602060048201526024808201527f534d4152544163636f756e743a20626174636820657865637574696f6e2066616044820152631a5b195960e21b6064820152608490fd5b602001fd5b50818514610339565b34610120576000366003190112610120576104a7610ca3565b60025460ff8116156104e25760ff1916600255337f21831c2238658baa66ab1895cb18bdeaf2bea535a3df6126b7ada38425748375600080a2005b60405162461bcd60e51b815260206004820152602160248201527f534d4152544163636f756e743a20616c726561647920646561637469766174656044820152601960fa1b6064820152608490fd5b346101205761053f36610105565b610547610ca3565b60005460058210156101785760ff6105ac7f91fee875f0fad0825d7d410a1ebb8b98e40bbde37e47eacccfe12b6b2a0923fb936105a26040948460a01b8360a01b168560a01b19821617600055855194859160a01c166101cf565b60208301906101cf565ba1005b634e487b7160e01b600052604160045260246000fd5b90601f8019910116810190811067ffffffffffffffff8211176105e757604052565b6105af565b604051906000600154908160011c91600181169081156106bd575b6020841082146106a95783865285929160208401918115610690575060011461063a575b50610638925003836105c5565b565b6001600090815291507fb10e2d527612073b26eecdfd717e6a320cf44b4afac2b0732d9fcbe2b7fa0cf65b84831061067957506106389350013861062b565b805482840152869350602090920191600101610665565b60ff191682525061063893151560051b0190503861062b565b634e487b7160e01b83526022600452602483fd5b92607f1692610607565b346101205760003660031901126101205761014d6106e36105ec565b60405191829160208352602083019061018e565b3461012057600036600319011261012057610710610ca3565b600080546001600160a01b0319811682556001600160a01b03167f8be0079c531659141344cd1fd0a4f28419497f9722a3daafe3b4186f6b6457e08280a3005b34610120576000366003190112610120576000546040516001600160a01b039091168152602090f35b3461012057600036600319011261012057602060ff60005460a01c166107a260405180926101cf565bf35b6001600160a01b0381160361012057565b9060206107c692818152019061018e565b90565b6060366003190112610120576004356107e1816107a4565b60443567ffffffffffffffff8111610120573660238201121561012057806004013567ffffffffffffffff81116101205736602482840101116101205761014d92602461083393019060243590610bcb565b604051918291826107b5565b346101205761084d36610105565b60ff6002541680610865576040519015158152602090f35b5060ff60005460a01c1660058110156101785760058210156101785760ff61014d9216111561013f565b34610120576000366003190112610120576020600354604051908152f35b34610120576000366003190112610120576108c6610ca3565b60025460ff81166109035760ff1916600117600255337fe59051bfc78cdbcab6d5743d762e138b550c6c7c41db05ee5d0812ba1be1176c600080a2005b60405162461bcd60e51b815260206004820152601c60248201527f534d4152544163636f756e743a20616c726561647920616374697665000000006044820152606490fd5b3461012057602036600319011261012057600435610965816107a4565b61096d610ca3565b6001600160a01b038116156109c357600080546001600160a01b039283166001600160a01b03198216811783559216907f8be0079c531659141344cd1fd0a4f28419497f9722a3daafe3b4186f6b6457e09080a3005b60405162461bcd60e51b815260206004820152602660248201527f4f776e61626c653a206e6577206f776e657220697320746865207a65726f206160448201526564647265737360d01b6064820152608490fd5b15610a1e57565b606460405162461bcd60e51b815260206004820152602060248201527f534d4152544163636f756e743a206163636f756e74206e6f74206163746976656044820152fd5b15610a6957565b60405162461bcd60e51b815260206004820152602360248201527f534d4152544163636f756e743a206172726179206c656e677468206d69736d616044820152620e8c6d60eb1b6064820152608490fd5b634e487b7160e01b600052603260045260246000fd5b9190811015610ae05760051b0190565b610aba565b356107c6816107a4565b15610af657565b60405162461bcd60e51b815260206004820152601c60248201527f534d4152544163636f756e743a20696e76616c696420746172676574000000006044820152606490fd5b9190811015610ae05760051b81013590601e198136030182121561012057019081359167ffffffffffffffff8311610120576020018236038113610120579190565b908092918237016000815290565b3d15610bc6573d9067ffffffffffffffff82116105e75760405191610bba601f8201601f1916602001846105c5565b82523d6000602084013e565b606090565b60009193908291610bda610ca3565b610be860ff60025416610a17565b6001600160a01b038216948690610c00871515610aef565b826040519384928337810185815203925af1907ffb04f5456ba4dadf3b50c2335860f8832b49b85d0f6c23a86c79d640d6ea3c5e82610c3d610b8b565b60408051968752911515602087015294a215610c565790565b805190816104805760405162461bcd60e51b815260206004820152601e60248201527f534d4152544163636f756e743a20657865637574696f6e206661696c656400006044820152606490fd5b6000546001600160a01b03163303610cb757565b606460405162461bcd60e51b815260206004820152602060248201527f4f776e61626c653a2063616c6c6572206973206e6f7420746865206f776e65726044820152fdfea26469706673582212206de43e80bd140c78aded54af14a466dfb6b8799241166beca94720893bdb581064736f6c634300081e0033c9764f41afb6ab0f451039fdf2c741b9c8cd1a3a1e0feb19bc380f11463b973ca264697066735822122058ccfaabf2099ef59ce978627325a89ab9a991bb793ce35662eae571c83942c764736f6c634300081e0033",
  "linkReferences": {},
  "deployedLinkReferences": {}
}