{
  "_format": "hh-sol-artifact-1",
  "contractName": "SMARTNameRegistry",
  "sourceName": "src/core/SMARTNameRegistry.sol",
  "abi": [
    {
      "inputs": [],
      "stateMutability": "nonpayable",
      "type": "constructor"
    },
    {
      "anonymous": false,
      "inputs": [
        {
          "indexed": true,
          "internalType": "bytes32",
          "name": "nameHash",
          "type": "bytes32"
        },
        {
          "indexed": false,
          "internalType": "bytes",
          "name": "alias_",
          "type": "bytes"
        },
        {
          "indexed": true,
          "internalType": "address",
          "name": "controller",
          "type": "address"
        },
        {
          "indexed": false,
          "internalType": "uint8",
          "name": "aliasLength",
          "type": "uint8"
        }
      ],
      "name": "NameClaimed",
      "type": "event"
    },
    {
      "anonymous": false,
      "inputs": [
        {
          "indexed": true,
          "internalType": "bytes32",
          "name": "role",
          "type": "bytes32"
        },
        {
          "indexed": true,
          "internalType": "bytes32",
          "name": "previousAdminRole",
          "type": "bytes32"
        },
        {
          "indexed": true,
          "internalType": "bytes32",
          "name": "newAdminRole",
          "type": "bytes32"
        }
      ],
      "name": "RoleAdminChanged",
      "type": "event"
    },
    {
      "anonymous": false,
      "inputs": [
        {
          "indexed": true,
          "internalType": "bytes32",
          "name": "role",
          "type": "bytes32"
        },
        {
          "indexed": true,
          "internalType": "address",
          "name": "account",
          "type": "address"
        },
        {
          "indexed": true,
          "internalType": "address",
          "name": "sender",
          "type": "address"
        }
      ],
      "name": "RoleGranted",
      "type": "event"
    },
    {
      "anonymous": false,
      "inputs": [
        {
          "indexed": true,
          "internalType": "bytes32",
          "name": "role",
          "type": "bytes32"
        },
        {
          "indexed": true,
          "internalType": "address",
          "name": "account",
          "type": "address"
        },
        {
          "indexed": true,
          "internalType": "address",
          "name": "sender",
          "type": "address"
        }
      ],
      "name": "RoleRevoked",
      "type": "event"
    },
    {
      "anonymous": false,
      "inputs": [
        {
          "indexed": true,
          "internalType": "bytes32",
          "name": "nameHash",
          "type": "bytes32"
        },
        {
          "indexed": true,
          "internalType": "uint256",
          "name": "tokenId",
          "type": "uint256"
        },
        {
          "indexed": false,
          "internalType": "uint256",
          "name": "versionIndex",
          "type": "uint256"
        }
      ],
      "name": "VersionRecorded",
      "type": "event"
    },
    {
      "inputs": [],
      "name": "DEFAULT_ADMIN_ROLE",
      "outputs": [
        {
          "internalType": "bytes32",
          "name": "",
          "type": "bytes32"
        }
      ],
      "stateMutability": "view",
      "type": "function"
    },
    {
      "inputs": [],
      "name": "LIFECYCLE_ROLE",
      "outputs": [
        {
          "internalType": "bytes32",
          "name": "",
          "type": "bytes32"
        }
      ],
      "stateMutability": "view",
      "type": "function"
    },
    {
      "inputs": [
        {
          "internalType": "string",
          "name": "name",
          "type": "string"
        }
      ],
      "name": "aliasOf",
      "outputs": [
        {
          "internalType": "bytes",
          "name": "",
          "type": "bytes"
        }
      ],
      "stateMutability": "view",
      "type": "function"
    },
    {
      "inputs": [
        {
          "internalType": "bytes",
          "name": "",
          "type": "bytes"
        }
      ],
      "name": "aliasToNameHash",
      "outputs": [
        {
          "internalType": "bytes32",
          "name": "",
          "type": "bytes32"
        }
      ],
      "stateMutability": "view",
      "type": "function"
    },
    {
      "inputs": [
        {
          "internalType": "string",
          "name": "name",
          "type": "string"
        },
        {
          "internalType": "address",
          "name": "controller",
          "type": "address"
        }
      ],
      "name": "claimName",
      "outputs": [
        {
          "internalType": "bytes",
          "name": "aliasOut",
          "type": "bytes"
        }
      ],
      "stateMutability": "nonpayable",
      "type": "function"
    },
    {
      "inputs": [
        {
          "internalType": "string",
          "name": "name",
          "type": "string"
        }
      ],
      "name": "controllerOf",
      "outputs": [
        {
          "internalType": "address",
          "name": "",
          "type": "address"
        }
      ],
      "stateMutability": "view",
      "type": "function"
    },
    {
      "inputs": [
        {
          "internalType": "bytes32",
          "name": "role",
          "type": "bytes32"
        }
      ],
      "name": "getRoleAdmin",
      "outputs": [
        {
          "internalType": "bytes32",
          "name": "",
          "type": "bytes32"
        }
      ],
      "stateMutability": "view",
      "type": "function"
    },
    {
      "inputs": [
        {
          "internalType": "bytes32",
          "name": "role",
          "type": "bytes32"
        },
        {
          "internalType": "address",
          "name": "account",
          "type": "address"
        }
      ],
      "name": "grantRole",
      "outputs": [],
      "stateMutability": "nonpayable",
      "type": "function"
    },
    {
      "inputs": [
        {
          "internalType": "bytes32",
          "name": "role",
          "type": "bytes32"
        },
        {
          "internalType": "address",
          "name": "account",
          "type": "address"
        }
      ],
      "name": "hasRole",
      "outputs": [
        {
          "internalType": "bool",
          "name": "",
          "type": "bool"
        }
      ],
      "stateMutability": "view",
      "type": "function"
    },
    {
      "inputs": [
        {
          "internalType": "bytes",
          "name": "aliasIn",
          "type": "bytes"
        }
      ],
      "name": "nameHashOfAlias",
      "outputs": [
        {
          "internalType": "bytes32",
          "name": "",
          "type": "bytes32"
        }
      ],
      "stateMutability": "view",
      "type": "function"
    },
    {
      "inputs": [
        {
          "internalType": "uint256",
          "name": "tokenId",
          "type": "uint256"
        }
      ],
      "name": "nameHashOfToken",
      "outputs": [
        {
          "internalType": "bytes32",
          "name": "",
          "type": "bytes32"
        }
      ],
      "stateMutability": "view",
      "type": "function"
    },
    {
      "inputs": [
        {
          "internalType": "string",
          "name": "name",
          "type": "string"
        }
      ],
      "name": "recordOf",
      "outputs": [
        {
          "components": [
            {
              "internalType": "bytes32",
              "name": "nameHash",
              "type": "bytes32"
            },
            {
              "internalType": "bytes",
              "name": "alias_",
              "type": "bytes"
            },
            {
              "internalType": "address",
              "name": "controller",
              "type": "address"
            },
            {
              "internalType": "uint64",
              "name": "firstClaimedAt",
              "type": "uint64"
            },
            {
              "internalType": "uint64",
              "name": "lastVersionAt",
              "type": "uint64"
            },
            {
              "internalType": "uint256",
              "name": "versionCount",
              "type": "uint256"
            }
          ],
          "internalType": "struct SMARTNameRegistry.NameRecord",
          "name": "",
          "type": "tuple"
        }
      ],
      "stateMutability": "view",
      "type": "function"
    },
    {
      "inputs": [
        {
          "internalType": "string",
          "name": "name",
          "type": "string"
        },
        {
          "internalType": "uint256",
          "name": "tokenId",
          "type": "uint256"
        }
      ],
      "name": "recordVersion",
      "outputs": [],
      "stateMutability": "nonpayable",
      "type": "function"
    },
    {
      "inputs": [
        {
          "internalType": "bytes32",
          "name": "",
          "type": "bytes32"
        }
      ],
      "name": "records",
      "outputs": [
        {
          "internalType": "bytes32",
          "name": "nameHash",
          "type": "bytes32"
        },
        {
          "internalType": "bytes",
          "name": "alias_",
          "type": "bytes"
        },
        {
          "internalType": "address",
          "name": "controller",
          "type": "address"
        },
        {
          "internalType": "uint64",
          "name": "firstClaimedAt",
          "type": "uint64"
        },
        {
          "internalType": "uint64",
          "name": "lastVersionAt",
          "type": "uint64"
        },
        {
          "internalType": "uint256",
          "name": "versionCount",
          "type": "uint256"
        }
      ],
      "stateMutability": "view",
      "type": "function"
    },
    {
      "inputs": [
        {
          "internalType": "bytes32",
          "name": "role",
          "type": "bytes32"
        },
        {
          "internalType": "address",
          "name": "account",
          "type": "address"
        }
      ],
      "name": "renounceRole",
      "outputs": [],
      "stateMutability": "nonpayable",
      "type": "function"
    },
    {
      "inputs": [
        {
          "internalType": "bytes",
          "name": "aliasIn",
          "type": "bytes"
        }
      ],
      "name": "resolve",
      "outputs": [
        {
          "internalType": "bytes32",
          "name": "nameHash",
          "type": "bytes32"
        },
        {
          "components": [
            {
              "internalType": "bytes32",
              "name": "nameHash",
              "type": "bytes32"
            },
            {
              "internalType": "bytes",
              "name": "alias_",
              "type": "bytes"
            },
            {
              "internalType": "address",
              "name": "controller",
              "type": "address"
            },
            {
              "internalType": "uint64",
              "name": "firstClaimedAt",
              "type": "uint64"
            },
            {
              "internalType": "uint64",
              "name": "lastVersionAt",
              "type": "uint64"
            },
            {
              "internalType": "uint256",
              "name": "versionCount",
              "type": "uint256"
            }
          ],
          "internalType": "struct SMARTNameRegistry.NameRecord",
          "name": "rec",
          "type": "tuple"
        }
      ],
      "stateMutability": "view",
      "type": "function"
    },
    {
      "inputs": [
        {
          "internalType": "bytes32",
          "name": "role",
          "type": "bytes32"
        },
        {
          "internalType": "address",
          "name": "account",
          "type": "address"
        }
      ],
      "name": "revokeRole",
      "outputs": [],
      "stateMutability": "nonpayable",
      "type": "function"
    },
    {
      "inputs": [
        {
          "internalType": "bytes4",
          "name": "interfaceId",
          "type": "bytes4"
        }
      ],
      "name": "supportsInterface",
      "outputs": [
        {
          "internalType": "bool",
          "name": "",
          "type": "bool"
        }
      ],
      "stateMutability": "view",
      "type": "function"
    },
    {
      "inputs": [
        {
          "internalType": "uint256",
          "name": "",
          "type": "uint256"
        }
      ],
      "name": "tokenIdToNameHash",
      "outputs": [
        {
          "internalType": "bytes32",
          "name": "",
          "type": "bytes32"
        }
      ],
      "stateMutability": "view",
      "type": "function"
    },
    {
      "inputs": [
        {
          "internalType": "bytes32",
          "name": "nameHash",
          "type": "bytes32"
        }
      ],
      "name": "tokenIdsOfHash",
      "outputs": [
        {
          "internalType": "uint256[]",
          "name": "",
          "type": "uint256[]"
        }
      ],
      "stateMutability": "view",
      "type": "function"
    },
    {
      "inputs": [
        {
          "internalType": "string",
          "name": "name",
          "type": "string"
        }
      ],
      "name": "tokenIdsOfName",
      "outputs": [
        {
          "internalType": "uint256[]",
          "name": "",
          "type": "uint256[]"
        }
      ],
      "stateMutability": "view",
      "type": "function"
    },
    {
      "inputs": [],
      "name": "totalNames",
      "outputs": [
        {
          "internalType": "uint256",
          "name": "",
          "type": "uint256"
        }
      ],
      "stateMutability": "view",
      "type": "function"
    },
    {
      "inputs": [
        {
          "internalType": "bytes32",
          "name": "",
          "type": "bytes32"
        },
        {
          "internalType": "uint256",
          "name": "",
          "type": "uint256"
        }
      ],
      "name": "versionsOf",
      "outputs": [
        {
          "internalType": "uint256",
          "name": "",
          "type": "uint256"
        }
      ],
      "stateMutability": "view",
      "type": "function"
    }
  ],
  "bytecode": "0x608060405234608d57336000908152600080516020611869833981519152602052604090205460ff1615603c575b6040516117d690816100938239f35b33600081815260008051602061186983398151915260205260408120805460ff1916600117905581907f2f8788117e7eff1d82e926ec794901d17c78024a50270940304540a733656f0d8180a4602d565b600080fdfe6080604052600436101561001257600080fd5b60003560e01c806301e6472514610a3e57806301ffc9a7146109e85780630b756ccc1461099c5780631cba28e71461077d578063248a9ca3146107485780632aa120f5146106df5780632f2ff15d1461062357806336568abe146105915780634338964214610540578063601631511461037b57806365f7f601146104d35780638ee9065d1461045d57806390efdf1a146103f457806391d14854146103a757806398dc5a771461037b578063a0cd397214610333578063a217fddf14610317578063a38cb6c1146102f9578063a8c9f2841461025e578063c9d0d06114610223578063d547741f146101dc578063e4056186146101825763e7af26811461011957600080fd5b3461017d57602036600319011261017d576004356001600160401b03811161017d5761014c610153913690600401610c34565b3691610ccc565b602081519101206000526001602052602060018060a01b0360026040600020015416604051908152f35b600080fd5b3461017d57602036600319011261017d576004356001600160401b03811161017d576101b56101bb913690600401610c34565b90611359565b906101d86040519283928352604060208401526040830190610d03565b0390f35b3461017d57604036600319011261017d576102216004356101fb610c61565b9061021c61021782600052600060205260016040600020015490565b6114e3565b611532565b005b3461017d57600036600319011261017d5760206040517f41ac124fbf89049ac777c15f0cfc3c622029726a2d75350d07277b4060edf8698152f35b3461017d57602036600319011261017d576004356001600160401b03811161017d5761014c610291913690600401610c34565b602081519101206000526003602052604060002060405190816020825491828152019160005260206000209060005b8181106102e3576101d8856102d781870382610b27565b60405191829182610c77565b82548452602090930192600192830192016102c0565b3461017d57600036600319011261017d576020600554604051908152f35b3461017d57600036600319011261017d57602060405160008152f35b3461017d57604036600319011261017d5760243560043560005260036020526040600020805482101561017d5760209161036c91610d64565b90549060031b1c604051908152f35b3461017d57602036600319011261017d5760043560005260046020526020604060002054604051908152f35b3461017d57604036600319011261017d576103c0610c61565b600435600052600060205260406000209060018060a01b0316600052602052602060ff604060002054166040519015158152f35b3461017d57602036600319011261017d576004356001600160401b03811161017d5761014c610427913690600401610c34565b6020815191012060005260016020526101d86104496001604060002001610b48565b604051918291602083526020830190610c0f565b3461017d57602036600319011261017d576004356001600160401b03811161017d576104906104a0913690600401610c34565b6104986112c3565b503691610ccc565b6020815191012060005260016020526101d86104bf60406000206112f5565b604051918291602083526020830190610d03565b3461017d57602036600319011261017d576004356001600160401b03811161017d573660238201121561017d5761052d602061051a81933690602481600401359101610ccc565b8160405193828580945193849201610bec565b8101600281520301902054604051908152f35b3461017d57602036600319011261017d576004356001600160401b03811161017d57602061057381923690600401610c34565b91908260405193849283378101600281520301902054604051908152f35b3461017d57604036600319011261017d576105aa610c61565b336001600160a01b038216036105c65761022190600435611532565b60405162461bcd60e51b815260206004820152602f60248201527f416363657373436f6e74726f6c3a2063616e206f6e6c792072656e6f756e636560448201526e103937b632b9903337b91039b2b63360891b6064820152608490fd5b3461017d57604036600319011261017d5760043561063f610c61565b9061065b61021782600052600060205260016040600020015490565b6000818152602081815260408083206001600160a01b038616845290915290205460ff161561068657005b6000818152602081815260408083206001600160a01b0395909516808452949091528120805460ff19166001179055339291907f2f8788117e7eff1d82e926ec794901d17c78024a50270940304540a733656f0d9080a4005b3461017d57602036600319011261017d576004356000526003602052604060002060405190816020825491828152019160005260206000209060005b818110610732576101d8856102d781870382610b27565b825484526020909301926001928301920161071b565b3461017d57602036600319011261017d576020610775600435600052600060205260016040600020015490565b604051908152f35b3461017d57604036600319011261017d576004356001600160401b03811161017d576107b06107be913690600401610c34565b91906024359261014c6113ca565b6020815191012080600052600160205260406000206001600160401b03600282015460a01c161561096457821561092b578260005260046020526040600020546108f05781600052600360205260406000208054680100000000000000008110156108da5761083291600182018155610d64565b81549060031b9085821b91600019901b1916179055826000526004602052816040600020556004810190815490600182018092116108c457908255600301805467ffffffffffffffff1916426001600160401b03161790555460001981019081116108c45760207fea40fd11a10073dec6b073b09e27608c90a3d93954e5827b11055c465c0cc1b591604051908152a3005b634e487b7160e01b600052601160045260246000fd5b634e487b7160e01b600052604160045260246000fd5b60405162461bcd60e51b8152602060048201526013602482015272151bdad95b88185b1c9958591e481b985b5959606a1b6044820152606490fd5b60405162461bcd60e51b8152602060048201526011602482015270151bdad95b881a59081c995c5d5a5c9959607a1b6044820152606490fd5b60405162461bcd60e51b815260206004820152601060248201526f13985b59481b9bdd0818db185a5b595960821b6044820152606490fd5b3461017d57604036600319011261017d576004356001600160401b03811161017d576104496109d26101d8923690600401610c34565b6109da610c61565b916109e36113ca565b610d92565b3461017d57602036600319011261017d5760043563ffffffff60e01b811680910361017d57602090637965db0b60e01b8114908115610a2d575b506040519015158152f35b6301ffc9a760e01b14905082610a22565b3461017d57602036600319011261017d57600435600052600160205260406000208054610a6d60018301610b48565b9160028101549060046001600160401b03600383015416910154906001600160401b03610aac604051968796875260c0602088015260c0870190610c0f565b9360018060a01b038116604087015260a01c166060850152608084015260a08301520390f35b90600182811c92168015610b02575b6020831014610aec57565b634e487b7160e01b600052602260045260246000fd5b91607f1691610ae1565b60c081019081106001600160401b038211176108da57604052565b90601f801991011681019081106001600160401b038211176108da57604052565b9060405191826000825492610b5c84610ad2565b8084529360018116908115610bca5750600114610b83575b50610b8192500383610b27565b565b90506000929192526020600020906000915b818310610bae575050906020610b819282010138610b74565b6020919350806001915483858901015201910190918492610b95565b905060209250610b8194915060ff191682840152151560051b82010138610b74565b60005b838110610bff5750506000910152565b8181015183820152602001610bef565b90602091610c2881518092818552858086019101610bec565b601f01601f1916010190565b9181601f8401121561017d578235916001600160401b03831161017d576020838186019501011161017d57565b602435906001600160a01b038216820361017d57565b602060408183019282815284518094520192019060005b818110610c9b5750505090565b8251845260209384019390920191600101610c8e565b6001600160401b0381116108da57601f01601f191660200190565b929192610cd882610cb1565b91610ce66040519384610b27565b82948184528183011161017d578281602093846000960137010152565b908151815260a080610d24602085015160c0602086015260c0850190610c0f565b93600180831b0360408201511660408501526001600160401b0360608201511660608501526001600160401b036080820151166080850152015191015290565b8054821015610d7c5760005260206000200190600090565b634e487b7160e01b600052603260045260246000fd5b9291811561128e576001600160a01b031692831561125357610db5913691610ccc565b6020815191012091826000526001602052604060002060028101546001600160401b038160a01c166111ed575060009190508160605b60ff82169360038510156111e15750508060021b6103fc60fc8216911681036108c4576008019260ff84116108c45760ff8416946008861480156111d7575b80156111cd575b1561119157610e3f86610cb1565b93610e4d6040519586610b27565b868552601f19610e5c88610cb1565b0136602087013760005b60ff811688811015610e96576020811015610d7c5760ff9181610e8e8c6001941a918a611521565b530116610e66565b5050939291909550610eb76020848160405193828580945193849201610bec565b810160028152030190205415610f3e5760021115610edb5760010160ff1690610deb565b60405162461bcd60e51b815260206004820152603560248201527f4e616d652072656769737472793a2031362d6279746520636f6c6c6973696f6e6044820152742028696d706f737369626c7920756e6c75636b792960581b6064820152608490fd5b5050929390915b816040516020818751610f5b8183858c01610bec565b8101600281520301902055604051610f7281610b0c565b828152602081018581526040820185815260608301906001600160401b034216825260808401916000835260a0850193600085528760005260016020526040600020955186556001860190518051906001600160401b0382116108da57610fd98354610ad2565b601f8111611149575b50602090601f83116001146110d35791806001600160401b039694926004999896946000926110c8575b50508160011b916000199060031b1c19161790555b600287019160018060a01b039051168254918560a01b905160a01b169163ffffffff60e01b161717905551166001600160401b036003850191166001600160401b0319825416179055519101556005549060001982146108c45760017fa000973c1ddce13da08dc8b8e45ab885711e38cd8ba7686429bb915408a282d5920160055560405180916040825260ff6110bb6040840189610c0f565b911660208301520390a390565b01519050388061100c565b90601f1983169184600052816000209260005b818110611131575092600192859260049b9a98966001600160401b039a989610611118575b505050811b019055611021565b015160001960f88460031b161c1916905538808061110b565b929360206001819287860151815501950193016110e6565b836000526020600020601f840160051c81019160208510611187575b601f0160051c01905b81811061117b5750610fe2565b6000815560010161116e565b9091508190611165565b60405162461bcd60e51b8152602060048201526014602482015273092dcecc2d8d2c840c2d8d2c2e640d8cadccee8d60631b6044820152606490fd5b5060108614610e31565b50600c8614610e2a565b91509394919250610f45565b929350916001600160a01b03160361120e57600161120b9101610b48565b90565b60405162461bcd60e51b815260206004820152601e60248201527f4e616d65206f776e6564206279206f7468657220636f6e74726f6c6c657200006044820152606490fd5b60405162461bcd60e51b815260206004820152601360248201527210dbdb9d1c9bdb1b195c881c995c5d5a5c9959606a1b6044820152606490fd5b60405162461bcd60e51b815260206004820152600d60248201526c13985b59481c995c5d5a5c9959609a1b6044820152606490fd5b604051906112d082610b0c565b600060a083828152606060208201528260408201528260608201528260808201520152565b9060405161130281610b0c565b60a0600482948054845261131860018201610b48565b60208501526001600160401b036002820154600180861b0381166040870152841c1660608501526001600160401b0360038201541660808501520154910152565b6020906113646112c3565b508260405193849283378101600281520301902054806113b35750600080805260016020529061120b7fa6eef7e35abe7026729641147f7915573c7e97b47efa546f5f6e3230263bcb496112f5565b9081600052600160205261120b60406000206112f5565b3360009081527fce7826a13a6e01f8ca132af1545f75d5d6f777cb620fbac4cd7597f6f4e0749b602052604090205460ff161561140357565b6114df61140f336115b4565b6114bf601161143d7f41ac124fbf89049ac777c15f0cfc3c622029726a2d75350d07277b4060edf8696116f4565b9260376040519485927f416363657373436f6e74726f6c3a206163636f756e7420000000000000000000602085015261147f8151809260208688019101610bec565b83017001034b99036b4b9b9b4b733903937b6329607d1b838201526114ae825180936020604885019101610bec565b01010301601f198101835282610b27565b60405162461bcd60e51b8152602060048201529182916024830190610c0f565b0390fd5b60008181526020818152604080832033845290915290205460ff16156115065750565b6114df906114bf601161143d61151b336115b4565b936116f4565b908151811015610d7c570160200190565b6000818152602081815260408083206001600160a01b038616845290915290205460ff1661155e575050565b6000818152602081815260408083206001600160a01b0395909516808452949091528120805460ff19169055339291907ff6391f5c32d9c69d2a47ea670b442974b53935d1edc7fd64eb21e047a839171b9080a4565b6000906115c1602a610cb1565b916115cf6040519384610b27565b602a83526115dd602a610cb1565b6020840190601f19013682378351156116e057603090538251600110156116cc576078602184015350602960005b6001821161166057505061161c5790565b606460405162461bcd60e51b815260206004820152602060248201527f537472696e67733a20686578206c656e67746820696e73756666696369656e746044820152fd5b9091600f811660108110156116b8576f181899199a1a9b1b9c1cb0b131b232b360811b901a61168f8486611521565b5360041c9180156116a457600019019061160b565b634e487b7160e01b82526011600452602482fd5b634e487b7160e01b83526032600452602483fd5b634e487b7160e01b81526032600452602490fd5b634e487b7160e01b82526032600452602482fd5b6000906117016042610cb1565b9161170f6040519384610b27565b6042835261171d6042610cb1565b6020840190601f19013682378351156116e057603090538251600110156116cc576078602184015350604160005b6001821161175c57505061161c5790565b9091600f811660108110156116b8576f181899199a1a9b1b9c1cb0b131b232b360811b901a61178b8486611521565b5360041c9180156116a457600019019061174b56fea2646970667358221220937f1e4a504d77ebf15758a5f4a5b397f9c96cf59ef156880fe6a6c77e8e360764736f6c634300081e0033ad3228b676f7d3cd4284a5443f17f1962b36e491b30a40b2405849e597ba5fb5",
  "linkReferences": {},
  "deployedLinkReferences": {}
}