{
  "_format": "hh-sol-artifact-1",
  "contractName": "SMARTPaymaster",
  "sourceName": "src/account/SMARTPaymaster.sol",
  "abi": [
    {
      "inputs": [
        {
          "internalType": "address",
          "name": "_entryPoint",
          "type": "address"
        }
      ],
      "stateMutability": "nonpayable",
      "type": "constructor"
    },
    {
      "anonymous": false,
      "inputs": [
        {
          "indexed": true,
          "internalType": "address",
          "name": "account",
          "type": "address"
        },
        {
          "indexed": false,
          "internalType": "bool",
          "name": "status",
          "type": "bool"
        }
      ],
      "name": "AccountBlacklisted",
      "type": "event"
    },
    {
      "anonymous": false,
      "inputs": [
        {
          "indexed": true,
          "internalType": "address",
          "name": "account",
          "type": "address"
        },
        {
          "indexed": false,
          "internalType": "bool",
          "name": "status",
          "type": "bool"
        }
      ],
      "name": "AccountWhitelisted",
      "type": "event"
    },
    {
      "anonymous": false,
      "inputs": [
        {
          "indexed": true,
          "internalType": "address",
          "name": "from",
          "type": "address"
        },
        {
          "indexed": false,
          "internalType": "uint256",
          "name": "amount",
          "type": "uint256"
        }
      ],
      "name": "Deposited",
      "type": "event"
    },
    {
      "anonymous": false,
      "inputs": [
        {
          "indexed": true,
          "internalType": "address",
          "name": "account",
          "type": "address"
        },
        {
          "indexed": false,
          "internalType": "uint256",
          "name": "gasUsed",
          "type": "uint256"
        },
        {
          "indexed": false,
          "internalType": "uint256",
          "name": "timestamp",
          "type": "uint256"
        }
      ],
      "name": "GasSponsored",
      "type": "event"
    },
    {
      "anonymous": false,
      "inputs": [
        {
          "indexed": true,
          "internalType": "address",
          "name": "previousOwner",
          "type": "address"
        },
        {
          "indexed": true,
          "internalType": "address",
          "name": "newOwner",
          "type": "address"
        }
      ],
      "name": "OwnershipTransferred",
      "type": "event"
    },
    {
      "anonymous": false,
      "inputs": [
        {
          "indexed": false,
          "internalType": "uint256",
          "name": "dailyLimit",
          "type": "uint256"
        },
        {
          "indexed": false,
          "internalType": "uint256",
          "name": "monthlyLimit",
          "type": "uint256"
        },
        {
          "indexed": false,
          "internalType": "uint256",
          "name": "maxOpCost",
          "type": "uint256"
        }
      ],
      "name": "SponsorshipConfigUpdated",
      "type": "event"
    },
    {
      "anonymous": false,
      "inputs": [
        {
          "indexed": false,
          "internalType": "bool",
          "name": "enabled",
          "type": "bool"
        }
      ],
      "name": "SponsorshipToggled",
      "type": "event"
    },
    {
      "anonymous": false,
      "inputs": [
        {
          "indexed": true,
          "internalType": "address",
          "name": "account",
          "type": "address"
        },
        {
          "indexed": false,
          "internalType": "uint256",
          "name": "tokenAmount",
          "type": "uint256"
        },
        {
          "indexed": false,
          "internalType": "uint256",
          "name": "gasCost",
          "type": "uint256"
        }
      ],
      "name": "TokenPayment",
      "type": "event"
    },
    {
      "anonymous": false,
      "inputs": [
        {
          "indexed": false,
          "internalType": "bool",
          "name": "enabled",
          "type": "bool"
        }
      ],
      "name": "TokenPaymentsToggled",
      "type": "event"
    },
    {
      "anonymous": false,
      "inputs": [
        {
          "indexed": true,
          "internalType": "address",
          "name": "to",
          "type": "address"
        },
        {
          "indexed": false,
          "internalType": "uint256",
          "name": "amount",
          "type": "uint256"
        }
      ],
      "name": "Withdrawn",
      "type": "event"
    },
    {
      "inputs": [
        {
          "internalType": "address",
          "name": "",
          "type": "address"
        }
      ],
      "name": "blacklistedAccounts",
      "outputs": [
        {
          "internalType": "bool",
          "name": "",
          "type": "bool"
        }
      ],
      "stateMutability": "view",
      "type": "function"
    },
    {
      "inputs": [
        {
          "internalType": "address",
          "name": "_token",
          "type": "address"
        },
        {
          "internalType": "uint256",
          "name": "_priceInWei",
          "type": "uint256"
        },
        {
          "internalType": "bool",
          "name": "_enabled",
          "type": "bool"
        }
      ],
      "name": "configureTokenPayments",
      "outputs": [],
      "stateMutability": "nonpayable",
      "type": "function"
    },
    {
      "inputs": [],
      "name": "dailyGasLimit",
      "outputs": [
        {
          "internalType": "uint256",
          "name": "",
          "type": "uint256"
        }
      ],
      "stateMutability": "view",
      "type": "function"
    },
    {
      "inputs": [
        {
          "internalType": "address",
          "name": "",
          "type": "address"
        },
        {
          "internalType": "uint256",
          "name": "",
          "type": "uint256"
        }
      ],
      "name": "dailyGasUsed",
      "outputs": [
        {
          "internalType": "uint256",
          "name": "",
          "type": "uint256"
        }
      ],
      "stateMutability": "view",
      "type": "function"
    },
    {
      "inputs": [],
      "name": "deposit",
      "outputs": [],
      "stateMutability": "payable",
      "type": "function"
    },
    {
      "inputs": [],
      "name": "entryPoint",
      "outputs": [
        {
          "internalType": "contract IEntryPointPaymaster",
          "name": "",
          "type": "address"
        }
      ],
      "stateMutability": "view",
      "type": "function"
    },
    {
      "inputs": [],
      "name": "getDeposit",
      "outputs": [
        {
          "internalType": "uint256",
          "name": "",
          "type": "uint256"
        }
      ],
      "stateMutability": "view",
      "type": "function"
    },
    {
      "inputs": [
        {
          "internalType": "address",
          "name": "account",
          "type": "address"
        }
      ],
      "name": "getRemainingDailyQuota",
      "outputs": [
        {
          "internalType": "uint256",
          "name": "",
          "type": "uint256"
        }
      ],
      "stateMutability": "view",
      "type": "function"
    },
    {
      "inputs": [
        {
          "internalType": "address",
          "name": "account",
          "type": "address"
        }
      ],
      "name": "getRemainingMonthlyQuota",
      "outputs": [
        {
          "internalType": "uint256",
          "name": "",
          "type": "uint256"
        }
      ],
      "stateMutability": "view",
      "type": "function"
    },
    {
      "inputs": [],
      "name": "maxOperationCost",
      "outputs": [
        {
          "internalType": "uint256",
          "name": "",
          "type": "uint256"
        }
      ],
      "stateMutability": "view",
      "type": "function"
    },
    {
      "inputs": [],
      "name": "monthlyGasLimit",
      "outputs": [
        {
          "internalType": "uint256",
          "name": "",
          "type": "uint256"
        }
      ],
      "stateMutability": "view",
      "type": "function"
    },
    {
      "inputs": [
        {
          "internalType": "address",
          "name": "",
          "type": "address"
        },
        {
          "internalType": "uint256",
          "name": "",
          "type": "uint256"
        }
      ],
      "name": "monthlyGasUsed",
      "outputs": [
        {
          "internalType": "uint256",
          "name": "",
          "type": "uint256"
        }
      ],
      "stateMutability": "view",
      "type": "function"
    },
    {
      "inputs": [],
      "name": "owner",
      "outputs": [
        {
          "internalType": "address",
          "name": "",
          "type": "address"
        }
      ],
      "stateMutability": "view",
      "type": "function"
    },
    {
      "inputs": [],
      "name": "paymentToken",
      "outputs": [
        {
          "internalType": "contract IERC20",
          "name": "",
          "type": "address"
        }
      ],
      "stateMutability": "view",
      "type": "function"
    },
    {
      "inputs": [
        {
          "internalType": "enum IPaymaster.PostOpMode",
          "name": "mode",
          "type": "uint8"
        },
        {
          "internalType": "bytes",
          "name": "context",
          "type": "bytes"
        },
        {
          "internalType": "uint256",
          "name": "actualGasCost",
          "type": "uint256"
        }
      ],
      "name": "postOp",
      "outputs": [],
      "stateMutability": "nonpayable",
      "type": "function"
    },
    {
      "inputs": [],
      "name": "renounceOwnership",
      "outputs": [],
      "stateMutability": "nonpayable",
      "type": "function"
    },
    {
      "inputs": [
        {
          "internalType": "enum SMARTRole",
          "name": "",
          "type": "uint8"
        }
      ],
      "name": "roleMultipliers",
      "outputs": [
        {
          "internalType": "uint256",
          "name": "",
          "type": "uint256"
        }
      ],
      "stateMutability": "view",
      "type": "function"
    },
    {
      "inputs": [
        {
          "internalType": "address",
          "name": "account",
          "type": "address"
        },
        {
          "internalType": "bool",
          "name": "status",
          "type": "bool"
        }
      ],
      "name": "setBlacklisted",
      "outputs": [],
      "stateMutability": "nonpayable",
      "type": "function"
    },
    {
      "inputs": [
        {
          "internalType": "enum SMARTRole",
          "name": "role",
          "type": "uint8"
        },
        {
          "internalType": "uint256",
          "name": "multiplier",
          "type": "uint256"
        }
      ],
      "name": "setRoleMultiplier",
      "outputs": [],
      "stateMutability": "nonpayable",
      "type": "function"
    },
    {
      "inputs": [
        {
          "internalType": "uint256",
          "name": "_dailyLimit",
          "type": "uint256"
        },
        {
          "internalType": "uint256",
          "name": "_monthlyLimit",
          "type": "uint256"
        },
        {
          "internalType": "uint256",
          "name": "_maxOpCost",
          "type": "uint256"
        }
      ],
      "name": "setSponsorshipConfig",
      "outputs": [],
      "stateMutability": "nonpayable",
      "type": "function"
    },
    {
      "inputs": [
        {
          "internalType": "address",
          "name": "account",
          "type": "address"
        },
        {
          "internalType": "bool",
          "name": "status",
          "type": "bool"
        }
      ],
      "name": "setWhitelisted",
      "outputs": [],
      "stateMutability": "nonpayable",
      "type": "function"
    },
    {
      "inputs": [],
      "name": "sponsorshipEnabled",
      "outputs": [
        {
          "internalType": "bool",
          "name": "",
          "type": "bool"
        }
      ],
      "stateMutability": "view",
      "type": "function"
    },
    {
      "inputs": [
        {
          "internalType": "bool",
          "name": "enabled",
          "type": "bool"
        }
      ],
      "name": "toggleSponsorship",
      "outputs": [],
      "stateMutability": "nonpayable",
      "type": "function"
    },
    {
      "inputs": [],
      "name": "tokenPaymentsEnabled",
      "outputs": [
        {
          "internalType": "bool",
          "name": "",
          "type": "bool"
        }
      ],
      "stateMutability": "view",
      "type": "function"
    },
    {
      "inputs": [],
      "name": "tokenPriceInWei",
      "outputs": [
        {
          "internalType": "uint256",
          "name": "",
          "type": "uint256"
        }
      ],
      "stateMutability": "view",
      "type": "function"
    },
    {
      "inputs": [
        {
          "internalType": "address",
          "name": "newOwner",
          "type": "address"
        }
      ],
      "name": "transferOwnership",
      "outputs": [],
      "stateMutability": "nonpayable",
      "type": "function"
    },
    {
      "inputs": [
        {
          "components": [
            {
              "internalType": "address",
              "name": "sender",
              "type": "address"
            },
            {
              "internalType": "uint256",
              "name": "nonce",
              "type": "uint256"
            },
            {
              "internalType": "bytes",
              "name": "initCode",
              "type": "bytes"
            },
            {
              "internalType": "bytes",
              "name": "callData",
              "type": "bytes"
            },
            {
              "internalType": "uint256",
              "name": "callGasLimit",
              "type": "uint256"
            },
            {
              "internalType": "uint256",
              "name": "verificationGasLimit",
              "type": "uint256"
            },
            {
              "internalType": "uint256",
              "name": "preVerificationGas",
              "type": "uint256"
            },
            {
              "internalType": "uint256",
              "name": "maxFeePerGas",
              "type": "uint256"
            },
            {
              "internalType": "uint256",
              "name": "maxPriorityFeePerGas",
              "type": "uint256"
            },
            {
              "internalType": "bytes",
              "name": "paymasterAndData",
              "type": "bytes"
            },
            {
              "internalType": "bytes",
              "name": "signature",
              "type": "bytes"
            }
          ],
          "internalType": "struct IEntryPointPaymaster.UserOperation",
          "name": "userOp",
          "type": "tuple"
        },
        {
          "internalType": "bytes32",
          "name": "userOpHash",
          "type": "bytes32"
        },
        {
          "internalType": "uint256",
          "name": "maxCost",
          "type": "uint256"
        }
      ],
      "name": "validatePaymasterUserOp",
      "outputs": [
        {
          "internalType": "bytes",
          "name": "context",
          "type": "bytes"
        },
        {
          "internalType": "uint256",
          "name": "validationData",
          "type": "uint256"
        }
      ],
      "stateMutability": "nonpayable",
      "type": "function"
    },
    {
      "inputs": [
        {
          "internalType": "address",
          "name": "",
          "type": "address"
        }
      ],
      "name": "whitelistedAccounts",
      "outputs": [
        {
          "internalType": "bool",
          "name": "",
          "type": "bool"
        }
      ],
      "stateMutability": "view",
      "type": "function"
    },
    {
      "inputs": [
        {
          "internalType": "address payable",
          "name": "to",
          "type": "address"
        },
        {
          "internalType": "uint256",
          "name": "amount",
          "type": "uint256"
        }
      ],
      "name": "withdraw",
      "outputs": [],
      "stateMutability": "nonpayable",
      "type": "function"
    },
    {
      "stateMutability": "payable",
      "type": "receive"
    }
  ],
  "bytecode": "0x60a03461022457601f6113df38819003918201601f19168301916001600160401b038311848410176102295780849260209460405283398101031261022457516001600160a01b038116908190036102245760008054336001600160a01b03198216811783556040519290916001600160a01b0316907f8be0079c531659141344cd1fd0a4f28419497f9722a3daafe3b4186f6b6457e09080a36001805581156101d7575060805267016345785d8a0000600555670de0b6b3a7640000600655662386f26fc100006007556004805461ff001916610100178155600c60205260327f13649b2456f1b42fef0f0040b3aaeabcd21a76a0f3f5defd4f583839455116e85560c87fd421a5181c571bba3f01190c922c3b2a896fc1d84e86c9f17ac10e67ebef8b5c5560967f5d6016397a73f5e079297ac5a36fef17b4d9c3831618e63ab105738020ddd7208190557fc0da782485e77ae272268ae0a3ff44c1552ecb60b3743924de17a815e0a3cfd75560005261012c7f5b84bb9e0f5aa9cc45a8bb66468db5d4816d1e75ff86b5e1f1dd8d144dab80975560405161119f908161024082396080518181816024015281816103660152818161065d015281816107ae01528181610891015281816109280152610f000152f35b62461bcd60e51b815260206004820152602260248201527f534d4152545061796d61737465723a20696e76616c696420456e747279506f696044820152611b9d60f21b6064820152608490fd5b600080fd5b634e487b7160e01b600052604160045260246000fdfe608060405260043610156100cc575b361561001957600080fd5b60003461002257005b7f00000000000000000000000000000000000000000000000000000000000000006001600160a01b031681813b156100c95760405163b760faf960e01b8152306004820152918290602490829034905af180156100be576100ae575b50506040513481527f2da466a7b24304f47e87fa2e1e5a81b9831ce54fec19055ce277ca2f39ba42c460203392a2005b816100b891610ec2565b3861007e565b6040513d84823e3d90fd5b80fd5b6000803560e01c8062bc920214610d745780630175235014610ce057806321d34c4214610cba57806322b6379d14610c875780632929425514610bfa5780632f8de81014610bdc5780633013ce2914610bb35780633de7c42f14610b905780634f698e1214610b72578063715018a614610b1857806371911dda14610afa57806374a1601d14610a905780638da5cb5b14610a695780639281aa0b146109f2578063a9a23409146108c0578063b0d691fe1461087b578063b317d99414610845578063c1c767cf14610827578063c399ec8814610782578063d01dd6d214610703578063d0e30db014610647578063e511069214610608578063e53bc6961461056b578063ea10800b14610528578063f2fde38b14610462578063f3fef3a314610330578063f465c77e14610297578063f6a6830f146102585763fac61ae014610216575061000e565b346100c95760403660031901126100c9576020906040906001600160a01b0361023d610dda565b16815260098352818120602435825283522054604051908152f35b50346100c95760203660031901126100c95760209060ff906040906001600160a01b03610283610dda565b168152600a84522054166040519015158152f35b50346100c95760603660031901126100c95760043567ffffffffffffffff811161032c57610160600319823603011261032c576102da9060443590600401610efa565b60405192839160408352835191826040850152805b8381106103145750606080955083850101526020830152601f80199101168101030190f35b602086820181015160608984010152879550016102ef565b5080fd5b50346100c95760403660031901126100c95761034a610dda565b602435610355611084565b60026001541461041d5760026001557f00000000000000000000000000000000000000000000000000000000000000006001600160a01b0316918390833b1561032c5781809160446040518094819363040b850f60e31b835260018060a01b0316988960048401528860248401525af180156100be57610404575b505060207f7084f5476618d8e60b11ef0d7d3f06914655adb8793e28ff7f018d4c76d505d591604051908152a26001805580f35b8161040e91610ec2565b6104195782386103d0565b8280fd5b60405162461bcd60e51b815260206004820152601f60248201527f5265656e7472616e637947756172643a207265656e7472616e742063616c6c006044820152606490fd5b50346100c95760203660031901126100c95761047c610dda565b610484611084565b6001600160a01b031680156104d45781546001600160a01b03198116821783556001600160a01b03167f8be0079c531659141344cd1fd0a4f28419497f9722a3daafe3b4186f6b6457e08380a380f35b60405162461bcd60e51b815260206004820152602660248201527f4f776e61626c653a206e6577206f776e657220697320746865207a65726f206160448201526564647265737360d01b6064820152608490fd5b50346100c95760403660031901126100c9576020906040906001600160a01b03610550610dda565b16815260088352818120602435825283522054604051908152f35b50346100c95760203660031901126100c957602090610588610dda565b610591816110dc565b6001600160a01b03909116808352600a8452604083205490919060ff16156105f35750600019905b825260088352604080832062015180420484528452822054908082106105e45750505b604051908152f35b6105ee9250610e5c565b6105dc565b610601606491600554610e33565b04906105b9565b50346100c95760203660031901126100c95760209060ff906040906001600160a01b03610633610dda565b168152600b84522054166040519015158152f35b50806003193601126100c95761065b611084565b7f00000000000000000000000000000000000000000000000000000000000000006001600160a01b031681813b156100c957806024926040519384809263b760faf960e01b825230600483015234905af180156106f6576106e6575b6040513481527f2da466a7b24304f47e87fa2e1e5a81b9831ce54fec19055ce277ca2f39ba42c460203392a280f35b6106ef91610ec2565b38816106b7565b50604051903d90823e3d90fd5b50346100c95760403660031901126100c95761071d610dda565b7f1d3a0f423a29cb00c6d792b5a695e34683386c493edbcf344426b5da5adf0e446020610748610df5565b92610751611084565b6001600160a01b0316808552600b825260408520805460ff191660ff86151516179055925b6040519015158152a280f35b50346100c957806003193601126100c9576040516370a0823160e01b81523060048201526020816024817f00000000000000000000000000000000000000000000000000000000000000006001600160a01b03165afa9081156100be5782916107f1575b602082604051908152f35b90506020813d60201161081f575b8161080c60209383610ec2565b8101031261032c576020915051386107e6565b3d91506107ff565b50346100c957806003193601126100c9576020600654604051908152f35b50346100c95760403660031901126100c957600435600581101561032c5761086b611084565b61087760243591610e04565b5580f35b50346100c957806003193601126100c9576040517f00000000000000000000000000000000000000000000000000000000000000006001600160a01b03168152602090f35b50346100c95760603660031901126100c957600360043510156100c95760243567ffffffffffffffff811161032c573660238201121561032c57806004013567ffffffffffffffff8111610419578101903660248301116104195760443591606090610956337f00000000000000000000000000000000000000000000000000000000000000006001600160a01b031614610e69565b8290031261041957602401359060018060a01b0382168092036104195760407fb3d8da13e2eec10930982ae94cc39cd56a1e686b864a50f632765647bdfe622b91838552600860205281852062015180420486526020528185206109bb828254610eb5565b9055838552600960205281852062278d00420486526020528185206109e1828254610eb5565b90558151908152426020820152a280f35b50346100c95760403660031901126100c957610a0c610dda565b7f920c87cb6ac5172d58b6c3e8be859ca618081e36b5b0f8231a146097b5df57856020610a37610df5565b92610a40611084565b6001600160a01b0316808552600a825260408520805460ff191660ff8615151617905592610776565b50346100c957806003193601126100c957546040516001600160a01b039091168152602090f35b50346100c95760203660031901126100c95760043580151580910361032c5760207fc0ba71a1e154ad00ae54547692316a84071f37ae60377dea6c682fb8acca02f391610adb611084565b60045461ff008260081b169061ff00191617600455604051908152a180f35b50346100c957806003193601126100c9576020600754604051908152f35b50346100c957806003193601126100c957610b31611084565b80546001600160a01b03198116825581906001600160a01b03167f8be0079c531659141344cd1fd0a4f28419497f9722a3daafe3b4186f6b6457e08280a380f35b50346100c957806003193601126100c9576020600554604051908152f35b50346100c957806003193601126100c957602060ff600454166040519015158152f35b50346100c957806003193601126100c9576002546040516001600160a01b039091168152602090f35b50346100c957806003193601126100c9576020600354604051908152f35b50346100c95760203660031901126100c957602090610c17610dda565b610c20816110dc565b6001600160a01b03909116808352600a8452604083205490919060ff1615610c725750600019905b825260098352604080832062278d00420484528452822054908082106105e4575050604051908152f35b610c80606491600654610e33565b0490610c48565b50346100c95760203660031901126100c9576004359060058210156100c9576020610cb183610e04565b54604051908152f35b50346100c957806003193601126100c957602060ff60045460081c166040519015158152f35b50346100c95760603660031901126100c957610cfa610dda565b60443590811515809203610419577ff5e5f1c63e12569ad8b63119f286ee1680014655c71f4cd973caf6456ba604d691602091610d35611084565b60018060a01b03166bffffffffffffffffffffffff60a01b600254161760025560243560035560ff196004541660ff821617600455604051908152a180f35b50346100c95760603660031901126100c9577fbd634e5eea5a0d3957f84b1bbb814ddf2714eb2ddf4a203f64996d4dac4e5de86060600435604435602435610dba611084565b82600555806006558160075560405192835260208301526040820152a180f35b600435906001600160a01b0382168203610df057565b600080fd5b602435908115158203610df057565b6005811015610e1d57600052600c602052604060002090565b634e487b7160e01b600052602160045260246000fd5b81810292918115918404141715610e4657565b634e487b7160e01b600052601160045260246000fd5b91908203918211610e4657565b15610e7057565b60405162461bcd60e51b815260206004820152601e60248201527f534d4152545061796d61737465723a206e6f7420456e747279506f696e7400006044820152606490fd5b91908201809211610e4657565b90601f8019910116810190811067ffffffffffffffff821117610ee457604052565b634e487b7160e01b600052604160045260246000fd5b610f2e337f00000000000000000000000000000000000000000000000000000000000000006001600160a01b031614610e69565b60ff60045460081c161561104057356001600160a01b0381169190828103610df05782600052600b60205260ff6040600020541661105a5760075482118061106b575b61105a5782600052600a60205260ff6040600020541615610fb7575b50604051916020830152604082015242606082015260608152610fb1608082610ec2565b90600090565b610fc0906110dc565b6064610fdc81610fd284600554610e33565b0492600654610e33565b0490836000526008602052604060002062015180420460005260205261100783604060002054610eb5565b1161105a57826000526009602052604060002062278d00420460005260205261103582604060002054610eb5565b116110405738610f8d565b5050604051611050602082610ec2565b6000815290600190565b505050604051611050602082610ec2565b5082600052600a60205260ff6040600020541615610f71565b6000546001600160a01b0316330361109857565b606460405162461bcd60e51b815260206004820152602060248201527f4f776e61626c653a2063616c6c6572206973206e6f7420746865206f776e65726044820152fd5b6040516390ef577760e01b815290602090829060049082906001600160a01b03165afa809160009161112e575b50906111155750606490565b61111e90610e04565b5480156111285790565b50606490565b6020813d602011611161575b8161114760209383610ec2565b8101031261032c57519060058210156100c9575038611109565b3d915061113a56fea26469706673582212207aa911dee0d373e617bea633271c9fbd7656eff3ff49fe5bda55528386daec2664736f6c634300081e0033",
  "linkReferences": {},
  "deployedLinkReferences": {}
}